:020000040800F2
:1000000000100020253F0008A58E0008A58E0008DE
:10001000A58E0008A58E0008A58E0008A58E0008F4
:10002000A58E0008A58E0008A58E0008A58E0008E4
:10003000A58E0008A58E0008A58E0008A58E0008D4
:10004000A58E0008A58E0008A58E0008A58E0008C4
:100050000145000821840008BD470008A58E00085E
:10006000A58E0008A58E0008A58E00087D4A000810
:10007000A58E0008A58E0008A58E0008A58E000894
:10008000A58E0008A58E0008A58E0008A58E000884
:10009000A58E0008A58E0008953E0008A58E0008D4
:1000A000A58E0008A58E0008A58E0008A58E000864
:1000B000A58E0008A58E0008A58E0008A58E000854
:1000C000A58E0008A58E0008A58E0008A58E000844
:1000D000A58E0008A58E0008A58E0008A58E000834
:1000E000A58E0008A58E0008A58E0008A58E000824
:1000F000A58E00087B900008A58E0008A58E00083C
:10010000A58E0008A58E0008A58E0008A58E000803
:10011000A58E0008A58E0008A58E0008A58E0008F3
:10012000A58E0008A58E0008A58E0008A58E0008E3
:10013000A58E0008A58E0008A58E0008A58E0008D3
:10014000A58E0008A58E0008A58E0008A58E0008C3
:10015000A58E0008A58E0008338B0008A58E000828
:10016000A58E0008A58E0008A58E0008A58E0008A3
:10017000013800D0FCE7704710B5054C237833B93F
:10018000044B13B1044800E000BF0123237010BDED
:10019000E812002000000000E097000808B5034BBB
:1001A0001BB10349034800E000BF08BD0000000088
:1001B000EC120020E0970008A3F5803A704700BFDA
:1001C000174B002B08BF134B9D46FFF7F5FF00218F
:1001D0008B460F461348144A121A08F044FF0E4B80
:1001E000002B00D098470D4B002B00D098470020E3
:1001F000002104000D000D48002802D00C4800E04A
:1002000000BF08F0BBFA2000290008F013FF08F037
:10021000A1FA00BF0000080000000000000000007C
:1002200000100020E8120020C01C00200000000088
:100230000000000010B5044603F0FAFE4FF47A7295
:100240009042B0FBF2F105D23621BDE810400C48D7
:1002500008F026BE0B4BB3FBF1F30B49884201D9E2
:100260003C21F2E702FB04F0B0FBF3F0022806D9D0
:10027000BDE810400323B0FBF3F0FFF779BF10BDDA
:100280000092000840420F00E7CD9A3B30B50F4C7A
:1002900041612368ABB92060836011E0891A9A68D4
:1002A0001D4641612AB113465A698A42F6D955B1B1
:1002B0001A461346A860836013B15A69511A5961EE
:1002C00030BD0025F0E72060F5E700BF10130020E7
:1002D00010B500F049FA0A4C0A4B19682368C31A92
:1002E00001B10BB9206010BD4A699A423ABF9B1A0E
:1002F0000022D21A4A6128BF00238968F0E700BFB4
:10030000041300201013002038B5134D2B685B69CF
:1003100093B1124A022014681C4408F001FC2046E4
:1003200000F02AFA00230E492A680B70D088800753
:1003300009D501230B7038BD022008F0F1FB022023
:1003400000F068FAEEE79268002AF4D0506903449E
:10035000012BEBD9EFE700BF10130020041300209E
:10036000F11B002070B516469DF81420C0E9033635
:100370000271049ABDF818300260002204460D464E
:100380008260C38006BB00F0EFF92844A0613DB94C
:10039000E368656113B120462168984796B13546F8
:1003A00008F03BFC0646FFF793FF29462046FFF77F
:1003B0006DFF074B1B68A34201D1FFF7A5FF304635
:1003C00008F02FFC002070BD00F0CEF93044DDE7CE
:1003D0001013002000220C490B687BB183420AD124
:1003E00083687AB1936083681BB15A6941690A4492
:1003F0005A61002070471A469B68EEE70028EFD04C
:10040000022070470B60EEE71013002070B508F073
:100410000BFC144E05463478FCB9134B1C60134B8F
:100420001C60134B1C8000F055F9012008F078FB8C
:1004300008F099FB0F4B0246186020B9284608F0D7
:10044000F9FB232070BD234640F2E7310A4807F04C
:10045000F1FF0A4B186001233370284608F0EAFBCD
:100460000020EFE7F01B00201013002004130020F1
:10047000B81700200C13002018FCFFFF0813002001
:100480002DE9F0410546F8B108F0C7FB0F4F0646CD
:10049000FFF71EFF2846D7F80080FFF79BFF0446B2
:1004A00028B1304608F0BDFB2046BDE8F081A845E4
:1004B0003B6803D123B1FFF727FFF2E7002BF0D110
:1004C000022000F091F9ECE72224EDE71013002060
:1004D00038B50C46054698B191B100230B7008F071
:1004E000A3FB0121074B1B680BB122781AB108F05E
:1004F000A1FB002038BDAB4214BF9B682170F3E71D
:100500002220F7E710130020014B1868704700BF46
:100510000C13002038B540F2E7340021054B4FF4AE
:100520007A721D680023E5FB0041204607F082FF38
:1005300038BD00BF0C13002000B58DB001238DF82D
:100540000F30FFF7E7FF00230146CDE90033074AEC
:100550000DF10F0304A808F0ABFA18B99DF80F309D
:10056000002BFBD10DB05DF804FB00BFAB8A000887
:100570002DE9F84FC20704460BD54F4A13880133C3
:100580009BB21380FFF7A4FE4C4B1B680BB1FFF727
:10059000BBFEA30740F18E8008F046FB4FF0000A37
:1005A00005465646FFF794FED046444FDFF81491B7
:1005B0003C680CB163698BB10022414B012E1A706B
:1005C00003D11AF0020F18BF1E70002C62D0FFF783
:1005D0009BFE2846BDE8F84F08F02CBB23461A794D
:1005E0002179914288BF1C469B6813B15A69002A41
:1005F000F5D0284608F01EFBD4F810A0BAF1000F81
:100600004CD000F0B1F8A269851AEB17AA4578EB37
:10061000030344DA236913440122A36123691BB352
:1006200012BBEB17BAEB050563EB4303002B04DAAF
:1006300040F22B51484608F033FCA38B33B1E28BD8
:1006400013449BB2B3F57A7F1CD2E38308F0ECFA33
:10065000824629462046FFF719FEA36922695046C3
:100660001344A36108F0E6FAE368B4F806A0013683
:1006700013B120462168984708F0D6FA0546FFF7DF
:1006800027FE95E7A3F57A73E383A369013D013B58
:10069000A361DBE7022000F0A7F89AE7554608F0CF
:1006A000C3FA83462046FFF795FE584608F0C2FA83
:1006B0000022B3E7BDE8F88FB81700201013002020
:1006C000F21B00203B920008014B1870704700BFDE
:1006D000F21B002010B586B0002401213E20ADF8A9
:1006E0000810CDE903448DF804408DF80A400594C4
:1006F00000F09AFC01A800F015F9204602A98DF837
:10070000084000F01FF920460F2100F051F90F2199
:10071000204600F05BF900F0EBF800F0C7F840224B
:10072000034B9C61034BC3F888219A6006B010BD4F
:1007300000800A5000E100E008B501213B2000F0F4
:1007400073FC41F201120021022002F065FE4FF419
:1007500098720021022002F091FE024B9A6C9A647A
:1007600008BD00BF00800A5008B500F09FF8014B9B
:10077000986908BD00800A50F8B5044608F04DFAA3
:10078000074600F093F8164B9D6908F0C5F9064638
:10079000002000F029F9830704D4731B032B01D830
:1007A000AE420FD10021631B022B98BFEC1C084600
:1007B000B4F1FF3F2CBF2246621E00F03DF902203B
:1007C00008F0AEF9384608F02CFA064A137833B12F
:1007D00003498B6C43F001038B6400231370F8BD55
:1007E00000800A50DC100020830700F0010109D5C9
:1007F0000122064B41F002011A70054A936C23F066
:1008000001039364002000F0D3B800BFDC10002087
:1008100000800A50830742BF0222014B1A647047CE
:1008200000900A5007B5084B18689A889B79009089
:100830006846ADF804208DF8063001F07FFC0020FA
:1008400003B05DF804FB00BF7E92000813B50024DE
:10085000064A6846536F43F00103536700948DF8CE
:10086000044001F09BFB204602B010BD0040005048
:1008700010B56FF0040250210A480B4C12F0800FA3
:10088000D3B21BBF03F00F03043BA3181B1802F1E4
:1008900001020CBF83F8001319764C2AEED1002018
:1008A00010BD00BF00ED00E000E100E0034B5A681E
:1008B000D20702D5DA69002AF9D1704700800A50C0
:1008C000054B9A689107FCD45A689207F9D4DA6903
:1008D000002AF6D1704700BF00800A5008B5FFF724
:1008E000E5FF0222014B1A6108BD00BF00800A50DB
:1008F00008B5FFF7E5FF0122024B03F580514A607E
:100900001A6108BD00800A5008B5044B59680129D6
:1009100003D1FFF7E3FF024B596008BD00800A5086
:1009200000A00A5010B5064CFFF7CAFF6368012B00
:1009300003D1FFF7E9FFFFF7C3FF0378E36010BDC2
:1009400000800A5018B17F21104808F0A9BA4A68FF
:100950000B7812B1127843EAC2034A78002A14BF16
:100960000222002213438A6812B1127843EA8213EA
:100970008A78002A14BF042200221343CA6812B1E5
:10098000127843EA4223024A936470478592000832
:1009900000800A5020B14FF48971034808F080BAF2
:1009A000024B5964704700BF8592000800900A50BE
:1009B00020B14FF4A771034808F072BA024B596492
:1009C000704700BF8592000800A00A5020B14FF484
:1009D000C571034808F064BA024B1964704700BF40
:1009E0008592000800A00A5008B530B1044840F2D2
:1009F000C51108F055FA002008BD024B186CFBE742
:100A00008592000800800A5008B548B108484FF4A4
:100A10001D7108F045FA002008BD064BD86CFBE7B5
:100A20000029FAD00129F7D1024B186DF4E700BF75
:100A30008592000800800A5050B140F212310748F8
:100A400008F02EBA064BDA647047054B1A657047FA
:100A50000029F7D00129F8D0704700BF859200081F
:100A600000800A5008B530B1044840F2B53108F0B2
:100A700017FA002008BD024B586DFBE7859200086D
:100A800000800A50044BD3F88420D206FBD4D3F85C
:100A90008400C0F3811070470040005038B51A4BF5
:100AA0000546D3F820010C4600F00700062821D89F
:100AB000DFE800F028040C1410181C0003F098FA6A
:100AC000052305B1286004B1236038BD03F0C6FAE0
:100AD0000323F6E703F0DCFA0723F2E703F0D4FA86
:100AE0000223EEE703F084FA0623EAE703F0B6FAFE
:100AF0000423E6E7054841F25C2108F0D1F9002320
:100B00001846DEE70123DCE700800050C4920008AD
:100B100038B5194B0546D3F828310C4603F00703C6
:100B2000013B052B20D8DFE803F003131B0F0B1745
:100B300003F05EFA052305B1286004B1236038BDD7
:100B400003F056FA0623F6E703F0A2FA0723F2E7CA
:100B500003F084FA0323EEE703F080FA0423EAE7C4
:100B600003F092FA0223E6E7044841F2640108F038
:100B700097F900231846DEE700800050C492000871
:100B8000F7B50027144B0197D3F88041064604F0CF
:100B90000304022C0D4614D0032C0DD0012C14D1CB
:100BA000394601A8FFF77AFF0F240EB1019B33608D
:100BB00005B12C6003B0F0BD03F06AFA0724019080
:100BC000F3E703F061FA0190EFE741F2B131034836
:100BD00008F066F93C46E8E700800050C49200083F
:100BE00038B50F4B0546D3F890320C4603F003039B
:100BF000012B09D0022B0BD103F04AFA072305B1D0
:100C0000286004B1236038BD03F03EFA0223F6E702
:100C1000044841F2501108F043F900231846EEE76A
:100C200000800050C492000837B500230193194B8F
:100C30000546D3F820320C4603F00703042B1FD8D7
:100C4000DFE803F025030F141900002101A8FFF7C6
:100C50005FFF11230DB1019A2A6004B1236003B034
:100C600030BD03F015FA07230190F3E708F028F9E7
:100C70000A230190EEE703F04DFA09230190E9E71A
:100C800041F22301044808F00BF90023E2E70123B5
:100C9000E0E700BF00800050C492000838B5104B58
:100CA0000546D3F840310C4603F00303022B0BD06A
:100CB000032B0DD0012B0FD108F002F90A2305B147
:100CC000286004B1236038BD03F024FA0923F6E755
:100CD00008F0F9F80B23F2E701230020EFE700BF4B
:100CE0000080005037B500230193184B0546D3F818
:100CF00060320C4603F00703013B032B1FD8DFE8EB
:100D000003F0020E1914002101A8FFF7C7FE0F23FC
:100D10000DB1019A2A6004B1236003B030BD0021F7
:100D200001A8FFF7BBFF1023F2E703F0B1F9072397
:100D30000190EDE703F0A8F902230190E8E741F202
:100D4000C801034808F0ACF80023E1E70080005038
:100D5000C492000873B500240F4B0194D3F870328D
:100D6000064603F00303012B0D4607D0022B11D0DA
:100D700041F22611094808F093F804E0214601A841
:100D8000FFF78CFF10240EB1019B336005B12C607E
:100D900002B070BD1424F6E700800050C492000831
:100DA00038B5164B0546D3F800020C4600F0070094
:100DB000042819D8DFE800F020030B0F130008F017
:100DC0007FF80A2305B1286004B1236038BD03F021
:100DD000A1F90923F6E708F076F80B23F2E703F010
:100DE00027F90E23800AEDE7054841F26F4108F02C
:100DF00057F800231846E5E70123E3E70080005099
:100E0000C492000838B5164B0546D3F808020C46C4
:100E100000F00700042819D8DFE800F020030B0FCA
:100E2000130008F04DF80A2305B1286004B12360CF
:100E300038BD03F06FF90923F6E708F044F80B23F7
:100E4000F2E703F0F5F80E23800AEDE7054841F2DA
:100E5000A74108F025F800231846E5E70123E3E75A
:100E600000800050C492000838B5104B0546D3F8F6
:100E700040320C4603F00303022B0BD0032B0DD0A2
:100E8000012B0FD108F01CF80A2305B1286004B12A
:100E9000236038BD03F03EF90923F6E708F013F8A4
:100EA0000B23F2E701230020EFE700BF0080005092
:100EB00038B5124B0546D3F850320C4603F0030305
:100EC000022B0FD0032B05D0012B0FD107F0F8FF19
:100ED0000A2302E007F0F7FF0B2305B1286004B1F5
:100EE000236038BD03F016F90923F6E7044841F200
:100EF000940107F0D5FF00231846EEE7008000506C
:100F0000C492000838B5104B0546D3F860310C4642
:100F100003F00303022B0BD0032B0DD0012B0FD1B9
:100F200007F0CEFF0A2305B1286004B1236038BD65
:100F300003F0F0F80923F6E707F0C5FF0B23F2E70B
:100F400001230020EFE700BF0080005010B5B0F58E
:100F5000207F34D009D8B0F5007F2AD003D898B1CB
:100F6000B0F5C07F10D0002421E0B0F5607FFAD149
:100F7000154BD3F88030C3F301149B0617D5032C0F
:100F800015D040F295210FE00F4B1C6F230B13F08F
:100F90000E0FC4F303340AD0032C08D0072C06D05C
:100FA0000F2C04D040F28521084807F079FF601C1F
:100FB00010BD054BD3F89040C4F30464F7E7024B2F
:100FC0001C6FC4F38024F2E700800050C492000834
:100FD00038B54FF48032104B04469A6600200D4617
:100FE000FFF7B4FF41F671320C4B6043DC69DA6302
:100FF0005A6804F4803422F440125DB908498842EA
:101000008CBF4FF480100020104358600CB10022B8
:10101000DA6338BD0349F2E7009000500000035046
:10102000005A6202002D310170B5440905460E4692
:101030000ED140F22F310F4807F032FF05F01F05A7
:10104000AEB104F58053012000FA05F51D6070BDB6
:10105000012C08D0022C08D040F23D31054807F0A1
:101060001FFF0024EAE7044CE8E7044CE6E704F538
:101070000053E8E7C4920008648000506880005084
:1010800030B585B00021B0F5807F0446019100F0B5
:10109000F38066D858285CD858285CD8DFE810F070
:1010A00071005B005B005B005B005B005B005B0052
:1010B0005B005B005B005B005B005B005B005B0058
:1010C0005B005B005B005B005B005B005B005B0048
:1010D0005B005B005B005B005B005B005B005B0038
:1010E0007100CF005B00CF00E200E200E200E2000E
:1010F000E200CF00E7007A00FD009A007A00CF00FE
:10110000CF00CF005B005B005B005B005B005B001F
:101110005B00FD00CF00CF00CF0015010201CF0022
:101120005B005B005B005B005B005B005B005B00E7
:101130005B005B005B005B000701E2007100710077
:101140007100AD007A007A00B5000C018F00C40078
:10115000C40080286DD040F294415E4807F0A0FEA4
:101160006AE0B0F5E06F00F09D8038D8B0F5607FA0
:101170006FD01AD8B0F5007F6BD005D8B0F5C07F1E
:10118000E9D102F055FF56E0B0F5207F57D0B0F519
:10119000407FE0D102F04CFF04464FF42070FFF78F
:1011A000D5FEB4FBF0F0400845E0B0F5B06F5ED07E
:1011B0000AD8B0F5806F55D0B0F5A06FCBD1002123
:1011C00001A8FFF731FD37E0B0F5C06F65D0B0F58D
:1011D000D06FC0D1002101A8FFF7E2FD2CE0B0F5EF
:1011E000286F69D016D8B0F5186F60D00AD8B0F55E
:1011F000F06F6AD0B0F5106FADD1002101A8FFF7F4
:1012000001FE19E0B0F5206FA5D1002101A8FFF77C
:1012100069FD11E0B0F5306F53D09CD3B0F5386F55
:101220003BD0B0F5406F96D1002101A8FFF770FCCC
:1012300002E002F0E3FE0190019805B030BD02F03B
:10124000F7FE04464FF42070FFF780FEB4FBF0F089
:10125000F1E702F0D3FE05462046FFF777FEB5FB27
:10126000F0F0E8E7002101A8FFF718FCE4E700210F
:1012700001A8FFF785FCDFE74FF0E02302911B692F
:101280005B0705D502F0D4FE0290029B0193D3E7E1
:1012900003A902A8FFF702FDF7E7002101A8FFF765
:1012A000FDFCC9E7002101A8FFF7DEFDC4E700212E
:1012B00001A8FFF7FDFDBFE7002101A8FFF74AFDE8
:1012C000BAE701A8FFF78CFCB6E7002101A8FFF7F9
:1012D00019FEB1E7C49200081FB50023B0F5807F66
:1012E000019300F0D68076D8582867D8382805D8DA
:1012F0002438092848D940F27951BEE039381F28EE
:10130000F9D801A353F820F0B5140008F71200082B
:10131000F7120008F7120008BF14000805150008AE
:10132000F7120008F7120008F7120008F712000879
:10133000F7120008F7120008F7120008F712000869
:10134000F7120008F7120008F7120008F712000859
:10135000F71200080F150008FD130008F712000827
:10136000F7120008F712000841140008F7120008ED
:10137000F71200081915000823150008FB140008CF
:1013800063140008631400080928B4D801A353F8B3
:1013900020F000BFFD130008FD130008FD13000836
:1013A000FD130008FD130008F7120008831400085D
:1013B000F7120008B51400081B14000880289AD101
:1013C0005D4B1B6F03F00703013B032B53D8DFE892
:1013D00003F0504D8890B0F5086F75D022D8B0F565
:1013E000C06F67D00FD8B0F5A06F00F08680B0F561
:1013F000B06F46D0B0F5806F7FF47DAF002001A9BB
:10140000FFF74CFB41E0B0F5E06F7BD0B0F5F06F3B
:1014100055D0B0F5D06F7FF46EAF002001A9FFF773
:10142000BFFC32E0B0F5286F7BD00ED8B0F5186F56
:101430006DD0B0F5206F6FD0B0F5106F7FF45BAF5B
:10144000002001A9FFF7DEFC1FE0B0F5306F6DD082
:10145000FFF451AFB0F5386F2CD0B0F5406F7FF48A
:101460004AAF002001A9FFF753FB0EE005230193CB
:101470000BE00223FBE740F2C641304807F010FDC5
:1014800003E0002001A9FFF77BFB019805B05DF8A0
:1014900004FB02934FF0E0231B695B0705D502F0C4
:1014A000C7FD0C230393039BE1E703A902A8FFF701
:1014B000F5FBF8E7002001A9FFF7F0FBE5E70020C6
:1014C00001A9FFF71FFDE0E71B4BD3F8003103F044
:1014D0000303022B07D0032B09D0012B0BD102F001
:1014E000BDFD0323C3E702F015FE0923BFE707F0A4
:1014F000E5FC0823BBE70123B9E7002001A9FFF7BA
:1015000093FBC2E7002001A9FFF7AEFCBDE7002076
:1015100001A9FFF7CDFCB8E7002001A9FFF7E2FB26
:10152000B3E7002001A9FFF715FCAEE7184601A9B3
:10153000FFF756FBA9E700BF00800050C4920008E7
:101540004FF48012034B5A664FF48032024B9A627A
:10155000704700BF009000500050005A70B50368FB
:1015600004460F2B04D940F66D31814807F098FCF2
:1015700063680F2B04D94FF437617D4807F090FC66
:10158000A3680F2B04D940F67331794807F088FC23
:10159000237B0F2B04D940F67631754807F080FC89
:1015A000637B0F2B04D940F67931714807F078FC42
:1015B000A37B3F2B04D940F67C316D4807F070FCCB
:1015C000E37B3F2B04D940F67F31694807F068FC84
:1015D0002369032B04D940F68231654807F060FC8B
:1015E0006369032B04D940F68531614807F058FC44
:1015F000E369032B04D940F688315D4807F050FCBD
:101600008020FFF769FE032800F091804FF48012DC
:10161000584B594D5A6645F60E034FF0A062C5F877
:101620008030564B9A624FF4803203F580539A62B1
:10163000AB6DDA03FCD4AE6D16F08046FBD1D4E975
:1016400000231B0543EA0263E27B4D481343227BE0
:1016500043EA0243627B43EA0233A27B43EA8213FA
:101660002B61AA69D4E904131B0643EA816302F0E3
:1016700000421343A27E4FF440611343227E43EAAB
:101680000243627E43EA0223AB614FF4006207F03B
:1016900082FAE1692B6A00290CBF00220822E07E51
:1016A00023F00F0343EA010343EA800343EA020302
:1016B000314A344D13623BD194F82430916A94F846
:1016C0002000DB000D4043EA401394F821102B4327
:1016D00043EA011343F4803393622B4B916D33EA59
:1016E0000101FBD14FF08071244881621369A56824
:1016F00023F4700343EA055313614FF00043836101
:1017000094F822300BB9214B996294F823303BB9FD
:101710004FF480321D4B9A62174A936D5B00FCD4E4
:1017200094F825301BB1144B194AC3F8802070BDC2
:10173000022908D116614FF47F41966115484FF494
:10174000085207F028FA0C4994F822308A6A94F873
:1017500020001B06154043EA401394F824202B4335
:1017600043EAC20394F8232043EA02438B62D7E79B
:10177000C4920008009000500040005A0050005AE7
:101780003840005AC7FFFEFE030001000060005A07
:10179000F1A7FFFF3440005A014B93F90000704756
:1017A000DD100020014B1880704700BFB8100020EA
:1017B00010B5B0F5207F5FD00ED8B0F5007F49D0CE
:1017C00003D800B3B0F5C07F1DD040F21231BDE8A0
:1017D0001040314807F064BBB0F5607FF5D14C1E76
:1017E000012C06D9042904D04FF43D712A4807F092
:1017F00057FB2A4AD2F8803023F0300343EA04131F
:10180000C2F8803010BD102901F1FF3404D8244BF8
:1018100023FA01F1CB0704D440F2C7211E4807F098
:101820003FFB07F0C9F907F0D5F91C4A136F23F401
:10183000704343EA0433136702F0FAFB0446FFF7F0
:1018400021F9C0F10201204607F0BEF9BDE81040C1
:1018500000F028B84C1E1F2C04D940F206310E4867
:1018600007F01EFB0D4BD3F8901021F0F85141EA20
:101870000461C3F89010C5E74C1E012C04D94FF445
:101880004371054807F00CFB044B196F21F480618C
:1018900041EA84211967B5E7C4920008008000502E
:1018A0001601010008B54FF4C070FFF7E9FBBDE871
:1018B0000840044988428CBF022101214FF4207066
:1018C000FFF776BF80F0FA0270B5B0F5807F0C4666
:1018D00000F0688176D8582868D8382805D8243888
:1018E000092849D940F642117EE139381F28F9D834
:1018F00001A353F820F000BF1F1C0008E5180008E2
:10190000E5180008E51800085F1C0008B71D00086E
:10191000E5180008E5180008E5180008E5180008B3
:10192000E5180008E5180008E5180008E5180008A3
:10193000E5180008E5180008E5180008E518000893
:10194000E5180008F71D0008F1190008E51800085F
:10195000E5180008E5180008711A0008E5180008E5
:10196000E5180008211E0008611E00085D1D000822
:10197000B51A0008B51A00080928B3D801A353F80E
:1019800020F000BFF1190008F1190008F119000852
:10199000F1190008F1190008E5180008651B000896
:1019A000E51800081F1C0008271A0008802899D194
:1019B0008B1E062B00F2CB80DFE803F0C6B7C9D13F
:1019C000C9C98B00B0F5086F00F0A9813FD8B0F508
:1019D000C06F00F024811AD8B0F5A06F00F0BE816E
:1019E000B0F5B06F00F0BE80B0F5806F7FF47AAFD5
:1019F000013C062C00F2CF80A34B195DA34AD2F81C
:101A0000203123F007030B43C2F820318CE0B0F5FE
:101A1000E06F00F0D081B0F5F06F00F02081B0F5FC
:101A2000D06F7FF45FAF013C0D2C00F25881DFE8EE
:101A300014F05B015601560156015601560156013C
:101A4000560148015D015201560156015401B0F59D
:101A5000286F00F005821FD8B0F5186F00F0CB8119
:101A6000B0F5206F00F0DC81B0F5106F7FF43AAF75
:101A7000013C0D2C00F24A81DFE814F04D014801D1
:101A80004801480148014801480148013A014F0115
:101A90004401480148014601B0F5306F00F0F7817C
:101AA000FFF420AFB0F5386F00F0B980B0F5406FAB
:101AB0007FF418AF023C052C00F27681744B195D5F
:101AC000724AD2F8283123F007030B43C2F82831B9
:101AD0002AE0002504260121022000F069FA07F01F
:101AE0006BF807F077F8694A136F23F00703334365
:101AF000136702F09DFA0646FEF7C4FFC0F102012B
:101B0000304607F061F80121002000F0A9FAFFF744
:101B1000C9FE4DB9032C07D14FF480325D4B9A6258
:101B20005D4A936D5800FCD470BD4FF480125B4B3E
:101B30000E465A664FF48032574B9D6A03F5805328
:101B4000C5F300659A62C6E700250126C3E70025B4
:101B500040F23161524807F0A3F92E46BBE7002559
:101B60000226B8E7072C12D00F2C12D0022C05D079
:101B700040F27A614A4807F093F90024434BD3F8C6
:101B8000801121F003010C43C3F88041CCE703240A
:101B9000F4E70124F2E740F2B961414807F080F927
:101BA00000212BE70C2924D01AD8A1F10904022C1A
:101BB00018D84FF48032354B3A49586E03F58053AC
:101BC0005A664B6A43F001034B62C1035CBF364B5C
:101BD0005A664FF0E022136923F004031361A3E770
:101BE0001029E6D040F2E161BDE870402C4807F0D2
:101BF00057B94FF48032254B2A49586E03F580536C
:101C00005A664B6A23F001034B62C3035CBF264B49
:101C10005A664FF0E022136943F00403DEE7013C0B
:101C20000A2C13D8DFE804F0171212121212121243
:101C30000619100002221549D1F8403123F00303A0
:101C40001343C1F840316FE70322F4E740F201711A
:101C5000134807F025F90022EDE70122EBE7013CEC
:101C60000A2C25D8DFE804F0292424242424242461
:101C7000062B220002220549D1F8603123F003032C
:101C80001343C1F860314FE7F39200080080005021
:101C9000FA9200080060005A0040005A009000507C
:101CA000C492000800C0075000A000500322E2E7E1
:101CB00040F22371814807F0F3F80022DBE70122AC
:101CC000D9E702237E49D1F8002222F0070213430C
:101CD000C1F8003228E70323F4E70423F2E74FF4C6
:101CE000EE61764807F0DCF80023EBE70123E9E733
:101CF00002237349D1F8082222F007021343C1F8E6
:101D0000083211E70323F4E70423F2E740F2947169
:101D10006A4807F0C5F80023EBE70123E9E74C1E0A
:101D2000082C12D8DFE804F0161118111111110F48
:101D3000050002226249D1F8003123F00303134366
:101D4000C1F80031F0E60322F4E74FF4F6615B4896
:101D500007F0A6F80022EDE70122EBE7012C1FD0E7
:101D6000073C0A2C17D80A2C15D8DFE804F0061413
:101D700012101414141414141B0002235049D1F827
:101D8000202222F007021343C1F82032CCE60323BD
:101D9000F4E70423F2E740F63D01484807F080F8F5
:101DA0000023EBE70123E9E740F66E01434807F023
:101DB00077F8002184E6013C0A2C13D8DFE804F010
:101DC00017121212121212120619100002223C49A6
:101DD000D1F8403223F003031343C1F84032A3E6A5
:101DE0000322F4E740F6AC01344807F059F800222A
:101DF000EDE70122EBE7093C022C0AD8314B195DD3
:101E00002F4AD2F8503223F003030B43C2F850326A
:101E10008AE640F6C801294807F042F80021EFE7BA
:101E20000F2C17D012D8022C16D0072C16D040F643
:101E3000E201224807F034F800222149D1F860324B
:101E400023F007031343C1F860326DE6102CEED186
:101E50000222F2E70122F0E70322EEE70422ECE798
:101E6000102C10D0142C10D04FF41161134807F02F
:101E700017F800221249D1F8703223F003031343FC
:101E8000C1F8703250E60122F4E70222F2E702299B
:101E900010D0072910D040F62311084807F000F8A9
:101EA00000220749D1F8903223F003031343C1F80D
:101EB000903239E60122F4E70222F2E7C4920008E8
:101EC00000800050009300080028ABBF00F1604084
:101ED000054B00F5614000F00F00ACBF90F8000327
:101EE000185C0009704700BF14ED00E038B5C5B2BA
:101EF0004B2D044604D94FF44D71074806F0D0FF2E
:101F0000064B640953F8240005F01F05E840C04360
:101F100000F0010038BD00BF0393000800E100E0BD
:101F200010B500F10C03DBB2572B044604D940F284
:101F3000C221144806F0B4FFEFF31083DB0702D58B
:101F40000122104610BD2046FFF7D0FF02460028B0
:101F5000F6D12046FFF7B8FF0146EFF3118313B126
:101F6000B0EB131FECD2084B5B68C3F30803002BE4
:101F7000E7D0103B58B2FFF7A7FF88428CBF002282
:101F80000122DEE70393000800ED00E0024A536BF4
:101F90000342FCD1704700BF00400950034A017959
:101FA000D36E23F030030B43D366704700400050DC
:101FB0002DE9F0410446264BD3F88420D006FBD40B
:101FC000D3F88430C3F381139C423ED002F016F85C
:101FD000012C05460BD11F4B984204D940F2817168
:101FE0001D4806F05DFF0121284606F0EDFD06F0D4
:101FF00014FE4FF00072194B07465A66204606F051
:102000001CFE4FF48063124E621E9340DFF848803E
:102010003367736E9A0103D4D6F884309B060AD5D1
:10202000384606F0FEFD022C0FD12846BDE8F041EF
:10203000002106F0C9BDD6F884309906E9D540F2F2
:102040008F71404606F02CFFE3E7BDE8F08100BF4A
:1020500000400050005A62023393000800600050B4
:1020600007B518B9019101F0C9FF0199064B1B781A
:1020700043B1064B984205D8012003B05DF804EB4C
:10208000FFF796BF0220F8E7F31B0020005A620218
:1020900038B54FF00042244B244C5A664AF6CD33F3
:1020A000656C014605F00105236430BB0120FFF794
:1020B0006DFF6368DB0708D4002415B11B4B1C4A75
:1020C0001A6406F0BBFD204638BD1A4B586008461E
:1020D000194B226BD20705D4984201D10724ECE7B3
:1020E0000130F6E79842E7D1F8E70132236B13F0AD
:1020F000080305D08A42F8D1F0E700220E49F5E73F
:102100008A42EBD020210B4A91620121A2F5805234
:1021100051600649084A886A800603D49342DDD09C
:102120000133F8E79342DEE7009000500040095089
:102130003254FFFF0060095040420F0038B54FF0A5
:102140000042164B01465A664AF6CD33144C154AE6
:10215000656C236443780B205B0043F00103D36379
:10216000FFF714FF63688A7823F4F87343EA0213D5
:102170006360CA784B7943EA0223A3600A798B79BA
:1021800043EA022323610878FFF782FFEB0744BF8D
:10219000054B236406F052FD012038BD009000502D
:1021A00000400950004000503254FFFF10B506F0C7
:1021B0004AFD042300F5805100F500520B611361C4
:1021C0000B6113610B6113610B611361202341F2F9
:1021D000020103610023C360836041614FF4A021C9
:1021E000836141620449C36103628362C3624363E2
:1021F0000365D164036310BDFF3F0D0338B5194B70
:10220000044698420D460BD0174B984208D003F570
:102210008043984204D04FF4B371144806F040FE56
:1022200025B92046BDE8384006F00DBD012204F571
:1022300080535A6040F6FF71204605F00F0206F009
:10224000FEFCA263782106F0FAFC05F001036A07A0
:1022500048BF43F00203A26C02F003029A42FAD193
:1022600038BD00BF0000015B00000A506293000807
:102270002DE9F04105460C46174622B94FF4097185
:10228000704806F00DFE704B9D4200F0CA806F4B07
:102290009D4200F0CB8003F580439D4200F0CB804F
:1022A00040F22721674806F0FBFD44B940F2763141
:1022B000644806F0F5FD2046FEF7E2FE0446AB68F2
:1022C000D90744D5BC4204D240F231215D4806F022
:1022D000E7FD6B6803F00108B4FBF7F35C1EFF2C0D
:1022E00004D940F23921574806F0DAFDB8F1000F61
:1022F0002BD02821284606F0A2FCAB6C9A071ED1F1
:10230000AB6CDB071DD4AE6C16F002061BD140F29D
:1023100046214C4806F0C4FD284606F094FC2B6983
:1023200023F07F4343EA04632B61B8F1000F00F010
:10233000878031462846BDE8F041FFF75FBF05269C
:10234000EAE70926E8E70626E6E74646E7E76B6898
:10235000012B04D040F259213A4806F0A1FDA968AA
:1023600001F0E001402946D009D8B9B1202938D080
:1023700040F29B21BDE8F041324806F091BD602952
:1023800045D08029F4D107EB4703A34204D940F29A
:1023900095212C4806F084FD012308E0B7EB141FBB
:1023A00004D940F28121274806F07AFD10237B43AF
:1023B0006401B4FBF3F3264E203BB6EBC30F4FEAA8
:1023C000C30404D240F2A6211E4806F069FD284647
:1023D0003440012106F033FC2C63BDE8F04106F0E7
:1023E0002EBCB7EBD40F04D940F28621154806F075
:1023F00057FD0823DBE70626B4FBF6F3BB4204D205
:1024000040F28B210F4806F04BFD3346CFE7B7EB88
:10241000940F04D94FF424710A4806F041FD0423B7
:10242000C5E7002C7FF44BAF562444E7002C7FF423
:1024300046AF57243FE7002C7FF441AF58243AE7DA
:10244000BDE8F081629300080000015B00000A50C3
:10245000F8FF7F0070B5824B044698420D460AD0C3
:10246000804B984207D003F58043984203D0DF2188
:102470007D4806F015FD1DB9E1217B4806F010FDF1
:102480006A7BAB687AB1794A934203D9E3217648F3
:1024900006F006FD2B69D3B1DB7BC3B1E6217248A0
:1024A00006F0FEFC13E0724A934203D9E9216E481C
:1024B00006F0F6FC2B6953B11A7F42B1A9686D4A48
:1024C0005B7F914240F2A080042B00F2A080636801
:1024D0002E6923B140F6FF71204606F0B0FB20467E
:1024E000FFF764FE22696B7BA97B22F087020B4316
:1024F000134343F08003236116B32A6923691178DB
:1025000023F0F8030B43117F43EAC113117943EA27
:102510004113517A43EA0113D17B43EA81132361CA
:10252000E168D2E9053021F0F04121F47021034344
:102530000B43117B527B43EA812343EAC233E360BE
:10254000A368EA7B23F00303134343F00103A36072
:102550002EB32A69A168538803F4C0430B43A360D8
:102560005179A36843EA8123A3609379D079616AA2
:102570001B01000203F0700300F4E06021F47721F6
:1025800021F4EE6103430B43117A527F090301F4F6
:10259000E04112040B4302F4702213436362636947
:1025A0002A7B23F00F0313436361B6B12B695A8969
:1025B000A2615A7B3AB12A4A94422AD19A7B2E4987
:1025C00002F00F024A66DA7B3AB1254A944233D1CF
:1025D0001B7C294A03F00F031366D5E9011220463C
:1025E000FFF746FE05212046FFF708FE282120467A
:1025F00006F025FB2B78A36306F021FBA36CDB43DD
:1026000013F4405FFAD170BD042B3FF660AFF021A8
:1026100045E7144A944209D002F580429442D2D14F
:102620009A7B154902F00F02CA67CCE79A7B1249E0
:1026300002F00F020A67C6E70A4A944209D002F57F
:1026400080429442C9D11B7C0B4A03F00F0393676D
:10265000C3E71B7C084A03F00F03D366BDE700BF46
:102660000000015B00000A5062930008002D310158
:10267000809698003F4B4C000090035070B5436823
:1026800004460D4616461BB140F6FF7106F0D7FA18
:102690002046FFF78BFDE9896B7B62690B43298A32
:1026A00022F44C520B4322F00F0213436361A268E1
:1026B0002B7B297E22F0804222F0E2020B4313435F
:1026C0006A691343A360AB681BB9A36843F0004376
:1026D000A360EB69002B64D0A16898885B4A00F482
:1026E000C0400A4010431A7A40EA82509A7A40EA7F
:1026F00042405A7840EA82005A7B40EAC2009A7B04
:1027000040EA02109A7840EA8220A060E068D3E9AB
:1027100004210A434E4901400A43997942EA812241
:10272000D97942EA4122E2601A7802F0FD010129DA
:1027300008BFE168A2F1020204BF41F00401E160B8
:10274000012A444A4ED8944248D0434A944247D042
:1027500002F5804294420CBF02224FF0FF323F4903
:102760005201114402224A605A7A04F580518A6269
:102770001AB1E26842F40062E260DA7A5AB1E268C1
:1027800042F40042E260334A94423ED11A7B34491B
:1027900002F00F024A66626ADB7B22F003021343F7
:1027A00063623EB196F8203004F58051002B3FD093
:1027B00001230B6205212046FFF720FDAA681AB10C
:1027C00020466968FFF754FD20462978FFF716FD7B
:1027D000A36CDB4313F4405FFAD170BD0022BEE767
:1027E0000122BCE794420CD01B4A94420BD002F564
:1027F000804294420CBF02224FF0FF32194952012D
:10280000AFE70022FAE70122F8E7134A944209D021
:1028100002F580429442BED11A7B114902F00F02A8
:10282000CA67B8E71A7B0E4902F00F020A67B2E7DF
:10283000E26996F8223096F8210022F0090203435B
:10284000134343F00103CB61B4E700BFE39BBDFF3B
:10285000FFF9F0870000015B00000A50C0D403506C
:1028600000900350C0E4035038B5154B044698421D
:102870000D460AD0134B984207D003F58043984287
:1028800003D07021104806F00BFB1DB972210E48D1
:1028900006F006FB2B7B802B03D176210A4806F03D
:1028A000FFFA6B7B032B03D97921074806F0F8FA6E
:1028B00029462046BDE838400022FFF7DFBE00BFB2
:1028C0000000015B00000A506293000838B50D4615
:1028D0000446B0B1012817D0022817D0032803D12D
:1028E0003F23EB40DB0704D440F22D41094806F0BA
:1028F000D7FA302001214443074B01FA05F51D5159
:1029000038BD40F2FF13ECE77F23EAE740F2FF33E4
:10291000E7E700BF9493000840D0035038B50D4658
:102920000446B0B1012817D0022817D0032803D1DC
:102930003F23EB40DB0704D440F2FE31094806F0A8
:10294000AFFA302001214443074B01FA05F51D5130
:1029500038BD40F2FF13ECE77F23EAE740F2FF3394
:10296000E7E700BF9493000840E003502DE9F041F1
:102970000D46174698460446002835D0012836D023
:10298000022836D0032803D13F23EB40DB0704D4D1
:102990004FF4B0711D4806F083FA37B1294620463E
:1029A000B8F1000F28D0FFF791FF0F21072D04EB9E
:1029B000440688BFA5F108034FEA0616144895BFE0
:1029C000AB009B0004360C3607FA03F29940304402
:1029D00006F06CF9BFB929462046B8F1000F0ED0B9
:1029E000BDE8F041FFF772BF40F2FF13CDE77F2350
:1029F000CBE740F2FF33C8E7FFF790FFD5E7BDE82C
:102A0000F041FFF78BBFBDE8F08100BFFC930008E9
:102A100030C003504369DA01FCD4012300F50050B3
:102A2000024A436053689B07FCD47047004000593A
:102A300038B5134B044698420D4604D04FF4277125
:102A4000104806F02DFA012104F5805362685960A0
:102A5000AB7829881B0403F480330B43E978002901
:102A600014BF4FF4003100210B43C4F89830D30752
:102A700004D42046BDE83840FFF7CCBF38BD00BFC6
:102A8000004000592C94000870B5294B0646984226
:102A90000C46154604D04FF41971264806F000FA8A
:102AA000A378062B04D940F26721224806F0F8F9F2
:102AB0003046FFF7AFFF2378304603F00702637814
:102AC000002BA37818BF08214FEA031303F070030B
:102AD00043EA0203E27808BF0021002A14BF4FF442
:102AE000807200220B4313433367F26A237922F486
:102AF0008B321B0222F4807203F4E0631343627989
:102B00002946120302F480521343A279002A14BF0B
:102B10004FF4803200221343F362FFF789FF012252
:102B200006F580535A60E37903B1F26070BD00BFCF
:102B3000004000592C94000810B5144B0C469842E4
:102B400004D040F26F31124806F0AAF974B92A2075
:102B5000FEF796FA0446B0B10E4B984206D90B4BDD
:102B60009B68C3F302730133B0FBF3F40A4804F526
:102B7000742404F23F24B4FBF0F4601E7F2828BFC5
:102B80007F20C0B210BD0124F0E700BF0040005913
:102B90002C940008005A620240420F0038B5134BD3
:102BA0000C469842154604D040F2AA31104806F06F
:102BB00077F924B940F2AB310D4806F071F90D49AF
:102BC0008C4228BF0C461DB92A20FEF759FA05464B
:102BD000621E1544B5FBF4F0A54228BF00F1FF309A
:102BE000032828BF0320C0B238BD00BF00400059F1
:102BF0002C940008005A6202F8B51F46194B0E4685
:102C00009842144604D04FF47971174806F048F9F9
:102C100026B940F2E531144806F042F9FFB1134AF3
:102C2000134D012F08BF1546B54228BF35461CB9C4
:102C30002A20FEF725FA04469DF8182040F2FF30BE
:102C40000132B4FBF2F46A1E1444B4FBF5F3AC4257
:102C500028BF03F1FF33984228BF1846F8BD054D41
:102C6000E2E700BF004000592C940008002D31011C
:102C7000404B4C008096980013B5044601A800F024
:102C800019FC042C04D8064B33F8140002B010BD14
:102C9000044840F2914106F003F90020F6E700BF36
:102CA000749400082C9400082DE9F04F2DED048B4E
:102CB0008DB00646DFF82CC306AF0C461546BCE8BF
:102CC0000F000FC79CE80300BA4B87E803009E4241
:102CD00003D0F121B84806F0E3F8B84F0022394696
:102CE0003046FFF75BFF6379984238BF18465FFABA
:102CF00080F83046FFF78EFE207950B92A20FEF783
:102D0000BFF9B842014628BFB0FBF8F13046FFF7E3
:102D100013FFE3784FEA08721B0102F0E04203F070
:102D2000300313430004227800F4FE0003430AB189
:102D300043F0020362780AB143F00403A2780AB1B7
:102D400043F008034FF0000AB360E388228933613F
:102D5000638943EA02433362964B9E4202D1BAF141
:102D6000020F08D1012306F5805673600DB0BDEC4B
:102D7000048BBDE8F08F2B78AF68002B4DD09049C5
:102D8000904A012B18BF11468A4C00222046CDF8EC
:102D900000800393FFF730FFBFB2874238BF07467A
:102DA00004EB0A14A16CDFF840C2039B01EA0C0C8F
:102DB0006978B946890003F0030747EA0C0701F078
:102DC0001C010F43A97828794901C9B20F43E9785A
:102DD0004FEA0A1B090301F4E0413943070407F4F1
:102DE000E02739432F7C7F0507F4600739436F796B
:102DF0003F0707F040573943A164A16C0AF105076A
:102E0000C1F3023101F1FF3C6F4CBCF1040F33D828
:102E1000DFE80CF03232051422006C49B4E7D4F834
:102E20008041012B4FEA14442ED9022B00F0198166
:102E300040F2F111604806F033F89AE0D4F884418A
:102E4000012BA4B2F1D86049002B40F0AA80D1F840
:102E50008C11091449001DE0D4F88441012B4FEA7C
:102E60001444E2D85849002B40F09E80D1F88C11D0
:102E7000091401EB41010DE0D4F88041012BA4B20B
:102E8000D3D8032940F084804F49002B7DD1D1F85D
:102E90008C11091407EE901AF8EEE77A22040BF170
:102EA000B24202F58042926C24F4C041C2F3820C1B
:102EB0004FF001020CF1010E02FA0EFE07EE10EACD
:102EC0004FEA8141B8EEC79AF6EE008A3E4A48BF03
:102ED00041F00041BCF1000F40F08880002B66D12A
:102EE000D2F88C311BB208EE103AB8EEC88A37EE31
:102EF000888A002840F09D8005A8039100F0DAFA46
:102F0000DFED337A68EE277A0399DFED326A86EED9
:102F1000897ADFED316A27EE267AF1EE006AB1F1A7
:102F2000004F07EEA67A0BD0DFED2C7A06EE104AA2
:102F300077EE276ABAEEE86A56EE267AB0EE677A3E
:102F4000B5EEC07AF1EE10FACABFB1EE477A38EEAC
:102F5000C77A37EE687AFDEEC77A17EE903AB3F586
:102F6000003F75DB6FEA51416FEA4141114A3B0175
:102F7000D1503F0107F1B247C9F3090007F5804777
:102F800078600AF1010A1435E6E6D1F8941180E779
:102F900004293FF458AF05293FF464AFDFED107A00
:102FA0007CE7D1F8941154E7D1F8941160E7D2F896
:102FB000943197E7004000592C940008005A6202AF
:102FC000002D3101404B4C000080E00F80969800AE
:102FD0003D3B843F00008043000020440000004946
:102FE000000000005C940008008F18CFABB9D2F845
:102FF00090311BB207EE103AB8EEC77A77EE677AD7
:1030000029EE287A634B87EE878AD3F888311BB282
:1030100007EE903AF8EEE77A69E7D2F898311BB2FA
:1030200007EE103AB8EEC77A37EE677A77EE877A0E
:10303000E6E7D5ED037ADFED586AF8EE677A87EEBA
:10304000A67AF7EE046AC6EE877A67EE887A5CE7BE
:1030500013F5003FAABFC3F3110341F40031194334
:1030600084E7FFF709FE07EE900A0BF1B24303F580
:1030700080439B6C0CAAC3F3421302EB830353ED12
:10308000066A9FED457AF8EE677AC7EE874AFCEE4E
:10309000E67A17EE903AF7EE007A5C2B1CBF36EE1C
:1030A000A77A86EE876A07EE104A9FED3C5AB8EE83
:1030B000477A08BF9FED3A6A27EE057A27EE067A2F
:1030C0009FED386A27EE067AB5EEC07AF6EE005A22
:1030D000F1EE10FA4CBF37EE657A37EE257A0BF138
:1030E000B24202F58042136DBDEEC77A002313652C
:1030F00017EE103A17EE100A13F4004F136D9FED00
:103100002A6A18BF43F000431365284B116D03EA88
:1031100080430B4313651F4BD3F88811D3F88831D4
:10312000116D1BB207EE103AB8EEC77A37EE067A89
:103130009FED1F6A86EE264A76EEA76A84EE266A1F
:10314000F7EE046AC6EEA47AF0EE466A27EE877AB6
:10315000F1EE007A47EE276A07EE104ADFED157AA6
:10316000B8EEC77A76EEA76A25EE477A46EE877AFA
:10317000F5EEC07AF1EE10FA4CBF77EEE57A77EE15
:10318000A57AFDEEE77A17EE903AC3F311030B43ED
:103190001365EEE60080E00F00007A44000000387E
:1031A000E71B753F00000047000000000000FC7FA7
:1031B000000080480000004910B5044618B991216C
:1031C0001F4805F06DFE23781B0613F0604F03D0F7
:1031D00092211B4805F064FEE3780F2B03D9A3214D
:1031E000174805F05DFE01212020FDF71DFF01219C
:1031F0002120FDF719FF0122124B5A602278120696
:103200009A606178A27842EA01429A61FF229A624A
:1032100000229A631A644FF000425A654FF0FF3261
:103220004FF4800103F500531A65074AC2F8801174
:10323000E3781B01DBB282F81633116010BD00BFCA
:103240007E9400080000045000E100E02DE9F04108
:103250000126C3B2072805460C46904606FA03F637
:1032600003DDEC21364805F01BFE1CB9ED21344886
:1032700005F016FE236823F47C1323F00F031BB123
:10328000F0212F4805F00CFEA37A1B0413F47C0FE9
:1032900004D040F209112A4805F002FEE37A1B052A
:1032A00013F07E6F04D040F20B11254805F0F8FDB5
:1032B000237B5B0513F0FE5F04D040F20D11204824
:1032C00005F0EEFD30201F4F1F4B617B1E65AB00EC
:1032D00000FB0575226803F1A04303F588235A60BB
:1032E0002966E37AA27A1B0543EA0243227B43EA7A
:1032F000425328F00302EB652A6705F095FC7B6DCD
:1033000033437B65237A13B13B6C33433B64637A6D
:1033100013B1BB6B3343BB632279A37943EA024306
:10332000094A93616179E37943EA014307498B6173
:10333000044B56639E64BDE8F04105F07BBC00BFC2
:103340007E94000800000450002004500010045037
:103350004FF48032054B9A6641F6713203F51C3307
:10336000DA63012203F50053DA60704700900050E1
:1033700008B5242815D820280AD8012819D00C28E7
:1033800019D068B10E48B62105F08AFD002007E08B
:103390002238022803D8DFE800F010080A000120D4
:1033A00008BD3228EED10620FAE70420F8E7052010
:1033B000F6E70320F4E70720F2E70220F0E700BF7A
:1033C0004495000810B50C280C4617D003D80128E6
:1033D0000FD0204610BD242808D82028F9D9042C65
:1033E000F7D9F6210B4805F05BFDF2E73228F6D05D
:1033F000EFE70229EDD940F20711F3E7022904D0E3
:10340000032904D04FF48B71ECE70024E1E7012499
:10341000DFE700BF44950008F8B50546C2F306276C
:1034200002F0070479B90B2804D94FF4FC71114854
:1034300005F036FD104B44EA072444F440240635D9
:1034400043F82540F8BD032804D940F2FD1109488E
:1034500005F026FD21463846FFF7B4FF06463846FC
:10346000FFF786FF044B46EA0020123543F825009B
:10347000E8E700BF449500080080035070B5B2F53E
:10348000805F05460E4614460DD34FF40B71084875
:1034900005F006FD24F0030202F1A04202F56032BD
:1034A00026B9156001E0002AF4D170BD2D02F8E7BD
:1034B000449500084FF48032064B5A6603F5E62324
:1034C0009B69C3F38512827003F03F021B0B4270AD
:1034D00003707047009000500B4B984211D003F5D9
:1034E000804398420DD003F58043984209D003F5FC
:1034F0008043984205D003F58043C31A584258418F
:1035000070470120704700BF0080045038B5054661
:103510000C46FFF7E1FF18B9B421304805F0C0FCB4
:10352000284605F0F5FB012205F500531A632A6BC6
:1035300012F00202FBD1237961881B0243EA814326
:10354000A17A0B436178002914BF402100210B436D
:10355000E17A002914BF802100210B43217B00293F
:1035600014BF202100210B43617B002914BF1021CF
:1035700000210B43A17B002914BF082100210B432C
:10358000E17B002914BF4FF4006100210B43A179B6
:10359000002914BF4FF4803100210B43E179002949
:1035A00014BF4FF4003100210B4301216B6005F57E
:1035B00080531963217809B90223EB6000236B6201
:1035C000207A637A43EA80036079002818BF1022CA
:1035D0001A43AA6009B10123EB6038BD7395000856
:1035E00070B506460C46154622B940F28E210C48AD
:1035F00005F056FC24B94FF42070FDF741FD044658
:103600006D00013CB4FBF5F4064B250213EA0423DC
:1036100004D040F2B321024805F042FCF56170BDD0
:10362000A4950008070080FF10B5124B044698428D
:1036300004D040F24241104805F032FC012104F56B
:103640008053596040F6AA6341F20502636100238A
:103650000A48A360E365E26004F500522361E36178
:10366000E36490640348A365844204BF23656365F3
:10367000516010BD00C00550A4950008FFFF010077
:1036800038B52D4B044698420D4604D040F26931BE
:103690002A4805F005FC2046FFF7C6FF0122A97B5A
:1036A00004F580535A602A8AA368002914BF4FF496
:1036B0008061002142F0010213432A7D0B43002A5E
:1036C00014BF4FF000520022A360A3681343A3600D
:1036D000AB7C5BB1184B9C4202BFEA7CA3F5103374
:1036E000C3F8D421E36D43F08003E3652B7B2046D0
:1036F000D5E9011243F48053E360FFF771FF6B7B60
:103700000BB1102363616B7D1BB1A36843F480335D
:10371000A360AB7D1BB1A36843F40043A360EB7DC2
:103720002A7E1B07120503F0E04302F4E002134374
:10373000A3652B78636138BD00C00550A4950008CF
:1037400038B5144605F070FA0023A36484F84C30B1
:103750002364237F0546012B03D104F16000FCF7AD
:103760008FFE636B1BB100212046E26B9847284611
:1037700005F060FAA36D002B03DCBB21034805F0C4
:103780008FFBA36D0120013BA36538BDD5950008D3
:103790002DE9F04389B01E46002380F85430109B79
:1037A0000446436390F85C308846C663002B36D1EC
:1037B0004FF4406305686B614369092B27D905F114
:1037C0002C03443567694FF00109082F94BF002787
:1037D0000127A16DA06A0131A16517490494CDE9C3
:1037E00002710196216BCDF8009005F03FFB00239C
:1037F0002A46CDE90333CDE901674346E16A606AB1
:10380000CDF8009005F018FB09B0BDE8F0830BBFC0
:1038100005F1200305F1240338353C35D2E7012BAF
:10382000F2D10068079205F0EAFA2568079A05F1D7
:103830003C034435C6E700BF4137000838B50546AC
:10384000B0B1B9B1B2B1B2F5006F13DC05F0ECF96B
:1038500095F84C3003F0FF041BB105F0EBF9064876
:1038600038BD012385F84C3005F0E4F92046F7E730
:103870000248F5E70248F3E7032000F0012000F0DA
:10388000022000F02DE9F0418EB0B64A0B680546E3
:1038900093420C460DF1180807D0B34A934204D066
:1038A00002F58042934240F0DB804746AF4ECDF8B0
:1038B00014800FCE0FC796E80F00103687E80F0070
:1038C0000FCE01AF0FC7002D00F09181002684229A
:1038D0000021284605F0C7FB2368A24AAE65934243
:1038E00040F0928056222A654FF48012A04FC5E91D
:1038F0000B722B600123A44685F85C302F1DBCE8B9
:103900000F000FC79CE80F0087E80F00637E012BB4
:1039100008BF8DF81D30A37E002B40F09280227EE0
:103920008DF81230012AE36840F096809149059A9B
:103930008B428CBF04230523537700238DF811306D
:103940008D4B01213A200393FDF76EFB0121286D79
:10395000FDF76AFB2369DA1F092A64D8063B8DF854
:103960001030237E2BB9E37EB3FA83F35B098DF825
:103970001C300121284605F0D7F9002854D1237ABC
:10398000217941EA03417D4B03EB4612C2F8DC1476
:10399000607A617941EA0041C2F8D414A07AA17931
:1039A00041EA0041C2F8D814E27E002A40F02181A9
:1039B000E27AE379760106F1A04643EA024306F58E
:1039C0007036C6F8C8341D23C6F8C434206801A96F
:1039D000FEF740FD05F028F9694B1A78002A40F0FF
:1039E000FB8001221A7005F025F9FCF70FFD00F0AD
:1039F0001DFA002105F1240000F0E8F90146002835
:103A000000F0ED805F480FE0574A934208D15722FB
:103A10002A654FF488125C490126C5E90B1268E754
:103A20005A4A934203D05A480EB0BDE8F08158225A
:103A30002A654FF49012DFF868C10226C5E90BC26F
:103A400057E7012B01D1042369E7022B3FF467AF4D
:103A5000032BE8D1062362E700228DF8342070E7BB
:103A600046464C4F0FCF0FC697E8070086E8070081
:103A7000002D00F0BC8084220021284605F0F3FAD6
:103A8000002322684449AB658A42CCD129212965AB
:103A90004FF480212746414E85F85C30C5E90B6123
:103AA0002E1D2A600FCF0FC697E80F0086E80F0083
:103AB000637E012B08BF8DF82630A37E002B71D1C9
:103AC000ADF82830237E0121012B03BF00238DF8A0
:103AD00025304FF4E133E3683A200893FDF7A4FA68
:103AE0000121286DFDF7A0FA23691A1F0C2A9AD824
:103AF000033B414620688DF82430FFF7C1FDA369E0
:103B000023F47F0323F47F4323B92A68936843F4A3
:103B100080339360237A2079617940EA0340637AA5
:103B2000A27941EA0341E67EA37A42EA0342134BBB
:103B3000002E47D11D26C3F89867C3F8B007C3F815
:103B4000A817C3F8AC27E17AE27942EA0142C3F848
:103B50009C270121284605F0E7F800287FF464AF90
:103B600038E700BF0000015B00000A500C96000817
:103B7000010010003F4B4C0040420F0000C00350BA
:103B8000F41B0020092000F00100110000400A5041
:103B9000022000F04096000800C00550020004001A
:103BA00001001200012B02D14FF4007388E7022BB1
:103BB00002D14FF4807383E7032B7FF434AF4FF4CB
:103BC00040737DE71C24C3F89847C3F8B007C3F8D7
:103BD000A817C3F8AC27BCE705F02CF807E705F1F8
:103BE000280000F0F3F800283FF41EAF0AE704486D
:103BF0001AE7263603EB46161C237360E6E600BF81
:103C0000012000F07FB51546027F0446012A0E46CA
:103C100013D01A460393FFF711FE60B97DB1094A2C
:103C200031462046039B00922A46FFF7B1FD20460D
:103C300005F0F0F8A06C04B070BD0348FBE7034842
:103C4000F9E700BF1F8D0008082000F0022000F0F7
:103C50002DE9F04F85B09A46554B06461B780F4626
:103C60001546DDF83C909DF844B0DDF85080002BFF
:103C700000F08D80072A00F28C800E9B002B00F054
:103C80008880B9F1000F00F08480129BB3F5006FBB
:103C90007FDC012802D1109B002B7AD0454B03EB2F
:103CA00005131B7B002B76D0434C10220021684665
:103CB00005F0D9F904EB45141022002F59D13946EB
:103CC000204605F0D0F943F210036380BBF1000FEA
:103CD00003D1E37843F00303E370374A0E9B02EB12
:103CE000451CCCE90193129B6901013BC3F30A0017
:103CF0009DF84C30012E03F003034FEA836343EA3F
:103D0000001E53582D48CDF800A000EA03004EEAEB
:103D10000003535041D113230CF1100ECCF80C309A
:103D20009CE80F008EE80F006FF00301DCF81C2008
:103D3000109B61F39F02012FCCF81C20CCF81430AB
:103D400003D1CCF81890CCF804300027194A290187
:103D500002EB051342F80180159A28465A6069461D
:103D600022469F605E73FFF771FA384605B0BDE8E2
:103D7000F08F0021204605F076F94FF444736380FC
:103D8000BBF1000FA9D1E37843F03003A4E70C485E
:103D9000ECE70C48EAE70C48E8E7B8F1000FD4D1AB
:103DA0009CF8023068F304138CF80230CDE700BFB2
:103DB000F51B002014130020941300200F80FFF344
:103DC000028000F0018000F0078000F038B5124B4F
:103DD00005461B78DBB1E0B104F026FF0F4A002353
:103DE0001146147B54B92B6001251A0101EB031312
:103DF0001D738C5004F01EFF204638BD0133082B84
:103E000002F11002EDD104F015FF0548F5E7054871
:103E1000F3E70548F1E700BFF51B0020141300206D
:103E2000048000F0028000F0018000F013B5154B13
:103E30001868002301908DF8043004F0F5FE124B51
:103E40001C7824B104F0F6FE104802B010BD012227
:103E50001A7004F0EFFE0E4B01A81C731C7783F858
:103E60002C4083F83C4083F84C4083F85C4083F856
:103E70006C4083F87C4008238DF80730FFF79CF9ED
:103E80002046E2E75C960008F51B0020038000F066
:103E9000141300202DE9F843174B1F6D5B6D1F4075
:103EA00000D5FEE701260025144CDFF85480DFF82A
:103EB0005490374217D02368C8F850609BB1A1686E
:103EC000284601316268A1609847637B012B0AD1C3
:103ED00048B909EB45131A7B60F341021A731A7F44
:103EE00060F341021A770135082D4FEA460604F1C6
:103EF0001004DED1BDE8F883000004501413002044
:103F000000200450941300200348044A0449121A64
:103F1000921004F0C8BF00BFDC9A0008DC9A0008C9
:103F2000C01C002008B500F02FF8FFF7EDFF124B82
:103F300012498B4212D30020114B12498B4218D3E5
:103F4000FCF73EF9186850F82240586840F82240C3
:103F5000013298688242F5D30C33EAE70022F8E791
:103F60001C6844F8220001325C68A242F8D308338E
:103F7000E4E70022F8E700BFE8970008F49700089C
:103F8000F4970008F497000810B54FF480414FF003
:103F9000FF30114B114A9A60D3F8882042F4700226
:103FA000C3F888200E4A91660E4901F5005210664A
:103FB0000D4850660220C3F8D000BFF34F8FBFF307
:103FC0006F8F01244FF440330848C0F88041D3601C
:103FD00004600B6110BD00BF00ED00E000000008B0
:103FE00000900050008000447FFF7F0100E100E06E
:103FF000014B1868704700BF04100020084B1B6F6E
:1040000003F00703022B04D0032B05D0012B05D0AE
:10401000FEE7044B18687047034BFBE70348704703
:10402000008000500410002008100020002D3101F5
:1040300008B5FFF7E3FF054B1B6FC3F303330133F1
:10404000B0FBF3F0024B186008BD00BF00800050C9
:10405000001000200048704700B4C404014B1868E9
:10406000704700BF08100020054B1860054B1B6F00
:1040700003F00703032B01D1FFF7DABF704700BF3E
:10408000081000200080005000487047002D3101CA
:104090004FF0B4439868C0F304400C2822D8DFE8FE
:1040A00000F0092121212121071719211B1D1F00C3
:1040B0000F4870479B6803F04073B3F1807F13D0C3
:1040C000B3F1007F12D00B4A002B08BF1046704797
:1040D00009487047094870470948704709487047C0
:1040E00009487047002070470848704708487047E3
:1040F000405DC60000093D000024F400C0EA210133
:1041000080BA8C010048E801005A620280841E00D7
:1041100040420F00014B1868704700BF0C10002090
:1041200010B5274CFDF70CFA04F059FD236F23F06E
:10413000070343F00303236704F05CFD214B0020D9
:104140009B6ADB015EBF4FF480321F4B9A62D4F84A
:10415000203123F0070343F00203C4F82031D4F8E0
:10416000283123F0070343F00203C4F82831D4F8C0
:10417000403123F0030343F00103C4F84031D4F885
:10418000603123F0030343F00103C4F86031D4F835
:10419000403223F0030343F00103C4F84032D4F863
:1041A000003223F0070343F00103C4F80032D4F8CF
:1041B000083223F0070343F00103C4F8083210BDAE
:1041C000008000500040005A0060005A10B54FF4C3
:1041D00080301C491C4A4B6E5066486E4FF00041BF
:1041E0004AF6CD345166194903F480334A6C0C64A5
:1041F00002F001024C6BE407FCD4012414494C602A
:10420000A1F500510C6BE407FCD50AB1114A0A6410
:104210000028A2BF4FF000410F4A51661BB94FF46E
:1042200080320D4B5A66FCF723FBFCF7FBFA04F0D7
:1042300022FF04F0BBFBFFF773FFBDE81040FCF763
:1042400005BB00BF008000500090005000400950A6
:10425000006009503254FFFF00A0005008B5064B23
:1042600006491868FFF70EFB054B06491868BDE8BC
:104270000840FFF707BB00BF3410002038100020B3
:10428000101000201410002070B592B02C4D08AC16
:104290000FCD0FC40FCD0FC495E8030084E80300D1
:1042A00001240026032521462A20CDE90366CDE915
:1042B00005668DF80E5007968DF808408DF8096058
:1042C0008DF80A608DF80B60FCF7AEFE21463A20AF
:1042D000FCF7AAFE02214FF4B060FDF7F5FA0223C5
:1042E00040F6E4428DF817308DF824508DF82330D5
:1042F000144D9DF819300B920093324633462846F0
:1043000011498DF821608DF83060FEF775FC95231A
:104310000E4A0A908DF809308DF80840D2F82433FF
:10432000284643F48033C2F8243305A908AAFEF7CF
:10433000BBFC284602AA03A9FEF7A6FB12B070BD7B
:1043400060960008004000598096980000C0035015
:1043500013B50F4C23781BB9FFF796FF0123237089
:1043600001230C4AD360536903F4A073B3F5807F33
:10437000F9D16846074904F0C3FC40F6E4430098CD
:10438000584340F6FF7390FBF3F080B202B010BDCB
:10439000F61B00200040005908B5104B984216D07B
:1043A00003F58043984215D003F58043984211D01D
:1043B00003F5804398420DD003F58043984209D01D
:1043C000074840F2D22104F06BFD002008BD4FF0F9
:1043D000FF30FBE74FF6FF70F8E700BF00800450A6
:1043E0008896000838B50D460446FFF7D5FFA84269
:1043F00004D240F2B441064804F052FD236BDB07BF
:1044000004D440F2B641024804F04AFDE56138BDEB
:104410008896000838B501212420FCF705FE01210B
:104420002520FCF701FE00250123154C15492046E7
:104430000D704D734B80FFF769F8A369252043F099
:104440000103A361104C2570FCF71AFE0F4B657336
:10445000B0FBF3F00E4D0138608021462846FFF78F
:1044600055F81022AB6943F00103AB61094BC3F867
:1044700080211A602022C3F880211A6038BD00BF55
:1044800000800450BA100020CA10002080380100BB
:1044900000C0045000E100E038B5022301220446C8
:1044A000084DEB60084B28465A6104F03BFDEB6970
:1044B000611E994202D02846FFF794FF0123EB606A
:1044C00038BD00BF0080045000A0045038B502235E
:1044D00001220446084DEB60084B28465A6104F05F
:1044E00021FDEB69611E994202D02846FFF77AFF51
:1044F0000123EB6038BD00BF00C0045000E0045051
:1045000008B5054B93F86820044B53F822309847C0
:104510000122034B5A6108BD00170020BC15002082
:1045200000A0045030B58FB001215620204DFCF77B
:104530007BFD06AC01213A20FCF776FD0FCD0FC4C0
:1045400095E80F0084E80F0018220021684604F067
:104550008AFD012307211A460020CDF834D0FEF74A
:1045600005FA0123042208210020FEF7FFF94FF489
:104570000022104B104CC3F8DC244FF4E022C3F8A7
:10458000D42414222046C3F8C42406A9FEF76CF9EB
:1045900000220A4B83F80B234FF40062C3F88021FA
:1045A0001A60042304F5805423650FB030BD00BFAA
:1045B000F496000800C003500000015B00E100E039
:1045C00070B578B109B9002070BD0139064E451E9D
:1045D00050FA81F415F8011F304604F062FBA54241
:1045E000F8D1F0E70120EFE70000015B38B50125C5
:1045F000084C094A236B156300226262DA0707D46C
:10460000204604F085FB054B1D63236B9B07FCD400
:1046100038BD00BF000005500010055000200550B7
:1046200030B587B072B601241022002102A804F030
:104630001AFD26208DF80840FCF722FD00238DF896
:1046400008308DF815301E4B2146B0FBF3F01D4CA1
:104650000138ADF80A002620FCF7E6FC204602A946
:10466000FEF754FF236BDB0704D440F2B641164833
:1046700004F016FC40F21F330122E361134B5A6130
:10468000A36913434022A361114BC3F880211A6030
:104690000225E560FFF7AAFF0023ADF80830A82344
:1046A0008DF8043080230B488DF8053002AA2B4684
:1046B00001A90068FFF7A6FA62B607B030BD00BFD7
:1046C00040420F0000000550889600080020055069
:1046D00000E100E03410002072B60022024B83F8A3
:1046E000CC2062B6704700BFBA170020F8B572B68A
:1046F000022928D9FFF7F0FF0120F8BDC25C012A8A
:1047000003D9FFF7E9FF0220F7E7EC1884F8CD2082
:104710000022C45C06FB04240132322A25F81470FE
:10472000F7D10133DAB29142E8D80020084B83F880
:10473000C80083F8C90083F8CA0083F8CB0083F867
:10474000CC1062B6D9E7002332261F46004DE9E7B8
:10475000BA17002030B5184B93F8CA1001F0FF02C9
:1047600039BB104630BD1A4492F8CD4093F8C820AA
:10477000013105FB042233F8122020F8142093F8AD
:10478000CC40CAB29442EED8322193F8C82001320C
:10479000B2FBF1F001FB1022D2B283F8C82072B64E
:1047A00093F8CA20013AD2B283F8CA2062B6012235
:1047B000D7E700213225E2E7BA1700202DE9F341BF
:1047C00002220025354B364CDA60FFF70FFF94F8D4
:1047D000CA30ADF80050312BADF804505BD901243C
:1047E000304B5C61FFF702FF2C4BDC6002B0BDE890
:1047F000F08194F8CC203868B8FBF2F302FB138305
:1048000054FA83F393F8CD306A469B0063F07F033C
:104810008DF8043001A902238DF80560FFF7F2F945
:10482000B8F1000F1BD042F21070BDF8003008F153
:10483000FF385BBAC3F30C03434341F6FF70B3FB8D
:10484000F0F33220A04498F8CD1094F8C920A3F5D5
:104850009C5300FB0122083B1BB224F812300135A7
:1048600094F8CC305FFA85F89845C2D9322294F892
:10487000C9300133B3FBF2F102FB1133DBB284F830
:10488000C93094F8CA300133DBB284F8CA3001234E
:1048900084F8CB30A3E73026034FE1E70000055052
:1048A000BA170020002005503410002038B501212F
:1048B0003A20FCF7B9FB0023042219460220FEF738
:1048C00055F80023042205210320FEF74FF80023AA
:1048D000072219461846FEF749F80023042203214F
:1048E0000220FEF743F80422002311460220FEF7BF
:1048F0003DF80023072204210320FEF737F80023A8
:10490000072201210320FEF731F800230722194670
:104910000320FEF72BF80023072202210320FEF7D5
:1049200025F80023042201210220FEF71FF80221AE
:10493000002308460422FEF719F80422002311463A
:104940000120FEF713F80122002310460521FEF78F
:104950000DF80023042206210220FEF707F80023A9
:10496000042208210220FEF701F800230422052179
:104970000220FDF7FBFF0023042207210220FDF7A0
:10498000F5FF0122062110460023FDF7EFFF082363
:10499000144C1025C4F8A0301723C4F8A050C4F854
:1049A000D03004F0F5FA0123002223640E4B1D677A
:1049B0000E4B1A70FFF768FCFFF72CFD0C4A536F83
:1049C0005B06FCD504F0C5FA00F028F9FFF728FED5
:1049D000022004F025F804F049F80122014BC3F845
:1049E000A02038BD00E0035000D00350F71B00208A
:1049F00000C0035072B60023044A1370044AD370F7
:104A0000137113705370937062B67047F81B0020D7
:104A1000F91B002070B5054640B33AB34B1E312B4D
:104A200026D8144C207808B9107070BD124B9878B5
:104A3000884202D210700020F7E711709A78521A5B
:104A4000D2B29A7002B92270002432201A781A4425
:104A500052792A551A7801340132B2FBF0F600FB84
:104A600016221A70E2B28A42F0D3E4E70120DCE7B2
:104A70000220DAE7F81B0020F91B002010B5134CC8
:104A80001348237953B904F0F8F8E07010B101230A
:104A9000A070237104220F4BDA6410BD04F0EDF80E
:104AA0006378E218507132220133B3FBF2F102FB5A
:104AB00011336370E378013BDBB2E370002BE9D183
:104AC00001222371044B1A70E4E700BFF91B002098
:104AD0000000015B0020015BF81B002038B50228B4
:104AE00040F2FF3318BF3F23CB40DB0704460D469F
:104AF00004D440F22D41054804F0D2F930200121C0
:104B00004443034B01FA05F51D5138BD9493000849
:104B100040D0035038B5022840F2FF3318BF3F237E
:104B2000CB40DB0704460D4604D440F2FE31054875
:104B300004F0B6F9302001214443034B01FA05F596
:104B40001D5138BD9493000840E0035073B52B4CC1
:104B50002378022B49D0032B40D0002B4CD1284E78
:104B6000284D337893B1AB78274AD05C02282ED1F8
:104B700001460190FFF7CEFF01210198FFF7AEFF3C
:104B8000002317223370214BC3F8D02004F0FCF926
:104B900043F6FC71EB881E4D01EA83011D48298014
:104BA000090A04F07EF81B48297804F07AF81022EC
:104BB000194B49F63640C3F8A0200222C3F8D02092
:104BC0000323237002B0BDE87040FFF765BC0121EC
:104BD0000220FFF79FFF02210846CFE702200B4B80
:104BE000C3F8D00000232370ECE71822074BC3F86A
:104BF000A0201722C3F8D02002B070BD521C0020A4
:104C0000E01000209C1500206A97000800E0035087
:104C1000E21B002000000A5000D0035010B52649C6
:104C200015220B462548013A12F0FF0241F8040B09
:104C3000F9D1234A0121DA62224A234C1A63234A1A
:104C40005A60234A9A60234ADA64234A5A64234A00
:104C50009A63234A1A65234A9A61234ADA60234AEF
:104C60001A610222224BDA725970DA741A751A73B9
:104C7000342133225974DA701A719A71236BDB076D
:104C800004D440F2B6411B4804F00AF940F6C903C7
:104C90000021E361184804F004F80021164804F0EC
:104CA00000F804F075F91722144BC3F8D02006223F
:104CB000C3F8A02010BD00BFBC150020838F0008E2
:104CC000415600084953000800C00450FD5B00082D
:104CD0004D4B0008D55E0008FD6100080D5000082E
:104CE00029590008C564000849660008E5670008FE
:104CF000311C00208896000800000A5000E0035094
:104D00002DE9F0410578022D02D10020BDE8F081A7
:104D100000234FF0060E1C4619463C4A877BDFF8FD
:104D2000FC80136000F1040CDEB2B74250D804B12D
:104D300011600A24126803696243D90FD40FA1429B
:104D400061D322F0004223F0004322F0010201D19E
:104D5000934258D99342A1EB040137BFC2F10042FC
:104D60009A1A01F1FF31D21872B6322A38BF3222B4
:104D700000240626264B520089B299829A61827BD2
:104D80009A74997CE2B291422DD802781A7090F907
:104D900014201A77427D5A7762B61A78022A03D114
:104DA000828872BB1A771A771A78032A05D01A7884
:104DB000042A02D01A78062AA7D10169154AB2FB43
:104DC000F1F233214A431449B1FBF2F29A619CE7B4
:104DD0000EFB03F418F805603CF80440013306FBB1
:104DE00004110124A0E706FB0205AF7803EBC20122
:104DF0008F70AA88013402EB8202920092B28A80FC
:104E0000BFE70122CEE7012080E700BF1016002097
:104E10009C1500208096980040420F00311C002015
:104E2000F0B5022900F2888040F24243984200F235
:104E300085804FF4C8235843414B424AB0FBF3F0FE
:104E400002EBC10384B2DC801378112B11D134231F
:104E50003D4D642701FB03551A233C4E16F8014BC8
:104E6000013B4443B4FBF7F413F0FF0325F8024B76
:104E7000F4D113780E2B11D13423354D642701FB67
:104E800003550923334E16F8014B013B4443B4FB51
:104E9000F7F413F0FF0325F8024BF4D11378032B3A
:104EA00015D16623332464272B4D2C4E01FB03556B
:104EB00016F9013B002BA5BF4343B3FBF7F30023D7
:104EC0009BB225F8023B631E13F0FF04F0D1137868
:104ED000062B15D1662333276426214C1F4D01FB79
:104EE000034415F9013B002BB8BF5B424343B3FBBE
:104EF000F6F39BB224F8023B7B1E13F0FF07F0D1C0
:104F00001378042B01D00020F0BD6622154B6425D8
:104F100001FB02313322114C14F9013B002BB8BFC5
:104F20005B424343B3FBF5F39BB221F8023B531EB4
:104F300013F0FF02F0D1E6E70220E5E70320E3E704
:104F400058AB01009C1500209A1800201D970008FE
:104F50000219002014970008361A0020379700081D
:104F6000021B00206A1900200E2815D8DFE800F087
:104F700035081535141D232E3035383F424547007E
:104F80001022204BC3F8D0201222A3F58053C3F87F
:104F9000D0200122C3F8D02070470222194BC3F859
:104FA000D020A3F580530422F4E70222164BC3F865
:104FB000D0201022EEE71022124BC3F8D020A3F528
:104FC00080530122C3F8D0200222E3E70D4BF8E71B
:104FD0000D4B1022C3F8D020E5E71722094BD9E783
:104FE0000222084BC3F8D020A3F58053F1E7042236
:104FF000044BDCE70322044BCCE7034BD9E7142234
:10500000014BC7E700E0035000D003502DE9F34106
:10501000AA4C2378052B00F2C180DFE813F00600CC
:105020004E00100198002C017C01A54FA54D3B8836
:10503000A54A05EBC3039B78D05C022836D1014614
:105040000190FFF767FD01210198FFF747FD02225C
:105050009E4B43F6FC76C3F8D02010220021C3F803
:10506000D0209B4803F01DFE0021994803F019FE53
:1050700003F08AFF3B88964805EBC303DB8806EA0A
:105080008306310A03F00DFE914806F0FC0103F09F
:1050900008FE0620FFF768FF3B8805EBC305A888DC
:1050A00080B203F079FF0123237077E00121022011
:1050B000FFF730FD02210846C7E7864F3B889BB1CA
:1050C0001722854BC3F8D0200122C3F8D02002223A
:1050D000C3F8D0201022A3F58053C3F8D0200422B7
:1050E000C3F8D02000233B801A2143F6FC767B4D89
:1050F000DFF8CC812B78B8F80020754801FB02332B
:10510000774A32F8133006EA8306310A03F0C9FD04
:105110006F4806F0FC0103F0C4FD2B780133DBB2CD
:10512000082B2B7004D10323237000233B802B70AA
:105130000920B8F80020634B03EBC2039B889BB2A5
:10514000B3FBF0F002B0BDE8F04103F025BF172239
:1051500002271021604BC3F8D0205C4AC2F8D070FF
:10516000C2F8D0100622C3F8A020564B1A7F56B2C0
:10517000002A41D0012E14D001360FD1504D594A8A
:105180002988002940D101232B80137842F69A30D8
:105190000133DBB21370FFF77FF9277002B0BDE86F
:1051A000F08150485E7F0178454D8E422A8815D99E
:1051B000012A08BF41F2D252017801F10101C9B2BE
:1051C0000170986902BF9B8912FA83F3A0EB430038
:1051D00003F0E2FE00232B80042365E7002606701F
:1051E000013292B22A80997C8A4208D242F69A30E1
:1051F000FFF752F9022357E7314D2A88F0E7986903
:1052000003F0CAFE2E80E7E75E7F1078864209D958
:1052100011780131C9B21170012298692A8003F016
:10522000BBFED9E70026167041F2D252986903EB13
:10523000C1039B8812FA83F3A0EB4300E0E7172237
:10524000254B0021C3F8D02006222148C3F8A02016
:1052500003F027FD00211E4803F023FD184B1A8898
:10526000184B03EBC203988880B200F5966003F0F8
:1052700093FE002318E71722174B0021C3F8D02014
:1052800006221348C3F8A02003F00BFD00211048AC
:1052900003F007FD02220D4BC3F8D0201022C3F803
:1052A000D020084B9D8AADB205B39A8A0E4B4FF6BB
:1052B000F5701A80FFF7F0F80523F5E64E1C002084
:1052C000DE1B00209C1500206A97000800D00350C8
:1052D00000000A50DA10002000E00350481C0020B3
:1052E00002190020301C002098180020124A128851
:1052F00003EBC203988880B200F2355003F04CFEF5
:105300000E4B25701B881BB901220C4B1A8045E7F8
:1053100000220A4BFAE70A4B1D88013DADB21D8001
:1053200035B14FF6F57002B0BDE8F041FFF7B4B803
:10533000014B1A88034BDBE7DE1B0020DA1000204C
:10534000981800209C150020F7B5B24C2378062B46
:1053500000F2B580DFE813F00700630003018C0062
:105360001F014D014F00AC4FAC4D3B88AC4A05EBE3
:10537000C3039B78D05C022836D101460190FFF729
:10538000C9FB01210198FFF7A9FB0222A54B43F6B7
:10539000FC76C3F8D02010220021C3F8D020A24808
:1053A00003F07FFC0021A04803F07BFC03F0ECFD40
:1053B0003B889D4805EBC303DB8806EA8306310A78
:1053C00003F06FFC984806F0FC0103F06AFC06202D
:1053D000FFF7CAFD3B8805EBC305A88880B203F040
:1053E000DBFD062323706AE001210220FFF792FB18
:1053F00002210846C7E7022201258C4B40F64E40A9
:10540000C3F8D050C3F8D020A3F58053C3F8D02000
:105410001022C3F8D020FFF73FF825704FE07E4EF2
:105420003588FEF795FF7D4B328803EBC505288153
:1054300003EBC20318897E4921F8120001217D483F
:1054400081541720794AC2F8D000C2F8D010022146
:10545000C2F8D0101021A2F58052C2F8D010042159
:10546000C2F8D010988880B203F096FD0323B9E704
:105470001722022710216D4BC3F8D020694AC2F8C9
:10548000D070C2F8D0100622C3F8A020634B1A7F58
:1054900056B2002A40D0012E13D001360FD15E4DF6
:1054A000654A298800293FD101232B80137842F6D1
:1054B0009A300133DBB21370FEF7EEFF277003B0B2
:1054C000F0BD5D485E7F0178534D8E422A8815D924
:1054D000012A08BF41F2D252017801F10101C9B29B
:1054E0000170986902BF9B8912FA83F3A0EB430015
:1054F00003F052FD00232B80042373E7002606707F
:10550000013292B22A80997C8A4208D242F69A30BD
:10551000FEF7C2FF022365E73F4D2A88F0E798694E
:1055200003F03AFD2E80E7E75E7F1078864209D9C6
:1055300011780131C9B21170012298692A8003F0F3
:105540002BFDD9E70026167041F2D252986903EB81
:10555000C1039B8812FA83F3A0EB4300E0E7172214
:10556000324B0021C3F8D02006222F48C3F8A020D8
:1055700003F097FB00212C4803F093FB264B1A887D
:10558000264B03EBC203988880B200F5966003F0C7
:1055900003FD002326E71722244B0021C3F8D02067
:1055A00006222148C3F8A02003F07BFB00211E48FF
:1055B00003F077FB02221B4BC3F8D0201022C3F864
:1055C000D020164B9D8AADB245B19A8A1B4B4FF63F
:1055D000F5701A80FEF760FF052303E70E4A128874
:1055E00003EBC203988880B200F2355003F0D4FC7C
:1055F00013E7124B1D88013DADB21D8035B14FF64A
:10560000F57003B0BDE8F040FEF746BF024B1A88C4
:10561000024BE5E74D1C0020DC1B00209C15002000
:105620006A97000800D0035000000A5000E00350C1
:10563000D01B0020461C0020301C002096180020A3
:10564000F7B5AE4C2378052B00F2A080DFE813F00D
:1056500006004E00F800770014013D01A84FA94D47
:105660003B88A94A05EBC3039B78D05C022836D15E
:1056700001460190FFF74EFA01210198FFF72EFA3B
:105680000222A24B43F6FC76C3F8D0201022002160
:10569000C3F8D0209E4803F004FB00219C4803F08F
:1056A00000FB03F071FC3B88994805EBC303DB88E2
:1056B00006EA8306310A03F0F4FA954806F0FC0185
:1056C00003F0EFFA0620FFF74FFC3B8805EBC3051C
:1056D000A88880B203F060FC0123237056E001210A
:1056E0000220FFF717FA02210846C7E7844E3588E3
:1056F000FEF72EFE834B328803EBC505288103EBB2
:10570000C2031889834921F812000121824881547B
:105710001720824AC2F8D000C2F8D0100221C2F885
:10572000D0101021A2F58052C2F8D0100421C2F886
:10573000D010988880B203F02FFC0323CDE7172206
:1057400002271021754BC3F8D020704AC2F8D070E0
:10575000C2F8D0100622C3F8A0206A4B1A7F56B2B6
:10576000002A45D0012E13D001360FD1644D6C4A6A
:105770002988002949D101232B80137842F69A30D9
:105780000133DBB21370FEF787FE277003B0F0BD64
:1057900063485E7F01785A4D8E422A8815D9012AC6
:1057A00008BF41F2D252017801F10101C9B2017082
:1057B000986902BF9B8912FA83F3A0EB430003F0C0
:1057C000EBFB00232B80042387E700260670997CDF
:1057D000013292B28A422A8005D242F69A30FEF70E
:1057E0005BFE022379E7986903F0D6FB2E80EAE797
:1057F000434D997C2A88013292B28A422A80ECD3A6
:105800009869A0F58A501838EEE75E7F10788642D6
:1058100009D911780131C9B21170012298692A8021
:1058200003F0BAFBCFE70026167041F2D252986916
:1058300003EBC1039B8812FA83F3A0EB4300D3E789
:105840001722364B0021C3F8D02006223048C3F877
:10585000A02003F026FA00212D4803F022FA0222AC
:105860002A4B40F2A640C3F8D0201022C3F8D02023
:10587000FEF712FE002330E71722284B0021C3F861
:10588000D02006222248C3F8A02003F00AFA002103
:105890001F4803F006FA02221C4BC3F8D020102246
:1058A000C3F8D020174B9D8AADB245B19A8A1D4BE3
:1058B0004FF6F5701A80FEF7EFFD05230DE740F275
:1058C000A640FEF7E9FD257060E7164B1D88013DF7
:1058D000ADB21D8035B14FF6F57003B0BDE8F040B4
:1058E000FEF7DABD064B1A88064B03EBC203988815
:1058F00080B200F2355003F04FFBE4E74C1C00206F
:10590000DA1B00209C1500206A97000800D0035085
:1059100000000A50D01B0020461C002000E003506D
:10592000301C002094180020F7B5A94C2378052BD3
:1059300000F29E80DFE813F006004E00EC007500D8
:105940000F013B01A34FA44D3B88A44A05EBC303C1
:105950009B78D05C022836D101460190FFF7DAF837
:1059600001210198FFF7BAF802229D4B43F6FC761D
:10597000C3F8D02010220021C3F8D020994803F0AA
:1059800090F90021974803F08CF903F0FDFA3B8869
:10599000944805EBC303DB8806EA8306310A03F06B
:1059A00080F9904806F0FC0103F07BF90A20FFF72C
:1059B000DBFA3B8805EBC305A88880B203F0ECFA5C
:1059C0000123237054E001210220FFF7A3F80221F4
:1059D0000846C7E77F4E3588FEF7BAFC7E4B328813
:1059E00003EBC505288103EBC20318897E49032513
:1059F00021F8120001207D49885417217C4AC2F801
:105A0000D0100421C2F8D0101021C2F8D010A2F595
:105A10008052C2F8D050988880B203F0BDFA257049
:105A200026E0172202271021714BC3F8D0206C4AC0
:105A3000C2F8D070C2F8D0100622C3F8A020664B7E
:105A40001A7F56B2002A40D0012E13D001360FD152
:105A5000604D684A298800293FD101232B801378A3
:105A600042F69A300133DBB21370FEF715FD277052
:105A700003B0F0BD5F485E7F0178564D8E422A88A4
:105A800015D9012A08BF41F2D252017801F1010172
:105A9000C9B20170986902BF9B8912FA83F3A0EB27
:105AA000430003F079FA00232B80042389E70026C2
:105AB0000670013292B22A80997C8A4208D242F65C
:105AC0009A30FEF7E9FC02237BE7424D2A88F0E793
:105AD000986903F061FA2E80E7E75E7F10788642CE
