:020000040800F2
:1000000000100020F93E0008A7870008A787000815
:10001000A7870008A7870008A7870008A787000808
:10002000A7870008A7870008A7870008A7870008F8
:10003000A7870008A7870008A7870008A7870008E8
:10004000A7870008A7870008A7870008A7870008D8
:1000500095440008E17D000851470008A787000883
:10006000A7870008A7870008A7870008FD490008A0
:10007000A7870008A7870008A7870008A7870008A8
:10008000A7870008A7870008A7870008A787000898
:10009000A7870008A7870008693E0008A78700080F
:1000A000A7870008A7870008A7870008A787000878
:1000B000A7870008A7870008A7870008A787000868
:1000C000A7870008A7870008A7870008A787000858
:1000D000A7870008A7870008A7870008A787000848
:1000E000A7870008A7870008A7870008A787000838
:1000F000A78700083F890008A7870008A78700088E
:10010000A7870008A7870008A7870008A787000817
:10011000A7870008A7870008A7870008A787000807
:10012000A7870008A7870008A7870008A7870008F7
:10013000A7870008A7870008A7870008A7870008E7
:10014000A7870008A7870008A7870008A7870008D7
:10015000A7870008A787000835840008A78700083C
:10016000A7870008A7870008A7870008A7870008B7
:10017000013800D0FCE7704710B5054C237833B93F
:10018000044B13B1044800E000BF0123237010BDED
:10019000E012002000000000648F000808B5034B47
:1001A0001BB10349034800E000BF08BD0000000088
:1001B000E4120020648F0008A3F5803A704700BF66
:1001C000174B002B08BF134B9D46FFF7F5FF00218F
:1001D0008B460F461348144A121A08F0A6FB0E4B22
:1001E000002B00D098470D4B002B00D098470020E3
:1001F000002104000D000D48002802D00C4800E04A
:1002000000BF07F09BFF2000290008F075FB07F0F6
:1002100081FF00BF00000800000000000000000097
:1002200000100020E0120020E4190020000000006F
:100230000000000010B5044603F0E4FE4FF47A72AB
:100240009042B0FBF2F105D23621BDE810400C48D7
:1002500008F0A7BA0B4BB3FBF1F30B49884201D965
:100260003C21F2E702FB04F0B0FBF3F0022806D9D0
:10027000BDE810400323B0FBF3F0FFF779BF10BDDA
:10028000C089000840420F00E7CD9A3B30B50F4CC3
:1002900041612368ABB92060836011E0891A9A68D4
:1002A0001D4641612AB113465A698A42F6D955B1B1
:1002B0001A461346A860836013B15A69511A5961EE
:1002C00030BD0025F0E72060F5E700BF08130020EF
:1002D00010B500F0C7F90A4C0A4B19682368C31A15
:1002E00001B10BB9206010BD4A699A423ABF9B1A0E
:1002F0000022D21A4A6128BF00238968F0E700BFB4
:10030000FC1200200813002038B5134D2B685B69E0
:1003100093B1124A022014681C4408F082F8204667
:1003200000F0A8F900230E492A680B70D0888007D6
:1003300009D501230B7038BD022008F072F80220A5
:1003400000F0E6F9EEE79268002AF4D05069034421
:10035000012BEBD9EFE700BF08130020FC120020AF
:100360001B19002000220C490B687BB183420AD183
:1003700083687AB1936083681BB15A6941690A4402
:100380005A61002070471A469B68EEE70028EFD0BC
:10039000022070470B60EEE70813002070B508F0EC
:1003A000C4F8144E05463478FCB9134B1C60134B4B
:1003B0001C60134B1C8000F00BF9012008F031F891
:1003C00008F052F80F4B0246186020B9284608F092
:1003D000B2F8232070BD234640F2E7310A4807F007
:1003E00009FD0A4B186001233370284608F0A3F872
:1003F0000020EFE71A19002008130020FC1200204B
:10040000B41700200413002018FCFFFF0013002085
:100410002DE9F0410546F8B108F080F80F4F064687
:10042000FFF756FF2846D7F80080FFF79BFF0446EA
:1004300028B1304608F076F82046BDE8F081A8459E
:100440003B6803D123B1FFF75FFFF2E7002BF0D148
:10045000022000F047F9ECE72224EDE70813002022
:10046000014B1868704700BF041300202DE9F84FB6
:10047000C20704460BD54F4A138801339BB2138041
:10048000FFF726FF4C4B1B680BB1FFF73DFFA3079F
:1004900040F18E8008F049F84FF0000A05465646B4
:1004A000FFF716FFD046444FDFF814913C680CB1BB
:1004B00063698BB10022414B012E1A7003D11AF0EF
:1004C000020F18BF1E70002C62D0FFF71DFF2846D8
:1004D000BDE8F84F08F02FB823461A7921799142E8
:1004E00088BF1C469B6813B15A69002AF5D028467C
:1004F00008F021F8D4F810A0BAF1000F4CD000F0A9
:10050000B1F8A269851AEB17AA4578EB030344DA20
:10051000236913440122A36123691BB312BBEB17A8
:10052000BAEB050563EB4303002B04DA40F22B51D1
:10053000484608F036F9A38B33B1E28B13449BB2E3
:10054000B3F57A7F1CD2E38307F0EFFF824629469A
:100550002046FFF79BFEA369226950461344A3611E
:1005600007F0E9FFE368B4F806A0013613B12046AE
:100570002168984707F0D9FF0546FFF7A9FE95E7E0
:10058000A3F57A73E383A369013D013BA361DBE734
:10059000022000F0A7F89AE7554607F0C6FF834609
:1005A0002046FFF7DFFE584607F0C5FF0022B3E7FD
:1005B000BDE8F88FB4170020081300201C19002094
:1005C000FB890008014B1870704700BF1C19002000
:1005D00010B586B0002401213E20ADF80810CDE909
:1005E00003448DF804408DF80A40059400F09AFC0D
:1005F00001A800F015F9204602A98DF8084000F086
:100600001FF920460F2100F051F90F21204600F07C
:100610005BF900F0EBF800F0C7F84022034B9C6157
:10062000034BC3F888219A6006B010BD00800A50C1
:1006300000E100E008B501213B2000F073FC41F22D
:1006400001120021022002F065FE4FF49872002191
:10065000022002F091FE024B9A6C9A6408BD00BF22
:1006600000800A5008B500F09FF8014B986908BD5A
:1006700000800A50F8B5044607F050FF074600F026
:1006800093F8164B9D6907F0C8FE0646002000F05F
:1006900029F9830704D4731B032B01D8AE420FD171
:1006A0000021631B022B98BFEC1C0846B4F1FF3FEE
:1006B0002CBF2246621E00F03DF9022007F0B1FE79
:1006C000384607F02FFF064A137833B103498B6C85
:1006D00043F001038B6400231370F8BD00800A50BF
:1006E000DA100020830700F0010109D50122064B32
:1006F00041F002011A70054A936C23F001039364E0
:10070000002000F0D3B800BFDA10002000800A50AB
:10071000830742BF0222014B1A64704700900A50BF
:1007200007B5084B18689A889B7900906846ADF821
:1007300004208DF8063001F07FFC002003B05DF846
:1007400004FB00BF3E8A000813B50024064A684631
:10075000536F43F00103536700948DF8044001F098
:100760009BFB204602B010BD0040005010B56FF05A
:10077000040250210A480B4C12F0800FD3B21BBF69
:1007800003F00F03043BA3181B1802F101020CBF76
:1007900083F8001319764C2AEED1002010BD00BF5B
:1007A00000ED00E000E100E0034B5A68D20702D5FB
:1007B000DA69002AF9D1704700800A50054B9A681F
:1007C0009107FCD45A689207F9D4DA69002AF6D165
:1007D000704700BF00800A5008B5FFF7E5FF02220E
:1007E000014B1A6108BD00BF00800A5008B5FFF731
:1007F000E5FF0122024B03F580514A601A6108BDF2
:1008000000800A5008B5044B5968012903D1FFF74D
:10081000E3FF024B596008BD00800A5000A00A5057
:1008200010B5064CFFF7CAFF6368012B03D1FFF731
:10083000E9FFFFF7C3FF0378E36010BD00800A50B3
:1008400018B17F21104807F0ACBF4A680B7812B18D
:10085000127843EAC2034A78002A14BF0222002217
:1008600013438A6812B1127843EA82138A78002A05
:1008700014BF042200221343CA6812B1127843EA5B
:100880004223024A93647047458A000800800A5058
:1008900020B14FF48971034807F083BF024B5964BC
:1008A000704700BF458A000800900A5020B14FF4FD
:1008B000A771034807F075BF024B5964704700BF2A
:1008C000458A000800A00A5020B14FF4C5710348C2
:1008D00007F067BF024B1964704700BF458A0008E4
:1008E00000A00A5008B530B1044840F2C51107F025
:1008F00058FF002008BD024B186CFBE7458A000832
:1009000000800A5008B548B108484FF41D7107F03F
:1009100048FF002008BD064BD86CFBE70029FAD041
:100920000129F7D1024B186DF4E700BF458A000892
:1009300000800A5050B140F21231074807F031BF31
:10094000064BDA647047054B1A6570470029F7D0EB
:100950000129F8D0704700BF458A000800800A507E
:1009600008B530B1044840F2B53107F01AFF002055
:1009700008BD024B586DFBE7458A000800800A500D
:10098000044BD3F88420D206FBD4D3F88400C0F300
:10099000811070470040005038B51A4B0546D3F817
:1009A00020010C4600F00700062821D8DFE800F0FF
:1009B00028040C1410181C0003F004FB052305B1D7
:1009C000286004B1236038BD03F032FB0323F6E74F
:1009D00003F048FB0723F2E703F040FB0223EEE7B6
:1009E00003F0F0FA0623EAE703F022FB0423E6E72C
:1009F000054841F25C2107F0D4FE00231846DEE7EB
:100A00000123DCE700800050848A000838B5194BC8
:100A10000546D3F828310C4603F00703013B052BAC
:100A200020D8DFE803F003131B0F0B1703F0CAFAFB
:100A3000052305B1286004B1236038BD03F0C2FA74
:100A40000623F6E703F00EFB0723F2E703F0F0FAC4
:100A50000323EEE703F0ECFA0423EAE703F0FEFADF
:100A60000223E6E7044841F2640107F09AFE0023FE
:100A70001846DEE700800050848A0008F7B500279A
:100A8000144B0197D3F88041064604F00304022C6E
:100A90000D4614D0032C0DD0012C14D1394601A8D9
:100AA000FFF77AFF0F240EB1019B336005B12C6074
:100AB00003B0F0BD03F0D6FA07240190F3E703F08A
:100AC000CDFA0190EFE741F2B131034807F069FE3A
:100AD0003C46E8E700800050848A000838B50F4B98
:100AE0000546D3F890320C4603F00303012B09D0DE
:100AF000022B0BD103F0B6FA072305B1286004B12D
:100B0000236038BD03F0AAFA0223F6E7044841F255
:100B1000501107F046FE00231846EEE70080005013
:100B2000848A000837B500230193194B0546D3F892
:100B300020320C4603F00703042B1FD8DFE803F034
:100B400025030F141900002101A8FFF75FFF1123EF
:100B50000DB1019A2A6004B1236003B030BD03F0E7
:100B600081FA07230190F3E707F02BFE0A23019097
:100B7000EEE703F0B9FA09230190E9E741F2230116
:100B8000044807F00EFE0023E2E70123E0E700BF80
:100B900000800050848A000838B5104B0546D3F811
:100BA00040310C4603F00303022B0BD0032B0DD076
:100BB000012B0FD107F005FE0A2305B1286004B10F
:100BC000236038BD03F090FA0923F6E707F0FCFD37
:100BD0000B23F2E701230020EFE700BF0080005065
:100BE00037B500230193184B0546D3F860320C4605
:100BF00003F00703013B032B1FD8DFE803F0020ECD
:100C00001914002101A8FFF7C7FE0F230DB1019AA7
:100C10002A6004B1236003B030BD002101A8FFF7B2
:100C2000BBFF1023F2E703F01DFA07230190EDE765
:100C300003F014FA02230190E8E741F2C8010348E7
:100C400007F0AFFD0023E1E700800050848A000830
:100C500073B500240F4B0194D3F87032064603F0AD
:100C60000303012B0D4607D0022B11D041F22611B0
:100C7000094807F096FD04E0214601A8FFF78CFF24
:100C800010240EB1019B336005B12C6002B070BD21
:100C90001424F6E700800050848A000838B5164B0B
:100CA0000546D3F800020C4600F00700042819D8C6
:100CB000DFE800F020030B0F130007F082FD0A238A
:100CC00005B1286004B1236038BD03F00DFA092393
:100CD000F6E707F079FD0B23F2E703F093F90E2313
:100CE000800AEDE7054841F26F4107F05AFD002305
:100CF0001846E5E70123E3E700800050848A0008F6
:100D000038B5164B0546D3F808020C4600F007002C
:100D1000042819D8DFE800F020030B0F130007F0B8
:100D200050FD0A2305B1286004B1236038BD03F0EB
:100D3000DBF90923F6E707F047FD0B23F2E703F0A1
:100D400061F90E23800AEDE7054841F2A74107F05B
:100D500028FD00231846E5E70123E3E70080005063
:100D6000848A000838B5104B0546D3F840320C464B
:100D700003F00303022B0BD0032B0DD0012B0FD15B
:100D800007F01FFD0A2305B1286004B1236038BDB8
:100D900003F0AAF90923F6E707F016FD0B23F2E7A3
:100DA00001230020EFE700BF0080005038B5124B50
:100DB0000546D3F850320C4603F00303022B0FD044
:100DC000032B05D0012B0FD107F0FBFC0A2302E017
:100DD00007F0FAFC0B2305B1286004B1236038BD8D
:100DE00003F082F90923F6E7044841F2940107F081
:100DF000D8FC00231846EEE700800050848A0008E3
:100E000038B5104B0546D3F860310C4603F00303A8
:100E1000022B0BD0032B0DD0012B0FD107F0D1FCEF
:100E20000A2305B1286004B1236038BD03F05CF9E2
:100E30000923F6E707F0C8FC0B23F2E701230020A3
:100E4000EFE700BF0080005010B5B0F5207F34D030
:100E500009D8B0F5007F2AD003D898B1B0F5C07F8B
:100E600010D0002421E0B0F5607FFAD1154BD3F803
:100E70008030C3F301149B0617D5032C15D040F224
:100E800095210FE00F4B1C6F230B13F00E0FC4F3D3
:100E900003340AD0032C08D0072C06D00F2C04D022
:100EA00040F28521084807F07CFC601C10BD054B12
:100EB000D3F89040C4F30464F7E7024B1C6FC4F30B
:100EC0008024F2E700800050848A000838B54FF48F
:100ED0008032104B04469A6600200D46FFF7B4FF9F
:100EE00041F671320C4B6043DC69DA635A6804F4F2
:100EF000803422F440125DB9084988428CBF4FF417
:100F000080100020104358600CB10022DA6338BD15
:100F10000349F2E70090005000000350005A6202BB
:100F2000002D310170B5440905460E460ED140F240
:100F30002F310F4807F035FC05F01F05AEB104F561
:100F40008053012000FA05F51D6070BD012C08D00A
:100F5000022C08D040F23D31054807F022FC002465
:100F6000EAE7044CE8E7044CE6E704F50053E8E759
:100F7000848A0008648000506880005030B585B0D5
:100F80000021B0F5807F0446019100F0F38066D81F
:100F900058285CD858285CD8DFE810F071005B0056
:100FA0005B005B005B005B005B005B005B005B0069
:100FB0005B005B005B005B005B005B005B005B0059
:100FC0005B005B005B005B005B005B005B005B0049
:100FD0005B005B005B005B005B005B007100CF00AF
:100FE0005B00CF00E200E200E200E200E200CF009E
:100FF000E7007A00FD009A007A00CF00CF00CF0012
:101000005B005B005B005B005B005B005B00FD0066
:10101000CF00CF00CF0015010201CF005B005B00C5
:101020005B005B005B005B005B005B005B005B00E8
:101030005B005B000701E200710071007100AD0010
:101040007A007A00B5000C018F00C400C40080282B
:101050006DD040F294415E4807F0A3FB6AE0B0F522
:10106000E06F00F09D8038D8B0F5607F6FD01AD85F
:10107000B0F5007F6BD005D8B0F5C07FE9D102F0A4
:10108000C1FF56E0B0F5207F57D0B0F5407FE0D1EA
:1010900002F0B8FF04464FF42070FFF7D5FEB4FB12
:1010A000F0F0400845E0B0F5B06F5ED00AD8B0F57A
:1010B000806F55D0B0F5A06FCBD1002101A8FFF70C
:1010C00031FD37E0B0F5C06F65D0B0F5D06FC0D15D
:1010D000002101A8FFF7E2FD2CE0B0F5286F69D0F0
:1010E00016D8B0F5186F60D00AD8B0F5F06F6AD096
:1010F000B0F5106FADD1002101A8FFF701FE19E096
:10110000B0F5206FA5D1002101A8FFF769FD11E01E
:10111000B0F5306F53D09CD3B0F5386F3BD0B0F5FD
:10112000406F96D1002101A8FFF770FC02E002F0A9
:101130004FFF0190019805B030BD02F063FF0446F7
:101140004FF42070FFF780FEB4FBF0F0F1E702F0FF
:101150003FFF05462046FFF777FEB5FBF0F0E8E7D6
:10116000002101A8FFF718FCE4E7002101A8FFF720
:1011700085FCDFE74FF0E02302911B695B0705D593
:1011800002F040FF0290029B0193D3E703A902A85B
:10119000FFF702FDF7E7002101A8FFF7FDFCC9E713
:1011A000002101A8FFF7DEFDC4E7002101A8FFF739
:1011B000FDFDBFE7002101A8FFF74AFDBAE701A83E
:1011C000FFF78CFCB6E7002101A8FFF719FEB1E795
:1011D000848A00081FB50023B0F5807F019300F0DA
:1011E000D68076D8582867D8382805D824380928D2
:1011F00048D940F27951BEE039381F28F9D801A307
:1012000053F820F0B1130008F3110008F31100089F
:10121000F3110008BB13000801140008F3110008C3
:10122000F3110008F3110008F3110008F31100088E
:10123000F3110008F3110008F3110008F31100087E
:10124000F3110008F3110008F3110008F31100086E
:101250000B140008F9120008F3110008F31100083C
:10126000F31100083D130008F3110008F311000802
:10127000151400081F140008F71300085F13000876
:101280005F1300080928B4D801A353F820F000BF69
:10129000F9120008F9120008F9120008F912000802
:1012A000F9120008F31100087F130008F311000879
:1012B000B11300081713000880289AD15D4B1B6FEB
:1012C00003F00703013B032B53D8DFE803F0504D35
:1012D0008890B0F5086F75D022D8B0F5C06F67D090
:1012E0000FD8B0F5A06F00F08680B0F5B06F46D093
:1012F000B0F5806F7FF47DAF002001A9FFF74CFBB4
:1013000041E0B0F5E06F7BD0B0F5F06F55D0B0F5AF
:10131000D06F7FF46EAF002001A9FFF7BFFC32E071
:10132000B0F5286F7BD00ED8B0F5186F6DD0B0F542
:10133000206F6FD0B0F5106F7FF45BAF002001A974
:10134000FFF7DEFC1FE0B0F5306F6DD0FFF451AF5A
:10135000B0F5386F2CD0B0F5406F7FF44AAF002065
:1013600001A9FFF753FB0EE0052301930BE00223D5
:10137000FBE740F2C641304807F013FA03E00020D3
:1013800001A9FFF77BFB019805B05DF804FB029310
:101390004FF0E0231B695B0705D502F033FE0C23F9
:1013A0000393039BE1E703A902A8FFF7F5FBF8E726
:1013B000002001A9FFF7F0FBE5E7002001A9FFF7F6
:1013C0001FFDE0E71B4BD3F8003103F00303022BB2
:1013D00007D0032B09D0012B0BD102F029FE0323E8
:1013E000C3E702F081FE0923BFE707F0E8F908230D
:1013F000BBE70123B9E7002001A9FFF793FBC2E790
:10140000002001A9FFF7AEFCBDE7002001A9FFF70E
:10141000CDFCB8E7002001A9FFF7E2FBB3E700200D
:1014200001A9FFF715FCAEE7184601A9FFF756FB27
:10143000A9E700BF00800050848A00084FF48012A2
:10144000034B5A664FF48032024B9A62704700BFDA
:10145000009000500050005A70B5036804460F2BEE
:1014600004D940F66D31814807F09BF963680F2B72
:1014700004D94FF437617D4807F093F9A3680F2B27
:1014800004D940F67331794807F08BF9237B0F2B91
:1014900004D940F67631754807F083F9637B0F2B4A
:1014A00004D940F67931714807F07BF9A37B3F2BD3
:1014B00004D940F67C316D4807F073F9E37B3F2B8C
:1014C00004D940F67F31694807F06BF92369032B93
:1014D00004D940F68231654807F063F96369032B4C
:1014E00004D940F68531614807F05BF9E369032BC5
:1014F00004D940F688315D4807F053F98020FFF7A2
:1015000069FE032800F091804FF48012584B594D2A
:101510005A6645F60E034FF0A062C5F88030564B70
:101520009A624FF4803203F580539A62AB6DDA030E
:10153000FCD4AE6D16F08046FBD1D4E900231B0528
:1015400043EA0263E27B4D481343227B43EA0243B2
:10155000627B43EA0233A27B43EA82132B61AA69CE
:10156000D4E904131B0643EA816302F000421343EB
:10157000A27E4FF440611343227E43EA0243627E1F
:1015800043EA0223AB614FF4006206F085FFE16994
:101590002B6A00290CBF00220822E07E23F00F03F3
:1015A00043EA010343EA800343EA0203314A344D2C
:1015B00013623BD194F82430916A94F82000DB0048
:1015C0000D4043EA401394F821102B4343EA0113E2
:1015D00043F4803393622B4B916D33EA0101FBD1CD
:1015E0004FF08071244881621369A56823F4700369
:1015F00043EA055313614FF00043836194F82230AE
:101600000BB9214B996294F823303BB94FF48032E7
:101610001D4B9A62174A936D5B00FCD494F82530F9
:101620001BB1144B194AC3F8802070BD022908D1A0
:1016300016614FF47F41966115484FF4085206F049
:101640002BFF0C4994F822308A6A94F820001B067C
:10165000154043EA401394F824202B4343EAC20385
:1016600094F8232043EA02438B62D7E7848A000878
:10167000009000500040005A0050005A3840005A74
:10168000C7FFFEFE030001000060005AF1A7FFFF44
:101690003440005A014B93F900007047DB100020E2
:1016A000014B1880704700BFB810002010B5B0F58E
:1016B000207F5FD00ED8B0F5007F49D003D800B3AB
:1016C000B0F5C07F1DD040F21231BDE81040314866
:1016D00007F067B8B0F5607FF5D14C1E012C06D934
:1016E000042904D04FF43D712A4807F05AF82A4AD9
:1016F000D2F8803023F0300343EA0413C2F880307C
:1017000010BD102901F1FF3404D8244B23FA01F154
:10171000CB0704D440F2C7211E4807F042F806F078
:10172000CCFE06F0D8FE1C4A136F23F4704343EA44
:101730000433136702F066FC0446FFF721F9C0F199
:101740000201204606F0C1FEBDE8104000F028B8B6
:101750004C1E1F2C04D940F206310E4807F021F828
:101760000D4BD3F8901021F0F85141EA0461C3F811
:101770009010C5E74C1E012C04D94FF44371054865
:1017800007F00FF8044B196F21F4806141EA8421BE
:101790001967B5E7848A000800800050160101002F
:1017A00008B54FF4C070FFF7E9FBBDE808400449F5
:1017B00088428CBF022101214FF42070FFF776BFD1
:1017C00080F0FA0270B5B0F5807F0C4600F06881B9
:1017D00076D8582868D8382805D82438092849D90F
:1017E00040F642117EE139381F28F9D801A353F899
:1017F00020F000BF1B1B0008E1170008E1170008DC
:10180000E11700085B1B0008B31C0008E117000883
:10181000E1170008E1170008E1170008E1170008C8
:10182000E1170008E1170008E1170008E1170008B8
:10183000E1170008E1170008E1170008E1170008A8
:10184000F31C0008ED180008E1170008E117000874
:10185000E11700086D190008E1170008E1170008FA
:101860001D1D00085D1D0008591C0008B119000865
:10187000B11900080928B3D801A353F820F000BF1C
:10188000ED180008ED180008ED180008ED18000824
:10189000ED180008E1170008611A0008E1170008B8
:1018A0001B1B000823190008802899D18B1E062BCA
:1018B00000F2CB80DFE803F0C6B7C9D1C9C98B00FD
:1018C000B0F5086F00F0A9813FD8B0F5C06F00F007
:1018D00024811AD8B0F5A06F00F0BE81B0F5B06FCA
:1018E00000F0BE80B0F5806F7FF47AAF013C062C2B
:1018F00000F2CF80A34B195DA34AD2F8203123F028
:1019000007030B43C2F820318CE0B0F5E06F00F024
:10191000D081B0F5F06F00F02081B0F5D06F7FF48A
:101920005FAF013C0D2C00F25881DFE814F05B0141
:1019300056015601560156015601560156014801FD
:101940005D015201560156015401B0F5286F00F0B7
:1019500005821FD8B0F5186F00F0CB81B0F5206F6D
:1019600000F0DC81B0F5106F7FF43AAF013C0D2C34
:1019700000F24A81DFE814F04D01480148014801B6
:1019800048014801480148013A014F01440148011A
:1019900048014601B0F5306F00F0F781FFF420AF49
:1019A000B0F5386F00F0B980B0F5406F7FF418AF34
:1019B000023C052C00F27681744B195D724AD2F814
:1019C000283123F007030B43C2F828312AE0002511
:1019D00004260121022000F069FA06F06EFD06F0EF
:1019E0007AFD694A136F23F007033343136702F04C
:1019F00009FB0646FEF7C4FFC0F10201304606F0BF
:101A000064FD0121002000F0A9FAFFF7C9FE4DB9DD
:101A1000032C07D14FF480325D4B9A625D4A936D7F
:101A20005800FCD470BD4FF480125B4B0E465A66D2
:101A30004FF48032574B9D6A03F58053C5F3006520
:101A40009A62C6E700250126C3E7002540F231610E
:101A5000524806F0A6FE2E46BBE700250226B8E750
:101A6000072C12D00F2C12D0022C05D040F27A6134
:101A70004A4806F096FE0024434BD3F8801121F02B
:101A800003010C43C3F88041CCE70324F4E70124AD
:101A9000F2E740F2B961414806F083FE00212BE7EE
:101AA0000C2924D01AD8A1F10904022C18D84FF41B
:101AB0008032354B3A49586E03F580535A664B6A6B
:101AC00043F001034B62C1035CBF364B5A664FF0D3
:101AD000E022136923F004031361A3E71029E6D081
:101AE00040F2E161BDE870402C4806F05ABE4FF468
:101AF0008032254B2A49586E03F580535A664B6A4B
:101B000023F001034B62C3035CBF264B5A664FF0C0
:101B1000E022136943F00403DEE7013C0A2C13D8EA
:101B2000DFE804F017121212121212120619100036
:101B300002221549D1F8403123F003031343C1F8C1
:101B400040316FE70322F4E740F20171134806F0D9
:101B500028FE0022EDE70122EBE7013C0A2C25D804
:101B6000DFE804F02924242424242424062B220042
:101B700002220549D1F8603123F003031343C1F871
:101B800060314FE7B38A000800800050BA8A00082D
:101B90000060005A0040005A00900050848A0008FB
:101BA00000C0075000A000500322E2E740F223717A
:101BB000814806F0F6FD0022DBE70122D9E7022387
:101BC0007E49D1F8002222F007021343C1F8003207
:101BD00028E70323F4E70423F2E74FF4EE617648A5
:101BE00006F0DFFD0023EBE70123E9E70223734959
:101BF000D1F8082222F007021343C1F8083211E796
:101C00000323F4E70423F2E740F294716A4806F0F4
:101C1000C8FD0023EBE70123E9E74C1E082C12D88E
:101C2000DFE804F0161118111111110F050002223E
:101C30006249D1F8003123F003031343C1F80031A6
:101C4000F0E60322F4E74FF4F6615B4806F0A9FDE5
:101C50000022EDE70122EBE7012C1FD0073C0A2C04
:101C600017D80A2C15D8DFE804F006141210141443
:101C7000141414141B0002235049D1F8202222F01E
:101C800007021343C1F82032CCE60323F4E7042310
:101C9000F2E740F63D01484806F083FD0023EBE7FC
:101CA0000123E9E740F66E01434806F07AFD002182
:101CB00084E6013C0A2C13D8DFE804F01712121254
:101CC000121212120619100002223C49D1F84032B9
:101CD00023F003031343C1F84032A3E60322F4E7E1
:101CE00040F6AC01344806F05CFD0022EDE701222D
:101CF000EBE7093C022C0AD8314B195D2F4AD2F888
:101D0000503223F003030B43C2F850328AE640F608
:101D1000C801294806F045FD0021EFE70F2C17D038
:101D200012D8022C16D0072C16D040F6E201224819
:101D300006F037FD00222149D1F8603223F0070375
:101D40001343C1F860326DE6102CEED10222F2E7A7
:101D50000122F0E70322EEE70422ECE7102C10D07A
:101D6000142C10D04FF41161134806F01AFD002214
:101D70001249D1F8703223F003031343C1F87032D3
:101D800050E60122F4E70222F2E7022910D00729E7
:101D900010D040F62311084806F003FD0022074941
:101DA000D1F8903223F003031343C1F8903239E69F
:101DB0000122F4E70222F2E7848A00080080005042
:101DC000C08A00080028ABBF00F16040054B00F559
:101DD000614000F00F00ACBF90F80003185C0009F0
:101DE000704700BF14ED00E038B5C5B24B2D044676
:101DF00004D94FF44D71074806F0D3FC064B640933
:101E000053F8240005F01F05E840C04300F001002E
:101E100038BD00BFC38A000800E100E010B500F142
:101E20000C03DBB2572B044604D940F2C2211448FC
:101E300006F0B7FCEFF31083DB0702D50122104652
:101E400010BD2046FFF7D0FF02460028F6D12046FD
:101E5000FFF7B8FF0146EFF3118313B1B0EB131F87
:101E6000ECD2084B5B68C3F30803002BE7D0103BB0
:101E700058B2FFF7A7FF88428CBF00220122DEE79D
:101E8000C38A000800ED00E0024A536B0342FCD114
:101E9000704700BF00400950034A0179D36E23F018
:101EA00030030B43D3667047004000502DE9F041EA
:101EB0000446264BD3F88420D006FBD4D3F88430D4
:101EC000C3F381139C423ED002F082F8012C0546F8
:101ED0000BD11F4B984204D940F281711D4806F086
:101EE00060FC0121284606F0F0FA06F017FB4FF0DF
:101EF0000072194B07465A66204606F01FFB4FF446
:101F00008063124E621E9340DFF848803367736E21
:101F10009A0103D4D6F884309B060AD5384606F0D9
:101F200001FB022C0FD12846BDE8F041002106F04C
:101F3000CCBAD6F884309906E9D540F28F71404684
:101F400006F02FFCE3E7BDE8F08100BF0040005041
:101F5000005A6202F38A00080060005007B518B901
:101F6000019102F035F80199064B1B7843B1064BFD
:101F7000984205D8012003B05DF804EBFFF796BF47
:101F80000220F8E71D190020005A620238B54FF010
:101F90000042244B244C5A664AF6CD33656C014608
:101FA00005F00105236430BB0120FFF76DFF636876
:101FB000DB0708D4002415B11B4B1C4A1A6406F039
:101FC000BEFA204638BD1A4B58600846194B226BA2
:101FD000D20705D4984201D10724ECE70130F6E797
:101FE0009842E7D1F8E70132236B13F0080305D0DC
:101FF0008A42F8D1F0E700220E49F5E78A42EBD099
:1020000020210B4A91620121A2F5805251600649BC
:10201000084A886A800603D49342DDD00133F8E78A
:102020009342DEE700900050004009503254FFFF19
:102030000060095040420F0038B54FF00042164B87
:1020400001465A664AF6CD33144C154A656C236432
:1020500043780B205B0043F00103D363FFF714FFC9
:1020600063688A7823F4F87343EA02136360CA78DA
:102070004B7943EA0223A3600A798B7943EA02236E
:1020800023610878FFF782FFEB0744BF054B236409
:1020900006F055FA012038BD00900050004009506C
:1020A000004000503254FFFF10B506F04DFA0423F3
:1020B00000F5805100F500520B6113610B61136153
:1020C0000B6113610B611361202341F20201036173
:1020D0000023C360836041614FF4A02183614162AA
:1020E0000449C36103628362C36243630365D164CD
:1020F000036310BDFF3F0D0338B5194B04469842EA
:102100000D460BD0174B984208D003F580439842F8
:1021100004D04FF4B371144806F043FB25B92046B0
:10212000BDE8384006F010BA012204F580535A6029
:1021300040F6FF71204605F00F0206F001FAA26397
:10214000782106F0FDF905F001036A0748BF43F066
:102150000203A26C02F003029A42FAD138BD00BF1A
:102160000000015B00000A50228B00082DE9F041BD
:1021700005460C46174622B94FF40971704806F01F
:1021800010FB704B9D4200F0CA806F4B9D4200F0E7
:10219000CB8003F580439D4200F0CB8040F22721A5
:1021A000674806F0FEFA44B940F27631644806F01A
:1021B000F8FA2046FEF7E2FE0446AB68D90744D59C
:1021C000BC4204D240F231215D4806F0EAFA6B6865
:1021D00003F00108B4FBF7F35C1EFF2C04D940F2B6
:1021E0003921574806F0DDFAB8F1000F2BD028212D
:1021F000284606F0A5F9AB6C9A071ED1AB6CDB073D
:102200001DD4AE6C16F002061BD140F246214C489C
:1022100006F0C7FA284606F097F92B6923F07F43AA
:1022200043EA04632B61B8F1000F00F08780314668
:102230002846BDE8F041FFF75FBF0526EAE709261B
:10224000E8E70626E6E74646E7E76B68012B04D099
:1022500040F259213A4806F0A4FAA96801F0E001D9
:10226000402946D009D8B9B1202938D040F29B2165
:10227000BDE8F041324806F094BA602945D0802983
:10228000F4D107EB4703A34204D940F295212C482F
:1022900006F087FA012308E0B7EB141F04D940F2D7
:1022A0008121274806F07DFA10237B436401B4FBAB
:1022B000F3F3264E203BB6EBC30F4FEAC30404D220
:1022C00040F2A6211E4806F06CFA2846344001214F
:1022D00006F036F92C63BDE8F04106F031B9B7EBF2
:1022E000D40F04D940F28621154806F05AFA082383
:1022F000DBE70626B4FBF6F3BB4204D240F28B21A7
:102300000F4806F04EFA3346CFE7B7EB940F04D9E7
:102310004FF424710A4806F044FA0423C5E7002C60
:102320007FF44BAF562444E7002C7FF446AF57248C
:102330003FE7002C7FF441AF58243AE7BDE8F08135
:10234000228B00080000015B00000A50F8FF7F00AC
:1023500070B5824B044698420D460AD0804B984295
:1023600007D003F58043984203D0DF217D4806F073
:1023700018FA1DB9E1217B4806F013FA6A7BAB68B5
:102380007AB1794A934203D9E321764806F009FAF3
:102390002B69D3B1DB7BC3B1E621724806F001FAA9
:1023A00013E0724A934203D9E9216E4806F0F9F925
:1023B0002B6953B11A7F42B1A9686D4A5B7F914284
:1023C00040F2A080042B00F2A08063682E6923B144
:1023D00040F6FF71204606F0B3F82046FFF764FE92
:1023E00022696B7BA97B22F087020B43134343F0E6
:1023F0008003236116B32A692369117823F0F80357
:102400000B43117F43EAC113117943EA4113517A17
:1024100043EA0113D17B43EA81132361E168D2E9E6
:10242000053021F0F04121F4702103430B43117B6F
:10243000527B43EA812343EAC233E360A368EA7B29
:1024400023F00303134343F00103A3602EB32A696F
:10245000A168538803F4C0430B43A3605179A36878
:1024600043EA8123A3609379D079616A1B0100025A
:1024700003F0700300F4E06021F4772121F4EE61B1
:1024800003430B43117A527F090301F4E041120424
:102490000B4302F470221343636263692A7B23F0C7
:1024A0000F0313436361B6B12B695A89A2615A7B4A
:1024B0003AB12A4A94422AD19A7B2E4902F00F025D
:1024C0004A66DA7B3AB1254A944233D11B7C294AC9
:1024D00003F00F031366D5E901122046FFF746FE0D
:1024E00005212046FFF708FE2821204606F028F89F
:1024F0002B78A36306F024F8A36CDB4313F4405F4E
:10250000FAD170BD042B3FF660AFF02145E7144AC5
:10251000944209D002F580429442D2D19A7B154967
:1025200002F00F02CA67CCE79A7B124902F00F0251
:102530000A67C6E70A4A944209D002F580429442EB
:10254000C9D11B7C0B4A03F00F039367C3E71B7CC5
:10255000084A03F00F03D366BDE700BF0000015B2C
:1025600000000A50228B0008002D3101809698004F
:102570003F4B4C000090035070B5436804460D4635
:1025800016461BB140F6FF7105F0DAFF2046FFF753
:102590008BFDE9896B7B62690B43298A22F44C52DB
:1025A0000B4322F00F0213436361A2682B7B297E49
:1025B00022F0804222F0E2020B4313436A69134384
:1025C000A360AB681BB9A36843F00043A360EB6949
:1025D000002B64D0A16898885B4A00F4C0400A4090
:1025E00010431A7A40EA82509A7A40EA42405A7876
:1025F00040EA82005A7B40EAC2009A7B40EA02101D
:102600009A7840EA8220A060E068D3E904210A4376
:102610004E4901400A43997942EA8122D97942EA36
:102620004122E2601A7802F0FD01012908BFE16849
:10263000A2F1020204BF41F00401E160012A444A10
:102640004ED8944248D0434A944247D002F5804243
:1026500094420CBF02224FF0FF323F495201114415
:1026600002224A605A7A04F580518A621AB1E268FD
:1026700042F40062E260DA7A5AB1E26842F400425F
:10268000E260334A94423ED11A7B344902F00F0291
:102690004A66626ADB7B22F00302134363623EB147
:1026A00096F8203004F58051002B3FD001230B62B7
:1026B00005212046FFF720FDAA681AB12046696867
:1026C000FFF754FD20462978FFF716FDA36CDB4386
:1026D00013F4405FFAD170BD0022BEE70122BCE7CF
:1026E00094420CD01B4A94420BD002F58042944293
:1026F0000CBF02224FF0FF3219495201AFE700220E
:10270000FAE70122F8E7134A944209D002F5804221
:102710009442BED11A7B114902F00F02CA67B8E792
:102720001A7B0E4902F00F020A67B2E7E26996F8D7
:10273000223096F8210022F009020343134343F0AC
:102740000103CB61B4E700BFE39BBDFFFFF9F08756
:102750000000015B00000A50C0D4035000900350F9
:10276000C0E4035038B5154B044698420D460AD0D4
:10277000134B984207D003F58043984203D0702151
:10278000104806F00EF81DB972210E4806F009F83F
:102790002B7B802B03D176210A4806F002F86B7B55
:1027A000032B03D97921074805F0FBFF2946204672
:1027B000BDE838400022FFF7DFBE00BF0000015B2C
:1027C00000000A50228B000838B50D460446B0B10F
:1027D000012817D0022817D0032803D13F23EB404C
:1027E000DB0704D440F22D41094805F0DAFF302020
:1027F00001214443074B01FA05F51D5138BD40F254
:10280000FF13ECE77F23EAE740F2FF33E7E700BF7F
:10281000548B000840D0035038B50D460446B0B183
:10282000012817D0022817D0032803D13F23EB40FB
:10283000DB0704D440F2FE31094805F0B2FF302036
:1028400001214443074B01FA05F51D5138BD40F203
:10285000FF13ECE77F23EAE740F2FF33E7E700BF2F
:10286000548B000840E003502DE9F0410D46174617
:1028700098460446002835D0012836D0022836D0A4
:10288000032803D13F23EB40DB0704D44FF4B0719E
:102890001D4805F086FF37B129462046B8F1000FE4
:1028A00028D0FFF791FF0F21072D04EB440688BFC6
:1028B000A5F108034FEA0616144895BFAB009B002C
:1028C00004360C3607FA03F29940304405F06FFEE7
:1028D000BFB929462046B8F1000F0ED0BDE8F0413F
:1028E000FFF772BF40F2FF13CDE77F23CBE740F243
:1028F000FF33C8E7FFF790FFD5E7BDE8F041FFF7EA
:102900008BBFBDE8F08100BFBC8B000830C0035016
:102910004369DA01FCD4012300F50050024A436008
:1029200053689B07FCD470470040005938B5134BDF
:10293000044698420D4604D04FF42771104805F024
:1029400030FF012104F5805362685960AB78298813
:102950001B0403F480330B43E978002914BF4FF4C0
:10296000003100210B43C4F89830D30704D420462B
:10297000BDE83840FFF7CCBF38BD00BF004000596C
:10298000EC8B000870B5294B064698420C4615465C
:1029900004D04FF41971264805F003FFA378062BE5
:1029A00004D940F26721224805F0FBFE3046FFF7CC
:1029B000AFFF2378304603F007026378002BA3783B
:1029C00018BF08214FEA031303F0700343EA020320
:1029D000E27808BF0021002A14BF4FF48072002261
:1029E0000B4313433367F26A237922F48B321B02C1
:1029F00022F4807203F4E0631343627929461203E0
:102A000002F480521343A279002A14BF4FF480329B
:102A100000221343F362FFF789FF012206F580537A
:102A20005A60E37903B1F26070BD00BF0040005905
:102A3000EC8B000810B5144B0C46984204D040F2C1
:102A40006F31124805F0ADFE74B92A20FEF796FAF0
:102A50000446B0B10E4B984206D90B4B9B68C3F3AA
:102A600002730133B0FBF3F40A4804F5742404F252
:102A70003F24B4FBF0F4601E7F2828BF7F20C0B243
:102A800010BD0124F0E700BF00400059EC8B0008A6
:102A9000005A620240420F0038B5134B0C46984270
:102AA000154604D040F2AA31104805F07AFE24B948
:102AB00040F2AB310D4805F074FE0D498C4228BF41
:102AC0000C461DB92A20FEF759FA0546621E154428
:102AD000B5FBF4F0A54228BF00F1FF30032828BF62
:102AE0000320C0B238BD00BF00400059EC8B000885
:102AF000005A6202F8B51F46194B0E46984214461A
:102B000004D04FF47971174805F04BFE26B940F216
:102B1000E531144805F045FEFFB1134A134D012F6E
:102B200008BF1546B54228BF35461CB92A20FEF716
:102B300025FA04469DF8182040F2FF300132B4FB1C
:102B4000F2F46A1E1444B4FBF5F3AC4228BF03F15F
:102B5000FF33984228BF1846F8BD054DE2E700BF95
:102B600000400059EC8B0008002D3101404B4C0017
:102B70008096980013B5044601A800F019FC042CB7
:102B800004D8064B33F8140002B010BD044840F2DC
:102B9000914105F006FE0020F6E700BF348C0008E6
:102BA000EC8B00082DE9F04F2DED048B8DB006461F
:102BB000DFF82CC306AF0C461546BCE80F000FC764
:102BC0009CE80300BA4B87E803009E4203D0F12142
:102BD000B84805F0E6FDB84F002239463046FFF709
:102BE0005BFF6379984238BF18465FFA80F8304639
:102BF000FFF78EFE207950B92A20FEF7BFF9B842C0
:102C0000014628BFB0FBF8F13046FFF713FFE37829
:102C10004FEA08721B0102F0E04203F03003134355
:102C20000004227800F4FE0003430AB143F00203DB
:102C300062780AB143F00403A2780AB143F00803B2
:102C40004FF0000AB360E38822893361638943EA65
:102C500002433362964B9E4202D1BAF1020F08D171
:102C6000012306F5805673600DB0BDEC048BBDE802
:102C7000F08F2B78AF68002B4DD09049904A012BF4
:102C800018BF11468A4C00222046CDF800800393DD
:102C9000FFF730FFBFB2874238BF074604EB0A1484
:102CA000A16CDFF840C2039B01EA0C0C6978B946BD
:102CB000890003F0030747EA0C0701F01C010F43EA
:102CC000A97828794901C9B20F43E9784FEA0A1B6C
:102CD000090301F4E0413943070407F4E0273943CD
:102CE0002F7C7F0507F4600739436F793F0707F0B2
:102CF00040573943A164A16C0AF10507C1F30231C1
:102D000001F1FF3C6F4CBCF1040F33D8DFE80CF04D
:102D10003232051422006C49B4E7D4F88041012B0B
:102D20004FEA14442ED9022B00F0198140F2F11120
:102D3000604805F036FD9AE0D4F88441012BA4B236
:102D4000F1D86049002B40F0AA80D1F88C11091409
:102D500049001DE0D4F88441012B4FEA1444E2D825
:102D60005849002B40F09E80D1F88C11091401EBDA
:102D700041010DE0D4F88041012BA4B2D3D803293E
:102D800040F084804F49002B7DD1D1F88C1109147B
:102D900007EE901AF8EEE77A22040BF1B24202F540
:102DA0008042926C24F4C041C2F3820C4FF00102C5
:102DB0000CF1010E02FA0EFE07EE10EA4FEA814115
:102DC000B8EEC79AF6EE008A3E4A48BF41F000418D
:102DD000BCF1000F40F08880002B66D1D2F88C3116
:102DE0001BB208EE103AB8EEC88A37EE888A00287F
:102DF00040F09D8005A8039100F0DAFADFED337A08
:102E000068EE277A0399DFED326A86EE897ADFED84
:102E1000316A27EE267AF1EE006AB1F1004F07EE33
:102E2000A67A0BD0DFED2C7A06EE104A77EE276AF1
:102E3000BAEEE86A56EE267AB0EE677AB5EEC07A58
:102E4000F1EE10FACABFB1EE477A38EEC77A37EE24
:102E5000687AFDEEC77A17EE903AB3F5003F75DB5E
:102E60006FEA51416FEA4141114A3B01D1503F01A4
:102E700007F1B247C9F3090007F5804778600AF106
:102E8000010A1435E6E6D1F8941180E704293FF4ED
:102E900058AF05293FF464AFDFED107A7CE7D1F835
:102EA000941154E7D1F8941160E7D2F8943197E780
:102EB00000400059EC8B0008005A6202002D3101DD
:102EC000404B4C000080E00F809698003D3B843FD3
:102ED0000000804300002044000000490000000082
:102EE0001C8C0008008F18CFABB9D2F890311BB200
:102EF00007EE103AB8EEC77A77EE677A29EE287AAD
:102F0000634B87EE878AD3F888311BB207EE903A7D
:102F1000F8EEE77A69E7D2F898311BB207EE103A7B
:102F2000B8EEC77A37EE677A77EE877AE6E7D5EDBF
:102F3000037ADFED586AF8EE677A87EEA67AF7EE45
:102F4000046AC6EE877A67EE887A5CE713F5003F7D
:102F5000AABFC3F3110341F40031194384E7FFF71B
:102F600009FE07EE900A0BF1B24303F580439B6C18
:102F70000CAAC3F3421302EB830353ED066A9FEDE1
:102F8000457AF8EE677AC7EE874AFCEEE67A17EEE6
:102F9000903AF7EE007A5C2B1CBF36EEA77A86EEED
:102FA000876A07EE104A9FED3C5AB8EE477A08BF91
:102FB0009FED3A6A27EE057A27EE067A9FED386A8A
:102FC00027EE067AB5EEC07AF6EE005AF1EE10FA68
:102FD0004CBF37EE657A37EE257A0BF1B24202F537
:102FE0008042136DBDEEC77A0023136517EE103AC9
:102FF00017EE100A13F4004F136D9FED2A6A18BFE5
:1030000043F000431365284B116D03EA80430B43E3
:1030100013651F4BD3F88811D3F88831116D1BB29B
:1030200007EE103AB8EEC77A37EE067A9FED1F6AC0
:1030300086EE264A76EEA76A84EE266AF7EE046AE2
:10304000C6EEA47AF0EE466A27EE877AF1EE007AB1
:1030500047EE276A07EE104ADFED157AB8EEC77A19
:1030600076EEA76A25EE477A46EE877AF5EEC07AC5
:10307000F1EE10FA4CBF77EEE57A77EEA57AFDEE29
:10308000E77A17EE903AC3F311030B431365EEE6AC
:103090000080E00F00007A4400000038E71B753F15
:1030A00000000047000000000000FC7F0000804896
:1030B0000000004910B5044618B991211F4805F0D9
:1030C00070FB23781B0613F0604F03D092211B483E
:1030D00005F067FBE3780F2B03D9A321174805F010
:1030E00060FB01212020FDF71DFF01212120FDF7BC
:1030F00019FF0122124B5A60227812069A606178F9
:10310000A27842EA01429A61FF229A6200229A63FF
:103110001A644FF000425A654FF0FF324FF48001BD
:1031200003F500531A65074AC2F88011E3781B01C2
:10313000DBB282F81633116010BD00BF3E8C000870
:103140000000045000E100E02DE9F0410126C3B287
:10315000072805460C46904606FA03F603DDEC21E7
:10316000364805F01EFB1CB9ED21344805F019FB6B
:10317000236823F47C1323F00F031BB1F0212F48A5
:1031800005F00FFBA37A1B0413F47C0F04D040F26C
:1031900009112A4805F005FBE37A1B0513F07E6F41
:1031A00004D040F20B11254805F0FBFA237B5B05A8
:1031B00013F0FE5F04D040F20D11204805F0F1FA43
:1031C00030201F4F1F4B617B1E65AB0000FB057558
:1031D000226803F1A04303F588235A602966E37A45
:1031E000A27A1B0543EA0243227B43EA425328F0BA
:1031F0000302EB652A6705F098F97B6D33437B6525
:10320000237A13B13B6C33433B64637A13B1BB6BDA
:103210003343BB632279A37943EA0243094A9361AA
:103220006179E37943EA014307498B61044B5663B3
:103230009E64BDE8F04105F07EB900BF3E8C0008F9
:103240000000045000200450001004504FF480325D
:10325000054B9A6641F6713203F51C33DA6301229D
:1032600003F50053DA6070470090005008B5242839
:1032700015D820280AD8012819D00C2819D068B1EF
:103280000E48B62105F08DFA002007E0223802280A
:1032900003D8DFE800F010080A00012008BD32283A
:1032A000EED10620FAE70420F8E70520F6E7032030
:1032B000F4E70720F2E70220F0E700BF048D0008E2
:1032C00010B50C280C4617D003D801280FD0204683
:1032D00010BD242808D82028F9D9042CF7D9F621C4
:1032E0000B4805F05EFAF2E73228F6D0EFE7022944
:1032F000EDD940F20711F3E7022904D0032904D0E5
:103300004FF48B71ECE70024E1E70124DFE700BF15
:10331000048D0008F8B50546C2F3062702F007043D
:1033200079B90B2804D94FF4FC71114805F039FA2A
:10333000104B44EA072444F44024063543F8254062
:10334000F8BD032804D940F2FD11094805F029FA17
:1033500021463846FFF7B4FF06463846FFF786FF9A
:10336000044B46EA0020123543F82500E8E700BF89
:10337000048D00080080035070B5B2F5805F0546EB
:103380000E4614460DD34FF40B71084805F009FAA8
:1033900024F0030202F1A04202F5603226B9156062
:1033A00001E0002AF4D170BD2D02F8E7048D000879
:1033B0004FF48032064B5A6603F5E6239B69C3F34C
:1033C0008512827003F03F021B0B4270037070473E
:1033D000009000500B4B984211D003F58043984267
:1033E0000DD003F58043984209D003F580439842FD
:1033F00005D003F58043C31A584258417047012055
:10340000704700BF0080045038B505460C46FFF7F2
:10341000E1FF18B9B421304805F0C3F9284605F09A
:10342000F8F8012205F500531A632A6B12F0020224
:10343000FBD1237961881B0243EA8143A17A0B43C4
:103440006178002914BF402100210B43E17A002953
:1034500014BF802100210B43217B002914BF2021B0
:1034600000210B43617B002914BF102100210B4375
:10347000A17B002914BF082100210B43E17B002917
:1034800014BF4FF4006100210B43A179002914BF40
:103490004FF4803100210B43E179002914BF4FF430
:1034A000003100210B4301216B6005F58053196346
:1034B000217809B90223EB6000236B62207A637ADA
:1034C00043EA80036079002818BF10221A43AA60DB
:1034D00009B10123EB6038BD338D000870B5064695
:1034E0000C46154622B940F28E210C4805F059F9D8
:1034F00024B94FF42070FDF741FD04466D00013CF6
:10350000B4FBF5F4064B250213EA042304D040F281
:10351000B321024805F045F9F56170BD648D0008DE
:10352000070080FF10B5124B0446984204D040F2C9
:103530004241104805F035F9012104F580535960E6
:1035400040F6AA6341F20502636100230A48A360C2
:10355000E365E26004F500522361E361E364906493
:103560000348A365844204BF23656365516010BDB1
:1035700000C00550648D0008FFFF010038B52D4BD9
:10358000044698420D4604D040F269312A4805F0BD
:1035900008F92046FFF7C6FF0122A97B04F58053F6
:1035A0005A602A8AA368002914BF4FF48061002161
:1035B00042F0010213432A7D0B43002A14BF4FF04F
:1035C00000520022A360A3681343A360AB7C5BB1ED
:1035D000184B9C4202BFEA7CA3F51033C3F8D421F8
:1035E000E36D43F08003E3652B7B2046D5E90112B0
:1035F00043F48053E360FFF771FF6B7B0BB1102343
:1036000063616B7D1BB1A36843F48033A360AB7D22
:103610001BB1A36843F40043A360EB7D2A7E1B0724
:10362000120503F0E04302F4E0021343A3652B7894
:10363000636138BD00C00550648D000838B514467C
:1036400004F073FF0023A36484F84C302364237FC9
:103650000546012B03D104F16000FCF7D9FE636B32
:103660001BB100212046E26B9847284604F063FF17
:10367000A36D002B03DCBB21034805F092F8A36D7A
:103680000120013BA36538BD958D00082DE9F0436D
:1036900089B01E46002380F85430109B04464363D3
:1036A00090F85C308846C663002B36D14FF44063F7
:1036B00005686B614369092B27D905F12C03443553
:1036C00067694FF00109082F94BF00270127A16DFA
:1036D000A06A0131A16517490494CDE902710196F0
:1036E000216BCDF8009005F042F800232A46CDE981
:1036F0000333CDE901674346E16A606ACDF8009083
:1037000005F01BF809B0BDE8F0830BBF05F12003FD
:1037100005F1240338353C35D2E7012BF2D100689E
:10372000079204F0EDFF2568079A05F13C03443544
:10373000C6E700BF3D3600082DE9F04387B01646C6
:103740000022436390F85C300446884680F8542099
:10375000C663002B37D14FF4406305686B61436942
:10376000092B03D905F12C03443506E00BBF05F105
:10377000200305F1240338353C3567694FF0000913
:10378000082F94BF00270127A26D216B0132A2658B
:10379000114AA06ACDE90272049404F1380201963C
:1037A000CDF8009004F0E3FF01232A460093CDE911
:1037B00003994346CDE90167E16A606A04F0BDFF01
:1037C00007B0BDE8F083012BFAD1006804F098FF40
:1037D000256805F13C03C7E73D36000838B50546C6
:1037E000B0B1B9B1B2B1B2F5006F13DC04F09DFE17
:1037F00095F84C3003F0FF041BB104F09CFE064822
:1038000038BD012385F84C3004F095FE2046F7E7DB
:103810000248F5E70248F3E7032000F0012000F03A
:10382000022000F02DE9F0418EB0B64A0B68054643
:1038300093420C460DF1180807D0B34A934204D0C6
:1038400002F58042934240F0DB804746AF4ECDF810
:1038500014800FCE0FC796E80F00103687E80F00D0
:103860000FCE01AF0FC7002D00F0918100268422FA
:103870000021284605F059F82368A24AAE65934214
:1038800040F0928056222A654FF48012A04FC5E97D
:103890000B722B600123A44685F85C302F1DBCE819
:1038A0000F000FC79CE80F0087E80F00637E012B15
:1038B00008BF8DF81D30A37E002B40F09280227E41
:1038C0008DF81230012AE36840F096809149059AFC
:1038D0008B428CBF04230523537700238DF81130CE
:1038E0008D4B01213A200393FDF71CFB0121286D2C
:1038F000FDF718FB2369DA1F092A64D8063B8DF807
:103900001030237E2BB9E37EB3FA83F35B098DF885
:103910001C300121284604F088FE002854D1237A67
:10392000217941EA03417D4B03EB4612C2F8DC14D6
:10393000607A617941EA0041C2F8D414A07AA17991
:1039400041EA0041C2F8D814E27E002A40F0218109
:10395000E27AE379760106F1A04643EA024306F5EE
:103960007036C6F8C8341D23C6F8C434206801A9CF
:10397000FEF7EEFC04F0D9FD694B1A78002A40F0FE
:10398000FB8001221A7004F0D6FDFCF707FD00F061
:1039900037FA002105F1240000F002FA0146002860
:1039A00000F0ED805F480FE0574A934208D157225C
:1039B0002A654FF488125C490126C5E90B1268E7B5
:1039C0005A4A934203D05A480EB0BDE8F0815822BB
:1039D0002A654FF49012DFF868C10226C5E90BC2D0
:1039E00057E7012B01D1042369E7022B3FF467AFAE
:1039F000032BE8D1062362E700228DF8342070E71C
:103A000046464C4F0FCF0FC697E8070086E80700E1
:103A1000002D00F0BC8084220021284604F085FFA0
:103A2000002322684449AB658A42CCD1292129650B
:103A30004FF480212746414E85F85C30C5E90B6183
:103A40002E1D2A600FCF0FC697E80F0086E80F00E3
:103A5000637E012B08BF8DF82630A37E002B71D129
:103A6000ADF82830237E0121012B03BF00238DF800
:103A700025304FF4E133E3683A200893FDF752FA1A
:103A80000121286DFDF74EFA23691A1F0C2A9AD8D6
:103A9000033B414620688DF82430FFF76FFDA36992
:103AA00023F47F0323F47F4323B92A68936843F404
:103AB00080339360237A2079617940EA0340637A06
:103AC000A27941EA0341E67EA37A42EA0342134B1C
:103AD000002E47D11D26C3F89867C3F8B007C3F876
:103AE000A817C3F8AC27E17AE27942EA0142C3F8A9
:103AF0009C270121284604F098FD00287FF464AF3C
:103B000038E700BF0000015B00000A50CC8D0008C0
:103B1000010010003F4B4C0040420F0000C003501A
:103B20001E190020092000F00100110000400A5079
:103B3000022000F0008E000800C0055002000400C2
:103B400001001200012B02D14FF4007388E7022B11
:103B500002D14FF4807383E7032B7FF434AF4FF42B
:103B600040737DE71C24C3F89847C3F8B007C3F837
:103B7000A817C3F8AC27BCE704F0DDFC07E705F1A4
:103B8000280000F00DF900283FF41EAF0AE70448B2
:103B90001AE7263603EB46161C237360E6E600BFE1
:103BA000012000F07FB51546027F0446012A0E462B
:103BB00013D01A460393FFF711FE60B97DB1094A8D
:103BC00031462046039B00922A46FFF75FFD2046C0
:103BD00004F0A1FDA06C04B070BD0348FBE70348EE
:103BE000F9E700BF21860008082000F0022000F05D
:103BF000F7B5047F0546012C0E46174601930CD0FD
:103C0000FFF7ECFD044628B93A4631462846019BA9
:103C1000FFF792FD204603B0F0BD014CFAE700BF6C
:103C2000082000F02DE9F04F85B09A46554B064626
:103C30001B780F461546DDF83C909DF844B0DDF842
:103C40005080002B00F08D80072A00F28C800E9BA4
:103C5000002B00F08880B9F1000F00F08480129BE7
:103C6000B3F5006F7FDC012802D1109B002B7AD0C6
:103C7000454B03EB05131B7B002B76D0434C1022E6
:103C80000021684604F051FE04EB45141022002F79
:103C900059D13946204604F048FE43F210036380B0
:103CA000BBF1000F03D1E37843F00303E370374A1D
:103CB0000E9B02EB451CCCE90193129B6901013B71
:103CC000C3F30A009DF84C30012E03F003034FEAC2
:103CD000836343EA001E53582D48CDF800A000EA44
:103CE00003004EEA0003535041D113230CF1100E90
:103CF000CCF80C309CE80F008EE80F006FF0030149
:103D0000DCF81C20109B61F39F02012FCCF81C20D3
:103D1000CCF8143003D1CCF81890CCF8043000273C
:103D2000194A290102EB051342F80180159A284629
:103D30005A60694622469F605E73FFF705FA38466F
:103D400005B0BDE8F08F0021204604F0EEFD4FF4F1
:103D500044736380BBF1000FA9D1E37843F03003D3
:103D6000A4E70C48ECE70C48EAE70C48E8E7B8F1B0
:103D7000000FD4D19CF8023068F304138CF80230A1
:103D8000CDE700BF1F1900200C1300208C1300206A
:103D90000F80FFF3028000F0018000F0078000F048
:103DA00038B5124B05461B78DBB1E0B104F0BDFB22
:103DB0000F4A00231146147B54B92B6001251A01C8
:103DC00001EB03131D738C5004F0B5FB204638BD86
:103DD0000133082B02F11002EDD104F0ACFB0548D1
:103DE000F5E70548F3E70548F1E700BF1F19002094
:103DF0000C130020048000F0028000F0018000F02D
:103E000013B5154B1868002301908DF8043004F0A9
:103E10008CFB124B1C7824B104F08DFB104802B0CF
:103E200010BD01221A7004F086FB0E4B01A81C7312
:103E30001C7783F82C4083F83C4083F84C4083F88F
:103E40005C4083F86C4083F87C4008238DF8073091
:103E5000FFF730F92046E2E71C8E00081F1900200A
:103E6000038000F00C1300202DE9F843174B1F6D61
:103E70005B6D1F4000D5FEE701260025144CDFF8DE
:103E80005480DFF85490374217D02368C8F8506048
:103E90009BB1A168284601316268A1609847637BA5
:103EA000012B0AD148B909EB45131A7B60F3410293
:103EB0001A731A7F60F341021A770135082D4FEA11
:103EC000460604F11004DED1BDE8F883000004507A
:103ED0000C130020002004508C1300200348044AD7
:103EE0000449121A921004F05FBC00BF58920008F7
:103EF00058920008E419002008B500F02FF8FFF7E9
:103F0000EDFF124B12498B4212D30020114B124984
:103F10008B4218D3FCF754F9186850F822405868BF
:103F200040F82240013298688242F5D30C33EAE728
:103F30000022F8E71C6844F8220001325C68A242C3
:103F4000F8D30833E4E70022F8E700BF6C8F0008DD
:103F5000788F0008788F0008788F000810B54FF42C
:103F600080414FF0FF30114B114A9A60D3F88820FE
:103F700042F47002C3F888200E4A91660E4901F59A
:103F8000005210660D4850660220C3F8D000BFF3FF
:103F90004F8FBFF36F8F01244FF440330848C0F8B0
:103FA0008041D36004600B6110BD00BF00ED00E0F4
:103FB0000000000800900050008000447FFF7F0157
:103FC00000E100E0014B1868704700BF04100020BA
:103FD000084B1B6F03F00703022B04D0032B05D003
:103FE000012B05D0FEE7044B18687047034BFBE735
:103FF0000348704700800050041000200810002083
:10400000002D310108B5FFF7E3FF054B1B6FC3F32C
:1040100003330133B0FBF3F0024B186008BD00BF5F
:1040200000800050001000200048704700B4C40415
:10403000014B1868704700BF08100020054B18603E
:10404000054B1B6F03F00703032B01D1FFF7DABF0A
:10405000704700BF081000200080005000487047E3
:10406000002D31014FF0B4439868C0F304400C2890
:1040700022D8DFE800F00921212121210717192189
:104080001B1D1F000F4870479B6803F04073B3F17E
:10409000807F13D0B3F1007F12D00B4A002B08BFF2
:1040A00010467047094870470948704709487047EB
:1040B0000948704709487047002070470848704712
:1040C00008487047405DC60000093D000024F40028
:1040D000C0EA210180BA8C010048E801005A62025E
:1040E00080841E0040420F00014B1868704700BFDB
:1040F0000C10002010B5274CFDF7A0F904F0F0F9E2
:10410000236F23F0070343F00303236704F0F3F95D
:10411000214B00209B6ADB015EBF4FF480321F4BB6
:104120009A62D4F8203123F0070343F00203C4F865
:104130002031D4F8283123F0070343F00203C4F8F8
:104140002831D4F8403123F0030343F00103C4F8CD
:104150004031D4F8603123F0030343F00103C4F885
:104160006031D4F8403223F0030343F00103C4F874
:104170004032D4F8003223F0070343F00103C4F8BF
:104180000032D4F8083223F0070343F00103C4F8E7
:10419000083210BD008000500040005A0060005AF4
:1041A00010B54FF480301C491C4A4B6E5066486E67
:1041B0004FF000414AF6CD345166194903F480337B
:1041C0004A6C0C6402F001024C6BE407FCD401243D
:1041D00014494C60A1F500510C6BE407FCD50AB101
:1041E000114A0A640028A2BF4FF000410F4A5166ED
:1041F0001BB94FF480320D4B5A66FCF7B7FAFCF747
:104200008FFA04F09AFB03F0BDFFFFF773FFBDE8E0
:104210001040FCF799BA00BF008000500090005099
:1042200000400950006009503254FFFF00A00050C8
:1042300008B5064B06491868FFF7F4FA054B06491E
:104240001868BDE80840FFF7EDBA00BF3410002041
:1042500038100020101000201410002070B592B00B
:104260002C4D08AC0FCD0FC40FCD0FC495E8030043
:1042700084E8030001240026032521462A20CDE9F5
:104280000366CDE905668DF80E5007968DF8084057
:104290008DF809608DF80A608DF80B60FCF742FE1E
:1042A00021463A20FCF73EFE02214FF4B060FDF7B4
:1042B00089FA022340F6E4428DF817308DF8245035
:1042C0008DF82330144D9DF819300B92009332462F
:1042D0003346284611498DF821608DF83060FEF78D
:1042E00009FC95230E4A0A908DF809308DF8084094
:1042F000D2F82433284643F48033C2F8243305A986
:1043000008AAFEF74FFC284602AA03A9FEF73AFBCB
:1043100012B070BD208E00080040005980969800B1
:1043200000C0035013B50F4C23781BB9FFF796FF5D
:104330000123237001230C4AD360536903F4A07353
:10434000B3F5807FF9D16846074904F05AF940F681
:10435000E4430098584340F6FF7390FBF3F080B2BB
:1043600002B010BD201900200040005938B50121CD
:104370002420FCF7D7FD01212520FCF7D3FD0025E3
:104380000123154C154920460D704B734B80FFF7E8
:104390003BF8A369252043F00103A361104C25706D
:1043A000FCF7ECFD0F4B6573B0FBF3F00E4D0138DD
:1043B000608021462846FFF727F81022AB6943F0BA
:1043C0000103AB61094BC3F880211A602022C3F8B6
:1043D00080211A6038BD00BF00800450BA10002050
:1043E000CA1000208038010000C0045000E100E045
:1043F000F8B5044672B602230126124D124F134A35
:10440000EB607E612B6B16630022D9076A6206D4CB
:10441000284604F0FEF83E632B6B9A07FCD4094D46
:10442000013CEB699C4208D02B6BDB0704D440F2C3
:10443000B641074804F0B5F9EC610122014BDA609E
:1044400062B6F8BD0080045000A0045000900450F3
:10445000488E000838B572B60C4D441EEB699C427C
:1044600011D0B4F5803F04D340F2B441084804F0C1
:1044700098F92B6BDB0704D440F2B641044804F0F2
:1044800090F9024BDC6162B638BD00BF00C0045039
:10449000488E000808B5054B93F86820044B53F884
:1044A000223098470122034B5A6108BDFC160020B8
:1044B000B415002000A0045030B58FB00121562063
:1044C000204DFCF72FFD06AC01213A20FCF72AFD18
:1044D0000FCD0FC495E80F0084E80F0018220021CB
:1044E000684604F022FA012307211A460020CDF87D
:1044F00034D0FEF7B9F90123042208210020FEF789
:10450000B3F94FF40022104B104CC3F8DC244FF4E5
:10451000E022C3F8D42414222046C3F8C42406A9F8
:10452000FEF720F900220A4B83F80B234FF40062B8
:10453000C3F880211A60042304F5805423650FB06A
:1045400030BD00BFB48E000800C003500000015B06
:1045500000E100E070B578B109B9002070BD013903
:10456000064E451E50FA81F415F8011F304604F03E
:1045700019F8A542F8D1F0E70120EFE70000015B50
:1045800038B50125084C094A236B15630022626285
:10459000DA0707D4204604F03CF8054B1D63236B73
:1045A0009B07FCD438BD00BF00000550001005502B
:1045B0000020055030B587B072B6012410220021CA
:1045C00002A804F0B2F926208DF80840FCF7D6FCCA
:1045D00000238DF808308DF815301E4B2146B0FBB6
:1045E000F3F01D4C0138ADF80A002620FCF79AFCC8
:1045F000204602A9FEF708FF236BDB0704D440F234
:10460000B641164804F0CDF840F21F330122E361B1
:10461000134B5A61A36913434022A361114BC3F8A2
:1046200080211A600225E560FFF7AAFF0023ADF89C
:104630000830A8238DF8043080230B488DF805300E
:1046400002AA2B4601A90068FFF7ACFA62B607B0D0
:1046500030BD00BF40420F0000000550488E0008EA
:104660000020055000E100E03410002072B6002266
:10467000024B83F8CC2062B6704700BFB61700200B
:10468000F8B572B6022928D9FFF7F0FF0120F8BD6E
:10469000C25C012A03D9FFF7E9FF0220F7E7EC1813
:1046A00084F8CD200022C45C06FB04240132322AA7
:1046B00025F81470F7D10133DAB29142E8D800201E
:1046C000084B83F8C80083F8C90083F8CA0083F850
:1046D000CB0083F8CC1062B6D9E7002332261F4600
:1046E000004DE9E7B617002030B5184B93F8CA1013
:1046F00001F0FF0239BB104630BD1A4492F8CD409C
:1047000093F8C820013105FB042233F8122020F869
:10471000142093F8CC40CAB29442EED8322193F8D8
:10472000C8200132B2FBF1F001FB1022D2B283F8B3
:10473000C82072B693F8CA20013AD2B283F8CA20D0
:1047400062B60122D7E700213225E2E7B617002042
:104750002DE9F34102220025354B364CDA60FFF794
:104760000FFF94F8CA30ADF80050312BADF804506B
:104770005BD90124304B5C61FFF702FF2C4BDC60FE
:1047800002B0BDE8F08194F8CC203868B8FBF2F3B1
:1047900002FB138354FA83F393F8CD306A469B00EF
:1047A00063F07F038DF8043001A902238DF80560C2
:1047B000FFF7F8F9B8F1000F1BD042F21070BDF806
:1047C000003008F1FF385BBAC3F30C03434341F6F2
:1047D000FF70B3FBF0F33220A04498F8CD1094F8AA
:1047E000C920A3F59C5300FB0122083B1BB224F80F
:1047F0001230013594F8CC305FFA85F89845C2D96B
:10480000322294F8C9300133B3FBF2F102FB1133C9
:10481000DBB284F8C93094F8CA300133DBB284F8D3
:10482000CA30012384F8CB30A3E73026034FE1E7F9
:1048300000000550B617002000200550341000205D
:1048400008B501213A20FCF76DFB00230722194629
:104850000220FEF709F80023072205210320FEF7B6
:1048600003F80023072219461846FDF7FDFF002331
:10487000072203210220FDF7F7FF0023072204216E
:104880000220FDF7F1FF0023072204210320FDF79A
:10489000EBFF0023072201210320FDF7E5FF0023A2
:1048A000072219460320FDF7DFFF0023072202211C
:1048B0000320FDF7D9FF0023072201210220FDF785
:1048C000D3FF0221002308460722FDF7CDFF002376
:1048D000072204210120FDF7C7FF01220023104613
:1048E0000521FDF7C1FF0023042206210220FDF768
:1048F000BBFF0023042208210220FDF7B5FF00239F
:10490000042205210220FDF7AFFF00230422072126
:104910000220FDF7A9FF0122062110460023FDF722
:10492000A3FF0822104BC3F8A0201022C3F8A02038
:104930001722C3F8D02001221A6400220B4B1A70F0
:10494000FFF78CFCFFF712FD094A536F5B06FCD59D
:1049500003F069FF00F038F9FFF72CFE0122024B4B
:10496000C3F8A02008BD00BF00E0035021190020BB
:1049700000C0035072B60023044A1370044AD37077
:10498000137113705370937062B670472219002030
:104990002319002070B5054640B33AB34B1E312BA6
:1049A00026D8144C207808B9107070BD124B987836
:1049B000884202D210700020F7E711709A78521ADC
:1049C000D2B29A7002B92270002432201A781A44A6
:1049D00052792A551A7801340132B2FBF0F600FB05
:1049E00016221A70E2B28A42F0D3E4E70120DCE733
:1049F0000220DAE7221900202319002010B5134CF9
:104A00001348237953B903F0B9FDE07010B10123C5
:104A1000A070237104220F4BDA6410BD03F0AEFDC9
:104A20006378E218507132220133B3FBF2F102FBDA
:104A300011336370E378013BDBB2E370002BE9D103
:104A400001222371044B1A70E4E700BF23190020F0
:104A50000000015B0020015B2219002038B50D46E3
:104A60000446B0B1012817D0022840F2FF3318BF26
:104A70003F23EB40DB0704D440F22D41074803F00D
:104A800090FE302001214443054B01FA05F51D51EC
:104A900038BD40F2FF13ECE77F23EAE7548B0008B0
:104AA00040D0035038B50D460446B0B1012817D0A8
:104AB000022840F2FF3318BF3F23EB40DB0704D44A
:104AC00040F2FE31074803F06CFE302001214443E0
:104AD000054B01FA05F51D5138BD40F2FF13ECE717
:104AE0007F23EAE7548B000840E0035013B5304CB5
:104AF000237F237F5BB2002B14BF012200222D4BAA
:104B00001A70E3889BB230D043B918222A4BC3F8FD
:104B1000A0201722C3F8D02002B010BD0F212748D3
:104B200003F040FD2548A02103F03CFDA378244A72
:104B3000D05C022812D101460190FFF7B3FF01219A
:104B40000198FFF78BFF08221E4BC3F8A02002221A
:104B5000C3F8D020FFF7E6FB2081DDE7012102202A
:104B6000FFF7A0FF02210846EBE7002BCDD00F2175
:104B7000124803F017FD1148A02103F013FDA3789C
:104B80000F4AD05C02280CD101460190FFF78AFF42
:104B900001210198FFF762FF10220A4BC3F8A02001
:104BA000D8E701210220FFF77DFF02210846F1E747
:104BB00094150020DF10002000E0035000000A5090
:104BC000EE8E000800D0035010B572B622491522AF
:104BD0000B462248013A12F0FF0241F8040BF9D1CA
:104BE0001F4A3421DA621F4A1F4C5A601F4A9A60DA
:104BF0001F4ADA641F4A5A641F4A5A651F4A1A65D7
:104C00001F4ADA6002221F4BDA725A70DA74597442
:104C10001A75236BDB0704D440F2B6411A4803F03F
:104C2000C0FD40F2CF730021E361184803F0BAFCE5
:104C30000021164803F0B6FC03F012FE1722144BB5
:104C4000C3F8D0200222A3F58053C3F8D02010224D
:104C5000C3F8D02062B610BDB415002057880008F4
:104C6000894E00089957000800C00450ED4A00081A
:104C7000755900089D5C000879510008B954000876
:104C8000CD6100085B190020488E000800000A5022
:104C900000E00350F0B500234FF0060C1C46194607
:104CA000334A867BDFF8D0E01360071DDDB2AE42E9
:104CB0003DD804B111600A24126803696243D90F18
:104CC000D40FA14251D322F0004223F0004322F03E
:104CD000010201D1934248D99342A1EB040137BFAD
:104CE000C2F100429B1A01F1FF319B1872B6322BC0
:104CF00038BF3223002406261E4A5B0089B2918207
:104D00009361837B9374917CE3B299421AD80378C0
:104D1000137090F914301377437D537762B613788C
:104D2000022B20D18088D8B910771077F0BD0CFB0A
:104D300003F405783C5B1EF80550013305FB0411B4
:104D40000124B3E706FB0305AF7802EBC3018F70C4
:104D5000AB88013403EB83039B009BB28B80D2E7CB
:104D60000123137713770020E0E70120DEE700BF7F
:104D70000C160020941500205B19002030B5022984
:104D800026D840F24243984224D84FF4C8235843CF
:104D9000114BB0FBF3F0114B84B203EBC102D48092
:104DA0001B78112B01D0002030BD34220C4B642520
:104DB00001FB02311A230B4C14F8012B013B424337
:104DC000B2FBF5F213F0FF0321F8022BF4D1EAE76E
:104DD0000220E9E70320E7E7C8A9010094150020B5
:104DE00094180020D48E00080E2814D8DFE800F0B4
:104DF00030081430131C22252B30333C3F42440032
:104E000012221F4B1021C3F8D0201E4AC2F8D01026
:104E10000122C3F8D020704702221A4BC3F8D020D9
:104E2000A3F580530422F4E70222154BC3F8D020E7
:104E30001022EEE70222124BE4E70122114BC3F8E5
:104E4000D0200222E5E710220D4BC3F8D020E9E77D
:104E500017220C4BDDE710220221094BC3F8D020AA
:104E6000084AC2F8D010DDE70422064BDEE7032231
:104E7000034BCEE7024BDBE71422014BC9E700BF2F
:104E800000D0035000E003502DE9F341AF4C2378EC
:104E9000062B4AD8DFE813F00700490053007A00D8
:104EA00007011F014501AA4FAA4D3B88AA4A05EBFD
:104EB000C3039B78D05C02283AD101460190FFF7EA
:104EC000F1FD01210198FFF7C9FD4FF00208102202
:104ED00043F6FC76A14B0021C3F8D080A048C3F86C
:104EE000D02003F05FFB00219D4803F05BFB03F043
:104EF000B3FC3B889A4805EBC303DB8806EA8306CC
:104F0000310A03F04FFB06F0FC01954803F04AFB21
:104F10003B88062005EBC305AB88FFF765FFA88833
:104F200080B2FFF765FA84F8008002B0BDE8F08136
:104F300001210220FFF7B6FD02210846C3E7844E97
:104F40003588FFF7EFF9834B328803EBC5052881DD
:104F500003EBC2031889834921F81200012182481A
:104F60008154824AC2F8D0100221C2F8D010102118
:104F7000A2F58052C2F8D0100421C2F8D01098884F
:104F800080B2FFF735FA03232370CEE70622774B72
:104F90000221C3F8A0200422C3F8D0201022C3F8B5
:104FA000D020A3F58053C3F8D010C3F8D02003F06D
:104FB00057FC684B197F4AB2002945D0012A12D00C
:104FC0000132B2D1624D6A4A2F88002F4ED101239F
:104FD000117842F6A4301944C9B22B801170FFF742
:104FE00007FA2770A1E762485D7F0178584E8D422D
:104FF000328815D9012A08BF41F2D252017801F155
:105000000101C9B20170986902BF9B8912FA83F34A
:10501000A0EB4300FFF7ECF900234D4A1380B3E700
:1050200000250570997C013292B28A42328005D205
:1050300042F6A430FFF7DCF90023A5E79869FFF7F3
:10504000D7F93580257070E741490A88013292B25C
:105050000A80997C8A42EBD39A7C9869022A06BF1F
:10506000A0F55F501438A0F54360D3E7587F11785E
:10507000884207D911780131C9B2117001229869AB
:105080002A80D7E70026167041F2D252986903EBC6
:10509000C7039B8812FA83F3A0EB4300FFF7A8F93C
:1050A0002E80267041E71722304B0021C3F8D02014
:1050B00006222B48C3F8A02003F074FA28480021E8
:1050C00003F070FA0222254B1420C3F8D0201022DE
:1050D000C3F8D020AEE717220626244B0021C3F8E0
:1050E000D0201F48C3F8A06003F05CFA00211C48E0
:1050F00003F058FA0222194BC3F8D0201022C3F84B
:10510000D020144B9D8AADB23DB19A8A194B4FF60F
:10511000FF701A80FFF76CF9C3E71420FFF768F9F6
:1051200090E7144B1D88013DADB21D8035B14FF69F
:10513000FF7002B0BDE8F041FFF75AB9044B1A887E
:10514000044B03EBC203988880B2E7E7761900208E
:105150000A19002094150020EE8E000800D003509C
:1051600000000A50FE1800207119002000E00350D2
:105170005A19002090180020F0B585B00023A04CEB
:10518000ADF80C302378072B7FD8DFE813F0080048
:105190001F0080009A005B001A014D017D0117225B
:1051A000984BC3F8D0200222A3F58053C3F8D02037
:1051B0001022C3F8D020944B1A88944B03EBC203FF
:1051C000988880B2FFF714F9012332E08E4E8F4D9C
:1051D00033888F4805EBC303DA8843F6FC7303EA90
:1051E00082031A0A8DF80C208DF80D30022200235C
:1051F00003A90068FEF7FCFC03F02EFB3388854A08
:1052000005EBC3039B78D05C022814D101460190C2
:10521000FFF748FC01210198FFF720FC0620FFF76B
:10522000E3FD338805EBC305A88880B2FFF7E0F8FB
:105230000423237029E001210220FFF733FC02211F
:105240000846E9E7704E3588FFF76CF86F4B3288F7
:1052500003EBC505288103EBC20319896E4B0225B8
:1052600023F8121001216D4B40F6B83099541722E3
:10527000644BC3F8D0201022A3F58053C3F8D0505C
:10528000C3F8D020FFF7B4F8257005B0F0BD1722A1
:105290005C4B0A20C3F8D0200222A3F58053C3F848
:1052A000D0201022C3F8D020FFF79EFD564B1A885D
:1052B000564B03EBC203988880B2FFF799F803239B
:1052C000B7E7172202214F4B0625C3F8D020544AD6
:1052D000C2F8D0101021C2F8D010C3F8A05003F0CB
:1052E000BFFA4A4B1A7F57B2002A3CD0012F0DD08B
:1052F0000137CAD1444E4B4A3188002948D1012395
:10530000338013780133DBB2137024E045485F7FAC
:1053100001783D4E8F42328815D9012A08BF41F2EB
:10532000D252017801F10101C9B20170986902BF3E
:105330009B8912FA83F3A0EB4300FFF759F800238F
:105340003380062375E700270770997C013292B2FB
:105350008A42328002D242F6A4300EE09869FFF70A
:1053600047F8378090E7284E997C3288013292B214
:105370008A42328005D240F67C00FFF739F80523D7
:1053800057E742F2EC2298699B7C02FB1300E6E7A8
:105390005F7F1078874207D911780131C9B2117047
:1053A0000122986932806DE70027177041F2D252CE
:1053B000986903EBC1039B8812FA83F3A0EB4300C7
:1053C000CDE717220F4BC3F8D0200622C3F8A02048
:1053D00003F046FA00230E480222006803A98DF864
:1053E0000C308DF80D30FEF703FC02220C4BC3F895
:1053F000D0201022C3F8D020034B1A88034B3DE085
:105400007519002000E003500819002094150020B1
:1054100010100020EE8E0008FE18002071190020E8
:1054200000D003505A19002017221D4BC3F8D0207A
:105430000622C3F8A02003F013FA00231948022221
:10544000006803A98DF80C308DF80D30FEF7D0FB05
:105450000222154BC3F8D0201022C3F8D020134BE2
:105460009A8A92B242B19A8A114B4FF6FF701A8013
:10547000FEF7BEFF0723DCE60E4A128803EBC203E9
:10548000988880B2E5309DE6094A1388013B9BB2BB
:105490001380002BB0D04FF6FF70FEF7A9FFF4E6A3
:1054A00000E003501010002000D00350941500209D
:1054B0008E180020081900202DE9F341AB4C237809
:1054C000062B4AD8DFE813F00700490053007400A8
:1054D000000118013E01A64FA64D3B88A64A05EBE8
:1054E000C3039B78D05C02283AD101460190FFF7B4
:1054F000D9FA01210198FFF7B1FA4FF00208102202
:1055000043F6FC769D4B0021C3F8D0809C48C3F83D
:10551000D02003F047F80021994803F043F803F046
:105520009BF93B88964805EBC303DB8806EA8306B4
:10553000310A03F037F806F0FC01914803F032F825
:105540003B880A2005EBC305AB88FFF74DFCA88814
:1055500080B2FEF74DFF84F8008002B0BDE8F08114
:1055600001210220FFF79EFA02210846C3E7804E80
:105570003588FEF7D7FE7F4B328803EBC5052881BF
:1055800003EBC20318897F49032521F8120001208B
:105590007D49885404217D4AC2F8D0101021C2F8F8
:1055A000D010A2F58052C2F8D050988880B2C6E0E0
:1055B0000622764B0126C3F8A0200222C3F8D06051
:1055C000C3F8D020A3F58053C3F8D0201022C3F82D
:1055D000D02003F045F9674B197F4AB2002945D026
:1055E000B24211D00132B8D1614D694A2F88002FE3
:1055F0004ED1117842F6A4300131C9B22E8011701B
:10560000FEF7F6FE2770A8E761485D7F0178584EE7
:105610008D42328816D9012A08BF41F2D252017850
:1056200001F10101C9B20170986902BF9B8912FAA8
:1056300083F3A0EB4300FEF7DBFE00234C4A13800C
:1056400023708AE700250570997C013292B28A4264
:10565000328005D242F6A430FEF7CAFE0023EFE7FF
:105660009869FEF7C5FE3580257076E740490A88BF
:10567000013292B20A80997C8A42EBD39A7C986973
:10568000022A06BFA0F55F501438A0F54360D2E7A8
:10569000587F1178884206D911782E800131C9B21D
:1056A00011709869D8E70026167041F2D2529869B5
:1056B00003EBC7039B8812FA83F3A0EB4300FEF7CA
:1056C00097FE2E80267048E71722304B0021C3F842
:1056D000D02006222A48C3F8A02002F063FF284801
:1056E000002102F05FFF0222244B1420C3F8D020D7
:1056F0001022C3F8D020AFE717220626234B002143
:10570000C3F8D0201E48C3F8A06002F04BFF002170
:105710001B4802F047FF0222184BC3F8D02010228A
:10572000C3F8D020134B9D8AADB23DB19A8A194B74
:105730004FF6FF701A80FEF75BFEC3E71420FEF7FA
:1057400057FE91E7134B1D88013DADB21D8035B169
:105750004FF6FF7002B0BDE8F041FEF749BE044BC2
:105760001A88044B03EBC2031FE700BF7419002023
:105770000619002094150020EE8E000800D003507A
:1057800000000A50FE1800207119002000E00350AC
:105790005A1900208C1800202DE9F3416B4C237816
:1057A000042B41D8DFE803F0034A738FBA001722B5
:1057B000674B4FF00208C3F8D020102243F6FC7666
:1057C000644FA3F58053C3F8D080634DC3F8D02055
:1057D0003B88624805EBC303DB8806EA8306310A8F
:1057E00002F0E0FE5D4806F0FC0102F0DBFE3B88C3
:1057F0005B4A05EBC3039B78D05C404517D101465B
:105800000190FFF74FF901210198FFF727F900BF39
:105810000620FFF7E9FA3B8805EBC305A88880B2AC
:10582000FEF7E6FD0123237002B0BDE8F0810121FF
:105830004046FFF737F941464046E6E7454D2E889A
:10584000FEF770FD444A2B8802EBC606308102EB5E
:10585000C3010889434921F8130001204249C85473
:1058600017203B490133C1F8D000917C9BB28B4299
:105870002B8005D240F67C00FEF7BAFD0223D2E76A
:105880009069FEF7B5FD00232B800323CBE7172299
:105890002F4BC3F8D0200622C3F8A0200222A3F584
:1058A0008053C3F8D0201022C3F8D020294B1A8887
:1058B000294B03EBC203988880B2FEF799FD02F0F2
:1058C000CFFF0023AFE7172302220627204EC6F89A
:1058D000D030264BC6F8A070C3F8D0201022C3F8F1
:1058E000D0201D4B9D8AADB265B19A8A204B4FF6F0
:1058F000FF701A80FEF77CFD02F0B2FF0423C6F8A9
:10590000A07090E7134A128803EBC203988880B214
:10591000FEF76EFD02F0A4FF257085E7144B1D888D
:10592000013DADB21D8035B14FF6FF7002B0BDE84C
:10593000F041FEF75DBD074B1A88074B03EBC2032E
:10594000988880B2FEF754FDE6E700BF7719002083
:1059500000E00350041900209415002000000A50B4
:10596000EE8E0008FE1800207119002000D00350B0
:105970008A180020F7B5A64C2378052B00F2A880E2
:10598000DFE813F00600470000017D0023017301EA
:10599000172243F6FC769F4B9F4FC3F8D0209F4DB4
:1059A0003B889F4805EBC303DB8806EA8306310A80
:1059B00002F0F8FD9A4806F0FC0102F0F3FD3B8886
:1059C000984A05EBC3039B78D05C022818D10146A6
:1059D0000190FFF767F801210198FFF73FF8924B1C
:1059E0001B88A3B90620FFF7FFF93B8805EBC30529
:1059F000A88880B2C830FEF7FBFC0123237067E063
:105A000001210220FFF74EF802210846E5E70A20AF
:105A1000E9E7814E3588FEF785FC804B328803EB41
:105A2000C505288103EBC20108898049D50021F80A
:105A3000120001207E4988541721764AC2F8D010FE
:105A400079490E887B4996B9C2F8D0000220C2F885
:105A5000D0001022C1F8D02004222B44C1F8D0205D
:105A6000988880B2C830FEF7C3FC0323C6E7042041
:105A7000C2F8D0001020C2F8D0000322EDE71722B0
:105A800010210226634BC3F8D0206A4AC2F8D060C6
:105A9000C2F8D0100622C3F8A02002F0E1FE5F4B4E
:105AA0001A7F57B2002A45D0012F13D001370FD1EA
:105AB000594D614A2988002949D101232B80137847
:105AC00042F6A4300133DBB21370FEF791FC26706E
:105AD00003B0F0BD58485E7F01784F4D8E422A8852
