:020000040800F2
:1000000000100020052B0008DD730008DD730008D8
:10001000DD730008DD730008DD730008DD73000880
:10002000DD730008DD730008DD730008DD73000870
:10003000DD730008DD730008DD730008DD73000860
:10004000DD730008DD730008DD730008DD73000850
:1000500099280008291B0008DD730008DD730008DB
:10006000DD730008DD730008DD730008A51D0008BE
:10007000DD730008DD730008DD730008DD73000820
:10008000DD730008DD730008DD730008DD73000810
:10009000DD730008DD7300087D2E0008DD730008A5
:1000A000DD730008DD730008A12F00087D2F000814
:1000B000DD730008DD730008DD730008DD730008E0
:1000C000DD730008DD730008DD730008DD730008D0
:1000D000DD730008DD730008DD730008DD730008C0
:1000E000DD730008DD730008DD730008DD730008B0
:1000F000DD730008DD730008DD730008DD730008A0
:10010000DD730008DD730008DD730008DD7300088F
:10011000DD730008DD730008DD730008DD7300087F
:10012000DD730008DD730008DD730008DD7300086F
:10013000DD730008DD730008DD730008DD7300085F
:10014000DD730008DD730008DD730008DD7300084F
:10015000DD730008DD730008A5770008DD73000873
:10016000DD730008DD730008DD730008DD7300082F
:1001700010B5054C237833B9044B13B1044800E0A3
:1001800000BF0123237010BDD81300200000000021
:10019000047E000808B5034B1BB10349034800E087
:1001A00000BF08BD00000000DC130020047E000832
:1001B000A3F5803A704700BF174B002B08BF134BC5
:1001C0009D46FFF7F5FF00218B460F461348144A62
:1001D000121A07F01EFB0E4B002B00D098470D4B58
:1001E000002B00D098470020002104000D000D488E
:1001F000002802D00C4800E000BF06F0E1FF20001C
:10020000290007F049F806F0C7FF00BF000008000A
:10021000000000000000000000100020D8130020A3
:10022000881C0020000000000000000038B50125F7
:10023000084C094A236B156300226262DA0707D46F
:10024000204607F096FA054B1D63236B9B07FCD4F1
:1002500038BD00BF008004500090045000A004503E
:1002600010B540F2FF33C340DB07044604D440F22C
:100270002D41054807F0C6F80120044B00FA04F4AC
:10028000C3F8A04010BD00BFA078000800D0035004
:1002900010B540F2FF33C340DB07044604D440F2FC
:1002A000FE31054807F0AEF80120044B00FA04F4D3
:1002B000C3F8A04010BD00BFA078000800E00350C4
:1002C00013B500220E4B019293F8DC1099B1017026
:1002D00083F8E020FFF7AAFF012249F64044094BCA
:1002E000DA60013C01A8A4B201F066FC002CF8D150
:1002F000204602B010BD0222092083F8E020F8E772
:10030000FC1300200080045010B502230024064A8C
:1003100082F8E03082F8DC40044AD360FFF786FFC1
:1003200001F00CFC204610BDFC130020008004509E
:100330001FB510220021684607F06BFA0023124C0B
:1003400023800123A370A4F8DE3006F0D7FF6846AF
:1003500006F0D6FF4FF6FF73BDF80010BDF802207F
:100360009942A4F86E1004BF6421A4F86E109A425A
:1003700008BF6423A4F8DA2008BFA4F8DA30FFF736
:10038000C3FF04B010BD00BFFC1300208278012A17
:100390001AD80188B1F57A7F18D86C200C4B09293E
:1003A00000FB02334FF41D7201FB02F24FEA5202CE
:1003B0005A6003D8642200201A727047632901D85A
:1003C0000A22F8E70122F6E70C2070470D2070475B
:1003D000FC13002013B50023019302232A4C84F858
:1003E000E03094F8DC30012B84BF03F1FF3384F854
:1003F000DC308278012A3FD894F8DC10631883F847
:10040000E120C37859BB003B18BF0123A3700388C8
:10041000642B33D840F6C411B1FBF3F1142B2180C7
:100420008ABF14210123B3FBF1F3A4F8DE304FF4AB
:100430007A7301A8ADF804308DF80620FFF7A6FF07
:1004400094F8DC1011480131C9B201F081FBC8B940
:1004500094F8DC30013384F8DC3002B010BDA178B0
:1004600099420DD140F6C41300882188B3FBF0F304
:100470009942DCD00720F0E70220EEE70420ECE709
:100480000620EAE70520E8E7FC130020DD14002041
:100490007FB56C46064610220021204607F0B9F9C8
:1004A000B578012D17D86C220C4B368802FB05332A
:1004B000A3F86E6006F022FF204606F021FF04AB91
:1004C00003EB450525F8106C94E80F0006F025FFB6
:1004D000002004B070BD0E20FBE700BFFC1300201D
:1004E0002DE9F04F87B00026A24D8B4695F8E040ED
:1004F000CDE90466029003921CB1012C30D0002497
:100500001AE0214626464FF06C0E4FF00A089A4B2F
:100510002A8895F8DC701A80984BDFF878C21C8026
:10052000974B05F1E1001C80964B1C808BB29F42DB
:1005300006D8012385F8E030204607B0BDE8F08FEB
:10054000002210F8013B2CF813601EFB03832B44A0
:10055000013292B2322A23F8026BF9D10131E5E778
:1005600095F8DC30002BCAD005A801F025FB002847
:1005700039D005F1E107BC4632464FF06C0E95F8D4
:10058000DC30DFF80C820193AB78DFF80892DFF8FB
:1005900008A20093019993B2994256D8764B1A88D3
:1005A000013A92B21A80F2B9724801881980734BED
:1005B0001D88312D17D84FF0360C4FF06C0992463C
:1005C000DFF8C081B8F80010019E93B29E426AD84D
:1005D00032230131B1FBF3F203FB1211674B0135FA
:1005E000A8F800101D80684B5B6F5B0687D56349D8
:1005F000604D0B88B5F8DE209A4280D8039895F8B4
:10060000DC20B0FBF2F2934290B275D98BF8002057
:100610001B1A00220B804FF0360811464FF03209AA
:1006200095F8DC309A460093AB780193544B1B88C5
:100630009BF800508D4240F29480009A029D4A43FC
:10064000002705EB4202514D75E01CF8011B06AE78
:100650000EFB0150037AB0F86E0006EB410626F857
:10066000080C0098E8B136F9040C0028BCBF4042E1
:1006700026F8040C39F8116058F8210016FB03F332
:100680000EFB015676681B1A734393FBFAF303447F
:1006900048F8213006AB03EB410333F8043C29F85A
:1006A0001130013276E7009E17F8013BC6B1384E93
:1006B00056F82360002E07DA0CFB031300EB43030C
:1006C000A3F80AA001327FE70CFB031E09FB03031A
:1006D0001B7A00EB4E0E96FBF3F3AEF80A30F1E70F
:1006E0000CFB03160DF1180E0EEB430333F8043C1C
:1006F00000EB46067381E5E78BF80030002388E7BE
:10070000019E2EB32E781B4808FB063C0DF1180EF7
:1007100000EB4C0C0EEB4606BCF90AC036F8086C30
:10072000B44503DDACEB0606168001E0A2F800C07C
:10073000013702320135BEB2B245E1D80133B3FB15
:10074000F9F209FB1233013101229BB289B26FE742
:100750002E78084808FB063600EB4606B6F90A6014
:10076000E2E70AB1064A1380009B13FB05F08BF801
:100770000000E1E6FC130020601A0020581A002057
:100780005E1A0020621A002000C00350DD14002011
:10079000F41300205A1A0020A08601002DE9804899
:1007A000BBB000252C46DFF82CA50023032D05D86F
:1007B000DFE815F005004500C000FB01002400261D
:1007C000B1463746002501E025460124042C32D8E5
:1007D000DFE814F00A00170028000800E4012746AB
:1007E0000324F3E73C46F1E7012118A806F03DFD9C
:1007F0000028F5D09DF86030B342E5D01E460424B1
:10080000E4E7012118A806F030FD18B102249DF894
:100810006090D7E70135EDB2092DE0D901F07EFAFD
:100820000027DDE7B9F1000FFAD001F077FA0020D8
:1008300006F01AFDF4E7002006F016FDC6E70EAF3D
:1008400010220021384606F0E4FF01232E464FF027
:1008500003094FF0000B8DF860304FF0000805E001
:100860002C46FAE7A346032400E05C46621E032AF6
:100870000AD801A353F822F0A3080008CF08000803
:100880006B0800089D0B0008012105A806F0EDFC8F
:100890000028E8D09DF81420B242E1D01646042486
:1008A000E4E7012105A806F0E0FC18B102249DF858
:1008B0001490D2E708F101085FFA88F8B8F1090F3F
:1008C000D0D9019001F02AFA4FF0000BCBE7B9F133
:1008D000040F1AD0B9F1050F26D0B9F1030F4FF06C
:1008E000000BC0D101228DF861208DF86320022217
:1008F000072118A88DF862B08DF864208DF865B0D6
:100900008DF866B006F0DAFCADE706F0F7FC384685
:1009100006F0F6FC03A906220FA806F06DFF97E883
:100920000F0006F0FAFCCFE706F0E8FC384606F0C8
:10093000E7FCC9E74FF0000B02232E464FF00309F6
:10094000D8465F468DF81430042C00F22A81DFE887
:1009500014F0080016002D001E012301A0460124FA
:10096000F2E701210EA806F080FC002800F00D81BE
:100970009DF83820B242F1D016460424E4E7012164
:100980000EA806F072FC28B12C464FF000089DF826
:100990003890D9E708F101085FFA88F8B8F1090F33
:1009A00040F2F280019001F0B9F914E0B9F1090FB9
:1009B00000F2DC80DFE809F02C717BBACAD2DA934E
:1009C000A4059AF80030012B08D1052129A806F0CA
:1009D00075FC8AF800704FF0000BD6E0BA4B1B781C
:1009E000012B03D105210DF1C600F0E7B74C2378A8
:1009F000012B05D1052118A806F060FC2770EAE755
:100A0000B34C2378012BE6D105210DF18200F3E7E9
:100A10001A210EA806F029FC002800F0AD80BDF8D0
:100A200040300EA85BBAADF84030BDF842305BBA3A
:100A3000ADF84230BDF844305BBAADF84430BDF893
:100A400046305BBAADF84630BDF848305BBAADF819
:100A50004830BDF84A305BBAADF84A30BDF84C308A
:100A60005BBAADF84C30BDF84E305BBAADF84E30E5
:100A700000F092FD58B98DF816008DF81700052189
:100A800005A88DF81570CB4606F018FC7DE0012313
:100A90008DF817708DF81630F1E700F093F9012307
:100AA0008DF815708DF816708DF8173012E0022150
:100AB0000EA806F0DAFB00285ED09DF839109DF8EC
:100AC000380001B1012100F0FDF948BB8DF8160096
:100AD0008DF81570032105A806F0F0FB7BE70721D0
:100AE0000EA806F0C2FB002846D0BDF83D30BDF888
:100AF0003B20BDF839109DF8380000F00DFAE4E70E
:100B000007210EA806F0B1FBB0B3BDF83D30BDF82B
:100B10003B20BDF839109DF8380000F035FAD4E7D5
:100B200001238DF817708DF81630D1E700F068F9C1
:100B3000032105A88DF815708DF816708DF8171023
:100B40004C4606F0BBFB4FF0000BFDE600F054FAFC
:100B500004238DF815708DF81670A5E700F052FA91
:100B600005238DF815708DF816709DE701F0D6F805
:100B7000002006F079FB2EE708F101085FFA88F8FB
:100B8000B8F1090F3FF60FAFA3460324DCE618A81F
:100B900000F040FA5C46D7E600F032F93546012411
:100BA00003E6002006F060FBCEE64FF0000BCDE937
:100BB0000E33ADF8403003232E464FF005095F4653
:100BC000D8468DF86030042C00F2F880DFE814F08D
:100BD0000B0018002C00C400F30027460124F2E7A4
:100BE000A3462C46EFE701210EA806F03EFB0028A5
:100BF000F7D09DF83820B242EFD016460424E2E741
:100C000001210EA806F031FB20B1022400279DF837
:100C10003890D8E70137FFB2092FE1D9019001F0F0
:100C20007DF801988346DCE7B9F1050F00F28B806F
:100C3000DFE809F003335262718004210EA806F048
:100C400014FBA0B94FF0010B00200330C1B218A86B
:100C500006F034FBBBF1000FC3D00137FFB2092F00
:100C6000BED901F05BF82C464FF0000BABE7BDF8A6
:100C700038300EA85BBAADF83830FFF7ABFB012374
:100C800028B98DF86230CB468DF86180DDE78DF8AC
:100C900063008DF862801846F5E705A8FFF710FBA2
:100CA00060B901238DF862309DF814308DF86330FF
:100CB00048468DF861804FF0000BC6E78DF86280E2
:100CC0008DF86300F4E700BFC41B0020C61B0020A2
:100CD000C71B0020C51B002002210EA806F0C5FA84
:100CE0000028AFD00EA806F08FFA012328BB8DF89C
:100CF00062308DF86180DEE703210EA806F0B5FAB8
:100D000000289FD0BDF838300EA85BBAADF8383057
:100D1000FFF73CFBE9E703210EA806F0A6FA00283E
:100D200090D0BDF838300EA85BBAADF83830FFF778
:100D3000AFFBDAE7FFF7E8FAD7E78DF863008DF845
:100D400062801846D5E74FF0000B00F0E7FF002067
:100D500006F08AFA584678E70D220DF1630119A8CA
:100D6000FFF7BEFBC0B100219DF86320C8B29042DE
:100D700014D319A90846520006F03EFD01229DF841
:100D8000631018A80231914001F0FE018DF8612036
:100D90008DF8622006F092FA5C4614E73AAB03EB5A
:100DA000410030F984CC10F8834C013104EB0C2461
:100DB00020F8844CDAE7FFF7A7FAEFE6002006F008
:100DC00053FA00E701230B4A92F87600138070B1C2
:100DD00092F86820092A0AD00749984218BF4B7038
:100DE000112A08BF01220B7004BF044B1A700020A7
:100DF000704700BFE0140020C81B00207A1C0020B0
:100E000070B50225254B264CDD60FF2001F026FD44
:100E1000E5600125234A236B156300226262DA072D
:100E200007D4204606F0A5FC1F4B1D63236B9B07D0
:100E3000FCD41E4D95F86830092B01D0022B03D14C
:100E400002221B4BC3F8A02006F04DFA002001F04F
:100E500089F800210024084601F0BCF8154EA5F8D9
:100E60006C40154801F006F801212046347001F06D
:100E7000B1F8A5F87240104800F0FCFF012295F887
:100E8000683085F87640112B08BF0C4B4FF00000FE
:100E900008BF1C700A4B74701A7070BD00C00450FB
:100EA000008004500090045000A00450E014002082
:100EB00000E00350C81B0020481500207A1C0020C9
:100EC000CB1B002030B50123124A022853701FD8D3
:100ED00092F87630012B04D192F86A30012B08BFCA
:100EE0000020322404FB0024638DE58D59B1A18DCF
:100EF0002B449BB2994228BF1946322303FB0022A0
:100F00000020518530BDAB4224BF591B89B2F4E7A4
:100F10000D20F7E7E014002070B50125174C0228DA
:100F2000657026D894F87650012D03D194F86A5054
:100F3000012D06D0012805D194F97C5015B1072662
:100F400015E00020322505FB0045EE78A9832A84B0
:100F5000AB8486B90A4BB3FBF1F10623A16703FB0F
:100F60000044EB8B0748A4F86C3000F083FF304658
:100F700070BD0D26FBE70026F9E700BFE014002056
:100F8000809698004815002070B50125174C02285E
:100F9000657025D894F87650012D04D194F86A50E4
:100FA000012D08BF00200D041CD416041AD41D0402
:100FB00018D4322606FB0046F578F1837284F38458
:100FC00095B9B28B0A4BB3FBF2F3A367062303FB7D
:100FD00000440848A4F86C1000F04CFF284670BD8F
:100FE0000D25FBE70825F9E70025F7E7E0140020C9
:100FF00080969800481500200020014B58707047DB
:10100000E01400200122024B00205A70704700BFFC
:10101000E01400202DE9F04F8DB0002102220123C1
:10102000ADF82810817080F824107B49027009788F
:101030008346437080F8222080F8233029B980F855
:10104000442080F8453080F84610744B1B783BB93B
:1010500002228BF8662001228BF868308BF867201B
:101060006F4B93F87620099209996E4A11701A789D
:1010700062B100202D27814693F868806A4A099C56
:10108000C1B28C4227D80022654B1A70674B0024EE
:101090001A7802F0FF08002A00F07182624FDFF830
:1010A0008091A2464D463E461C700AAB03930BABA3
:1010B00001935F4B089402935E4B07935E4BCDE91F
:1010C00005B3E3B20493049A099B93425BD8089852
:1010D0000DB0BDE8F08FB8F1090F93F802C0DD78CC
:1010E00018D182F802C0557794461D46002407FBAC
:1010F00000F192F802A00191E1B28A4529D84A494B
:10110000323307FB00112D3281F81B9081F81C90BF
:101110000130B4E707FB00FE1C8D434E04EB840452
:10112000E40026F80E409C8B06EB0E0182F802C00C
:101130005577CC83DC8B0C841C8C4C845C8C8C842D
:101140009C8CCC84DC8C0C8593F8301082F82C10AD
:10115000CAE74FF0060E2979019E8CF803100EFBAA
:10116000046EE988B8F1090F18BF01EB81012E4E1A
:101170001CBFC90089B2B644AEF80510013406356B
:101180000CF1060CB8E72D236343F25AF11812B3A1
:10119000013A91B20129F25205D1049B8BF86930D2
:1011A00000238BF86A30039B013401330393019BC6
:1011B0002D3702330193029B09F106090133029393
:1011C000079B323501330793069B01330693059B3A
:1011D0002233059375E7124BBA7895F802805B7855
:1011E000A8EB02085FFA88F823B9B1F91B30013384
:1011F000A1F81B3032230621634301FB0833084961
:101200000B441B79013B032B35D8DFE813F01700A3
:10121000B6003401490100BFC51B0020C41B0020DB
:10122000E0140020CF1B0020D01B0020CC1B00208E
:10123000CD1B0020C81B00207A1C00209B4B698D11
:1012400093F86830022B4FF02D0340F08480002982
:101250007ED097480078012872D16343F218B2F922
:101260001BA0062202FB083301FB0AF13344B3F84A
:1012700005A0B1FBFAFA04991FFA8AF000F0AAFE61
:101280008A4991F86830092B00F02381112B00F076
:10129000208132230622634302FB08330B441B796F
:1012A000022B2AD1069B1B78012B26D1BAF1640FA1
:1012B00040F20C817F4B642133F814204FF47A7391
:1012C0005A4340F2FF33B2FBF3F2462303FB0AF327
:1012D000B3FBF1F39A4280F0F98095F83230012B9C
:1012E0000BD1079B1B78012B07D1029B029A1B781D
:1012F000013313700023069A1370029B1B78042B92
:1013000040F2E780042301228BF84730049B6A49AE
:1013100013441340C95C8BF8462005298CBF022179
:1013200099F86A108BF8481064490A7000220799EE
:101330000A706349CA5402990A705F49CA54C8E0E6
:10134000002103FB0463013AD9761977BA7092E75A
:1013500003FB0463F7E76343F218B2F91BA006220C
:1013600002FB083301FB0AF13344B3F805A0012363
:10137000B1FBFAFA019A53707DE700224C4B1A70C8
:101380007B7F012B3ED12D220623624303FB0823E2
:1013900032443344B2F91B10B3F805E00FFA81FC74
:1013A0004FEA5E039C450A4637DA591A09B200290A
:1013B00018DDA88BB5F820A04249B1FBF0F0B1FBD5
:1013C000FAF1091A91FBF3F10CFB0101374881672F
:1013D000E88B698C091A11FB02F191FBF3F10144CE
:1013E000A9F86C109C4523DCF44508D1AA8C354B38
:1013F000B3FBF2F32D4A9367EB8CA9F86C303248BB
:1014000000F038FD32230622634302FB0833274AEB
:10141000B5F82AA013441B79ACE7E3D12A8C294BF9
:10142000B3FBF2F3214A93676B8CA9F86C30DBE7CE
:1014300092B2AEEB020109B20029D5DDB5F824A0C5
:10144000288C2049D21AB1FBF0F0B1FBFAF1091A4D
:1014500091FBF3F1ACEB030A01FB0A01134881672E
:10146000688CE98C091A11FB02F292FBF3F2024438
:10147000A9F86C20B8E72D2306216343F21801FB7D
:101480000833B5F82AA0B2F91B2033440AFB02F254
:10149000B3F80530B2FBF3F20323AAEB020A69E7C3
:1014A0000423019A4FF0000A5370E4E6E014002090
:1014B000CB1B0020A01B0020CD1B0020C51B002043
:1014C000C81B002080969800481500200023029A2F
:1014D00013702D2306206343F11800FB08333344B7
:1014E000B3F8053001F11802B1F91B1099421ADB6B
:1014F00000230199D370137199F86A20BB780A70A0
:1015000001220399013BDBB2BB700A705BB91D4B32
:101510001B78934218BFAB78BB7097F82C30FF2B29
:101520001BD101230893039B1B78002B3FF43BAE98
:10153000154B5B6F5B067FF536AE0023039A137085
:10154000019B059A1B78D370019B5B781371049AF9
:10155000012392B90D4A137025E6013BDBB287F8EF
:101560002C30002BDDD14FF00108094B83F80180AE
:10157000FFF746FCCDF82080D5E7064AEBE7CDF82B
:101580002080A4E5CA1B002000C00350C61B002019
:10159000E0140020C71B00202DE9F0418F4C94F887
:1015A0007630012B84BF03F1FF3384F87630027864
:1015B000012A00F2AD82062394F8765003FB054120
:1015C00081F86A204278142A00F2A482002D54D1B6
:1015D00084F868203223827803FB0543003A18BF61
:1015E000012283F83220427E94F86860002A08BF06
:1015F000FF22092E83F830200289818946D10227F3
:10160000774EF76000261E851AB10126DA80324631
:101610001E71468956B1322306276B4307FB0233FE
:101620000227234401321F71DE80D2B251B132232E
:1016300006266B4306FB02330426234401321E7147
:10164000D980D2B2322303FB05450023AB832B8420
:10165000AB84EB836B84EB84E370838AA270232BCF
:1016600008BF24236B85C38AAB85037EEB85C378D3
:10167000012B08D184F87C3007E094F8681091427F
:10168000A8D018461BE0022BF4D0FFDE002D40F05E
:10169000B1808A42B0F810C0478912D1944510D168
:1016A000C389BB420DD1438ADB1B18BF0123E37002
:1016B0003B04A2832184A4F824C004D50820BDE8FB
:1016C000F0810123F3E7B0F90E30C289002BF5DB7E
:1016D000B0F91210438A0029F0DBE7836284E384C7
:1016E000C378238503791BB10122E380134622715D
:1016F00047793FB10622022102FB034201331171F7
:10170000D780DBB2817949B106224FF0030C02FB8E
:101710000342013382F804C0D180DBB2C17949B100
:1017200006224FF0040C02FB0342013382F804C08E
:10173000D180DBB2022EDFF8B8C047D106214FF0CE
:10174000010E5A1ED2B201FB024282F804E0D6809A
:1017500001FB034273441671D780DBB28CF800E0C2
:10176000A370322303FB0543828A5A85C28A9A8575
:10177000027EDA85626A1B4B9A4207D0B4F8563073
:10178000962B05D1B4F85830322B01D19523A38480
:10179000A28C154B1548B3FBF2F33222A367062344
:1017A00002FB054203FB0543D28CA3F86C206B1CA3
:1017B00084F8763000F05EFB002800F0598194F840
:1017C00076300A20013B84F8763078E700228CF8E6
:1017D0000020002BC4D1092071E700BFE0140020D5
:1017E00000C00450960032008096980048150020F2
:1017F000CA1B0020E678012E40F0AE80B0F90A70D6
:10180000B0F810E0002F46899A831984A3F824E0E9
:10181000FFF654AFB0F90EC0C789BCF1000FFFF658
:101820004DAFB0F91280B0F812C0B8F1000FFFF65A
:1018300045AFBEF1960FDE835F84A3F826C006D1C4
:10184000BCF1320F04BF4FF0950CA3F824C09629C9
:1018500005D1322F02BF952307FB05473B84962A0B
:1018600005D1322E02BF952306FB0546B3833223F2
:1018700003FB0543A68B9A8BB24207D1278C1A8CA7
:10188000974203D1A78C9A8C97425FD0238C8B42CE
:101890000FD8FF2284F87C20322202FB0542128CF2
:1018A000B2FBF1F701FB172292B2002A49D00720C0
:1018B00005E7012284F87C20B3FBF1F201FB12332F
:1018C0009BB2002BF3D184F87D20322202FB05422B
:1018D000238C96831384A38C9384C3781385037914
:1018E0001BB10121D3800B461171417951B13222D4
:1018F00006266A4306FB03220226224401331671A0
:10190000D180DBB2817951B1322206266A4306FBCF
:1019100003220326224401331671D180DBB2C17940
:1019200051B1322206266A4306FB032204262244D2
:1019300001331671D180DBB2322202FB0542937073
:101940000FE7B1FBF3F384F87D30BEE70122DA70D4
:10195000002384F87C30B8E78A4240F0DD80068AB4
:10196000964240F0D9804689C789BE4240F0D48073
:10197000B0F812C0664540F0CF8016F4004F9A834D
:101980001A849A847FF49AAE962ADE835E84DE847B
:1019900005D1322E04BF4FF0950CA3F824C0962930
:1019A0000BD1322F0BD1952307FB05473B84322304
:1019B000952203FB05439A8303E0962A01D1322E38
:1019C000F5D0322202FB0542A78B968B218CB742C1
:1019D000138C09D18B4207D1A68C928C96423FD1B1
:1019E000002384F87C300EE08B4239D2012284F847
:1019F0007C20B1FBF3F203FB12139BB2002B7FF4AC
:101A000056AF84F87D20322202FB0542C37813854D
:101A100003791BB10121D3800B461171417951B17A
:101A2000322206266A4306FB0322022622440133A1
:101A30001671D180DBB2817951B1322206266A4318
:101A400006FB03220326224401331671D180DBB248
:101A5000C17900297FF465AF002B7FF46DAFBAE642
:101A6000FF2284F87C20B3FBF1F201FB1233C4E7C0
:101A7000226A2A4B9A4207D0B4F85230962B05D1ED
:101A8000B4F85430322B01D195232384228C244B7B
:101A90002448B3FBF2F33222A367062302FB05427C
:101AA00003FB0543528CA3F86C2000F0E3F90028F7
:101AB0007FF485AEE269194B9A4207D0B4F85230F0
:101AC000962B05D1B4F85430322B01D19523A38342
:101AD000A28B134B1348B3FBF2F33222A367062306
:101AE00003FB054302FB0545EA8BA3F86C2000F0DD
:101AF000C1F900287FF463AE94F86830022B02D05D
:101B0000092B7FF4DCAD0023E37084F83530D6E593
:101B10000220D4E50520D2E50C20D0E59600320065
:101B200080969800481500200123024A1370024A4B
:101B300053617047CC1B002000A0045072B60022F5
:101B4000024B83F8CC2062B6704700BF641A0020B5
:101B5000F8B572B6022928D9FFF7F0FF0120F8BDC9
:101B6000C25C012A03D9FFF7E9FF0220F7E7EC186E
:101B700084F8CD200022C45C06FB04240132322A02
:101B800025F81470F7D10133DAB29142E8D8002079
:101B9000084B83F8C80083F8C90083F8CA0083F8AB
:101BA000CB0083F8CC1062B6D9E7002332261F465B
:101BB000004DE9E7641A002030B5184B93F8CA10BD
:101BC00001F0FF0239BB104630BD1A4492F8CD40F7
:101BD00093F8C820013105FB042233F8122020F8C5
:101BE000142093F8CC40CAB29442EED8322193F834
:101BF000C8200132B2FBF1F001FB1022D2B283F80F
:101C0000C82072B693F8CA20013AD2B283F8CA202B
:101C100062B60122D7E700213225E2E7641A0020EC
:101C200008B501213A2002F07BF90023072219466A
:101C3000022003F0CDFD002307220521032003F03D
:101C4000C7FD002307221946184603F0C1FD0023F3
:101C500007220321022003F0BBFD002307220421F9
:101C6000022003F0B5FD002307220421032003F026
:101C7000AFFD002307220121032003F0A9FD00236B
:101C800007221946032003F0A3FD002307220221A7
:101C9000032003F09DFD01212E2002F041F90123D4
:101CA0000B220621002003F093FD01230B220521C6
:101CB000002003F08DFD012200230621104603F0D1
:101CC00087FD00F099FC00F06DFC00F05FFD0C4B0F
:101CD0000C4A3421DA620C4A5A600C4ADA640C4A23
:101CE0001A6502220B4BDA725A70DA741A750A4AB4
:101CF0005974536F5B06FCD5BDE8084005F0D7BAB0
:101D000060150020352100080D23000885240008F7
:101D100021220008651C002000C0035072B6002379
:101D2000044A1370044AD370137113705370937084
:101D300062B670472A1C00202B1C002070B5054697
:101D400040B33AB34B1E312B26D8144C207808B937
:101D5000107070BD124B9878884202D2107000202B
:101D6000F7E711709A78521AD2B29A7002B92270BB
:101D7000002432201A781A4452792A551A780134EC
:101D80000132B2FBF0F600FB16221A70E2B28A4270
:101D9000F0D3E4E70120DCE70220DAE72A1C002088
:101DA0002B1C002010B5134C1348237953B905F0B0
:101DB00095FCE07010B10123A070237104220F4B39
:101DC000DA6410BD05F08AFC6378E21850713222A3
:101DD0000133B3FBF2F102FB11336370E378013B93
:101DE000DBB2E370002BE9D101222371044B1A709E
:101DF000E4E700BF2B1C00200000015B0020015B1A
:101E00002A1C002038B5022840F2FF3318BF3F23B8
:101E1000CB40DB0704460D4604D440F22D41054873
:101E200005F0F0FA302001214443034B01FA05F597
:101E30001D5138BDA078000840D0035038B50228A5
:101E400040F2FF3318BF3F23CB40DB0704460D466B
:101E500004D440F2FE31054805F0D4FA30200121C7
:101E60004443034B01FA05F51D5138BDA078000825
:101E700040E00350F0B500234FF0060C1D46194614
:101E8000354A847BDFF8D8E01360071DDEB2B44228
:101E900043D805B111600A25166803697543C3F379
:101EA000CF31C5F3CF35A94253D347F6FE7206EBC7
:101EB0008606C3F30E0302EA460201D1934248D9D3
:101EC000934238BFC2F50042A1EB050189B22EBF93
:101ED0009B1A9B1801F1FF319BB238BF89B2322B9C
:101EE00038BF32231D4A5B009BB291820625D38204
:101EF00094740024917CE3B2994219D8037813704A
:101F000090F914301376437D53761378022B1ED14B
:101F10008088C8B910761076F0BD0CFB03F5067802
:101F20007D5B1EF80660013306FB05110125ADE758
:101F300005FB03018E7802EBC3039E708988013490
:101F40003A3989B29980D5E70123137613760020B8
:101F5000E2E70120E0E700BFB4150020A41B002049
:101F6000651C002013B5B0F5FA7F28D307EE100AE0
:101F7000DFED156ADFED157ABBEEEF7A57EE267AC4
:101F8000FCEEE77A17EE903A40F6FF729BB293426E
:101F900028BF13460E4A1188814212D003241B0128
:101FA0005BBA1080ADF8043002233021982001AADA
:101FB00005F0C5F928B1013CF6D102B010BD0023EF
:101FC000E8E70020F9E700BF0000403D0000FA41CB
:101FD000C01B00201122214B02291A7039D8B0F5FC
:101FE0007A7F38D86422504307EE900ADFED1C6AEE
:101FF000F8EEE77A9FED1B7A17EEA67AFCEEC77A29
:1020000017EE902A03EBC100C2F34F02C2801B7887
:10201000112B01D0002070473420134BF6EE006ADC
:1020200001FB00311A23114A12F8010B013B07EEA4
:10203000900AF8EE677A67EE877A67EEA67AFCEE8A
:10204000E77A17EE900A13F0FF0321F8020BEBD1A9
:10205000E0E7022070470320704700BFA41B002068
:102060000000403D0000FA41381B002008790008BC
:102070000E2836D8DFE800F03108113135191F2855
:102080002B3136393F4446001222204B1021C3F831
:10209000D0201F4AC2F8D0101DE002221C4BC3F80A
:1020A000D020A3F58053042219E00222174BC3F875
:1020B000D020102213E010220221144BC3F8D020AC
:1020C000134AC2F8D010EEE70422114BEFE70222C8
:1020D0000E4BC3F8D020012201E017220C4BC3F8AD
:1020E000D02070470222094BD0E70122084BC3F8E9
:1020F000D0200222F3E71022044BC3F8D020D2E70D
:10210000024BD6E71422014BE9E700BF00D0035091
:1021100000E00350132898BF0222054B83BF0A3802
:1021200080B218801A80188880B200F07DBB00BF92
:10213000341B002038B5364D01210220FFF762FE26
:102140002B78344C132B0FD82378072B0CD8DFE8CF
:1021500003F0040F2229304346553220FFF7DAFFFF
:1021600017222D4BC3F8D02023780133237038BDBC
:102170004FF4FA70FFF7CEFF0222284BC3F8D020AD
:102180001022C3F8D02005F0AAF800BF43F698202B
:10219000FFF7E8FEE8E74620FFF7BCFF0620FFF761
:1021A00067FFE1E74FF4C870FFF7B4FF05F09FF851
:1021B000DAE70422184B3C20C3F8D0201022C3F8E1
:1021C000D0200222A3F58053C3F8D0200122C3F807
:1021D000D020FFF79FFFC7E74FF4BE70E4E741F25E
:1021E0002500FFF797FF17220B4B4FF41670C3F82B
:1021F000D020FFF7B7FE05F076F8B5E741F288305A
:10220000FFF788FF002323702B7801332B70ABE797
:10221000641C00207E1C002000E0035000D003500E
:1022200038B5364D01210220FFF7ECFD2B78344CF8
:10223000132B0FD82378072B0CD8DFE803F0040FFB
:102240002229304346553220FFF764FF17222D4BD9
:10225000C3F8D02023780133237038BD4FF4FA70CF
:10226000FFF758FF0222284BC3F8D0201022C3F8F2
:10227000D02005F034F800BF43F69820FFF772FE37
:10228000E8E74620FFF746FF0A20FFF7F1FEE1E707
:102290004FF4C870FFF73EFF05F029F8DAE7012296
:1022A000184B3C20C3F8D0200222C3F8D0201022C3
:1022B000A3F58053C3F8D0200422C3F8D020FFF741
:1022C00029FFC7E74FF4BE70E4E741F22500FFF7AE
:1022D00021FF17220B4B4FF41670C3F8D020FFF7E5
:1022E00041FE05F000F8B5E741F28830FFF712FF34
:1022F000002323702B7801332B70ABE7631C002085
:102300007D1C002000E0035000D0035038B5574C2E
:102310002378082B27D8DFE803F0050E27343F4B3E
:1023200068799C003220FFF7F5FE1722504BC3F866
:10233000D020012323E04FF4FA70FFF7EBFE0225D3
:1023400010224C4BC3F8D050C3F8D02004F0C7FF84
:1023500000BF494B1A88494B03EBC203D88880B2AF
:10236000FFF700FE257038BD4620FFF7D3FE0121A0
:102370000220FFF747FD0620FFF77AFE03232370B4
:10238000F1E73D4B1A883D4B03EBC203988880B2BE
:10239000FFF7C0FE0423F2E70422354B3C20C3F8CC
:1023A000D0201022C3F8D020FFF7B4FE0523E6E7C3
:1023B000314D04F09CFF2B88304A0133917C9BB255
:1023C0008B422B8007D240F67C00FFF7A3FE04F07F
:1023D0008AFF0623D3E7D08A80B2FFF79BFE002353
:1023E0002B8004F080FF0723C9E71722204B02202F
:1023F0000121C3F8D020FFF721FD04F074FF002075
:10240000FFF7B0FD1C4B1A881C4B1BE01722184B22
:102410000121C3F8D0200220FFF710FD04F063FF74
:102420000020FFF79FFD154B9A8A92B242B19A8A1B
:10243000134B4FF6FF701A80FFF76CFE08239EE7E0
:102440000D4A128803EBC203988880B2FFF762FE40
:102450006FE70B4A1388013B9BB21380002BD1D04E
:10246000BDE838404FF6FF70FFF754BE7F1C0020D8
:1024700000E0035000D00350BE1B0020A41B00202E
:10248000361B002038B5434D01210220FFF7BAFC6E
:102490002B78414C132B19D823780E2B16D8DFE854
:1024A00003F03E46080F192C2F3E46590F5E2C6C48
:1024B0006F004620FFF72EFE0620FFF7D9FD05E04E
:1024C0004FF4C870FFF726FE04F011FF23780133A4
:1024D000237038BD0422314BC3F8D0201022C3F83A
:1024E000D0200222A3F58053C3F8D02001223C2043
:1024F000C3F8D020FFF70EFEE8E74FF4BE70E1E727
:1025000042F24B00FFF706FE1722244B4FF41670E1
:10251000C3F8D020FFF726FD04F0E5FED6E7322011
:10252000FFF7F8FD17221D4BC3F8D020CEE74FF47C
:10253000FA70FFF7EFFD0222194BC3F8D0201022EA
:10254000C3F8D02004F0CBFE00BF43F69820FFF77D
:1025500009FDBBE74620FFF7DDFD0A20ADE70122BC
:102560000E4BC3F8D0200222C3F8D0201022A3F5CE
:102570008053C3F8D0200422B9E741F22500C1E717
:1025800041F28830FFF7C6FD002323702B7801331A
:102590002B709BE7621C00207C1C002000E0035095
:1025A00000D003501FB56C46104B0FCB84E80F00D2
:1025B0000F4B1048D3F84015014041F4A021C3F857
:1025C0004015D3F83C252146024042F4C022C3F80E
:1025D0003C2503224FF0B640C3F8382503F0DAF962
:1025E0004FF0B64310229A6004B010BD2479000861
:1025F00000C00350FCFFF0FF70B592B02C4D08AC4A
:102600000FCD0FC40FCD0FC495E8030084E803007D
:1026100001240026032521462A20CDE90366CDE9C1
:1026200005668DF80E5007968DF808408DF8096004
:102630008DF80A608DF80B6001F072FC21463A209B
:1026400001F06EFC02214FF4B06001F081FF022323
:1026500040F6E4428DF817308DF824508DF8233081
:10266000144D9DF819300B9200933246334628469C
:1026700011498DF821608DF8306003F02BFC412367
:102680000E4A0A908DF809308DF80840D2F82033B0
:10269000284643F48033C2F8203305A908AA03F082
:1026A00071FC284602AA03A903F05CFB12B070BDBE
:1026B00034790008004000598096980000C003500B
:1026C00013B5114C23781BB9FFF796FF0123237034
:1026D00001230E4AD360536903F4A073B3F5807FDE
:1026E000F9D16846094905F03CF840F6FF730098B7
:1026F00000EB800000EB800000EB4010800080B217
:10270000B0FBF3F002B010BD801C00200040005967
:1027100008B5104B984216D003F58043984215D067
:1027200003F58043984211D003F5804398420DD0C1
:1027300003F58043984209D0074840F2D22104F0C3
:1027400061FE002008BD4FF0FF30FBE74FF6FF7041
:10275000F8E700BF008004505C79000838B50D46EA
:102760000446FFF7D5FFA84204D240F2B441064820
:1027700004F048FE236BDB0704D440F2B641024864
:1027800004F040FEE56138BD5C790008F7B500252E
:1027900001212420019501F0C3FB0121252001F036
:1027A000BFFB01231B4C24206373257001F0E4FB65
:1027B0000190242001F0E0FB174F184EB0FBF7F01A
:1027C000013821466080304603F01EFFB3692520A2
:1027D00043F00103B36101F0CFFB0190252001F02C
:1027E000CBFBB0FBF7F065730D4D013860802146DF
:1027F000284603F009FF1022AB6943F00103AB61E7
:10280000084BC3F880211A602022C3F880211A6087
:1028100003B0F0BDC411002040420F0000800450FE
:1028200000C0045000E100E038B502230122044654
:10283000084DEB60084B28465A6104F0ABFDEB698C
:10284000611E994202D02846FFF788FF0123EB6002
:1028500038BD00BF0080045000A0045038B50223EA
:1028600001220446094DEB60094B28465A6104F0E9
:1028700091FD0849EB6961430139994202D028462C
:10288000FFF76CFF0123EB6038BD00BF00C00450B0
:1028900000E0045040420F0008B5054B93F8682053
:1028A000044B53F8223098470122034B5A6108BD6C
:1028B000E01400206015002000A0045030B589B05D
:1028C00072B66C4601215620204D01F029FB0121F2
:1028D0003A2001F025FB0FCD0FC495E80F0084E8E6
:1028E0000F004FF44073ADF80E304FF44053022206
:1028F000ADF8103007210123002002F069FF012309
:1029000004220821002002F063FF4FF40022104B44
:10291000104CC3F8DC244FF4E022C3F8D424142272
:102920006946C3F8C424204602F03CFE00220A4B4C
:1029300083F80B234FF40062C3F880211A6004234C
:1029400004F58054236562B609B030BDC87900082B
:1029500000C003500000015B00E100E070B578B1F9
:1029600009B9002070BD0139064E451E50FA81F4A8
:1029700015F8011F304604F0C5FEA542F8D1F0E776
:102980000120EFE70000015B10B5224C04F058FE77
:10299000236F23F0070343F00203236704F05BFE79
:1029A000D4F82031002023F0070343F00103C4F8DA
:1029B0002031D4F8283123F0070343F00103C4F891
:1029C0002831D4F8403123F0030343F00103C4F865
:1029D0004031D4F8603123F0030343F00103C4F81D
:1029E0006031D4F8403223F0030343F00103C4F80C
:1029F0004032D4F8003223F0070343F00103C4F857
:102A00000032D4F8083223F0070343F00103C4F87E
:102A1000083210BD0080005010B54FF480301A49C4
:102A20001A4A4B6E5066486E4FF000414AF6CD345C
:102A30005166174903F480334A6C0C6402F00102BA
:102A40004C6BE407FCD4012412494C60A1F5005101
:102A50000C6BE407FCD50AB10F4A0A640028A2BF38
:102A60004FF000410D4A51661BB94FF480320B4BB9
:102A70005A6603F0E5FF03F0BDFFFFF785FFBDE8F1
:102A8000104003F0CBBF00BF00800050009000500A
:102A900000400950006009503254FFFF00A0005070
:102AA000024B0349186800F08DBA00BF00100020E7
:102AB0000410002018B1034B186000207047252037
:102AC000704700BF9C16002010B5054C05492068D2
:102AD00000F02AFE2068BDE81040FFF7EBBF00BF02
:102AE00024100020281100200348044A0449121A27
:102AF000921004F074BC00BFF0810008F08100085F
:102B0000881C002008B500F02FF8FFF7EDFF124BEE
:102B100012498B4212D30020114B12498B4218D319
:102B2000FDF74AFB186850F82240586840F82240E8
:102B3000013298688242F5D30C33EAE70022F8E7C5
:102B40001C6844F8220001325C68A242F8D30833C2
:102B5000E4E70022F8E700BF0C7E0008187E0008BA
:102B6000187E0008187E000810B54FF480414FF021
:102B7000FF30114B114A9A60D3F8882042F470025A
:102B8000C3F888200E4A91660E4901F5005210667E
:102B90000D4850660220C3F8D000BFF34F8FBFF33B
:102BA0006F8F01244FF440330848C0F88041D36050
:102BB00004600B6110BD00BF00ED00E000000008E4
:102BC00000900050008000447FFF7F0100E100E0A2
:102BD000014B1868704700BF58110020084B1B6F4D
:102BE00003F00703022B04D0032B05D0012B05D0E3
:102BF000FEE7044B18687047034BFBE70348704738
:102C000000800050581100205C110020002D31017F
:102C100008B5FFF7E3FF054B1B6FC3F30333013325
:102C2000B0FBF3F0024B186008BD00BF00800050FD
:102C3000541100200048704700B4C404014B1868C8
:102C4000704700BF5C11002000487047002D310123
:102C50004FF0B4439868C0F304400C2822D8DFE852
:102C600000F0092121212121071719211B1D1F0017
:102C70000F4870479B6803F04073B3F1807F13D017
:102C8000B3F1007F12D00B4A002B08BF10467047EB
:102C90000948704709487047094870470948704714
:102CA0000948704700207047084870470848704737
:102CB000405DC60000093D000024F400C0EA210187
:102CC00080BA8C010048E801005A620280841E002C
:102CD00040420F00014B1868704700BF6011002090
:102CE00038B5124B05461B78DBB1E0B104F0CDFCE2
:102CF0000F4A00231146147B54B92B6001251A0199
:102D000001EB03131D738C5004F0C5FC204638BD45
:102D10000133082B02F11002EDD104F0BCFC054890
:102D2000F5E70548F3E70548F1E700BF811C0020FF
:102D3000A0160020048000F0028000F0018000F066
:102D400013B5154B1868002301908DF8043004F07A
:102D50009CFC124B1C7824B104F09DFC104802B07E
:102D600010BD01221A7004F096FC0E4B01A81C73D2
:102D70001C7783F82C4083F83C4083F84C4083F860
:102D80005C4083F86C4083F87C4008238DF8073062
:102D900003F0B4FB2046E2E7E8790008811C00203C
:102DA000038000F0A016002008B50A4A12785AB134
:102DB00007280BD8084A02EB00131B7B43B1002104
:102DC00003F07AFB002008BD0448FCE70448FAE75A
:102DD0000448F8E7811C0020A0160020028000F0C3
:102DE000018000F0078000F008B50A4A12785AB155
:102DF00007280BD8084A02EB00131B7B43B10121C3
:102E000003F05AFB002008BD0448FCE70448FAE739
:102E10000448F8E7811C0020A0160020028000F082
:102E2000018000F0078000F00E4B1B789BB1072853
:102E300013D891B10C4B03EB00131B7B7BB10B4BF5
:102E4000DB6A23FA00F010F001001DBF012300200F
:102E50000B70087070470648704706487047064870
:102E6000704700BF811C0020A01600200000045005
:102E7000028000F0018000F0078000F02DE9F843A7
:102E8000174B1F6D5B6D1F4000D5FEE70126002527
:102E9000144CDFF85480DFF85490374217D0236881
:102EA000C8F850609BB1A168284601316268A160F2
:102EB0009847637B012B0AD148B909EB45131A7B6C
:102EC00060F341021A731A7F60F341021A770135E9
:102ED000082D4FEA460604F11004DED1BDE8F88360
:102EE00000000450A01600200020045020170020ED
:102EF00070B5012504460B4E04B970BD94FAA4F0D8
:102F0000B0FA80F005FA00F306EB001224EA03049D
:102F10005368002BF0D0117B11B191689847EBE713
:102F20009847E9E72018002008B51A2001F022FE92
:102F300028B14FF08062074BC3F880211A601B2034
:102F400001F018FE28B14FF00062024BC3F8802157
:102F50001A6008BD00E100E038B505460C4604F0F3
:102F600094FB0022044B03EB05135C601A73BDE86D
:102F7000384004F090BB00BF20180020074BD3F866
:102F80002404D3F8202403F50053104000F05530FA
:102F900020F05020C3F82004FFF7AABF00C0035060
:102FA000074BD3F82404D3F8202403F50053104032
:102FB00000F0AA3020F0A020C3F82004FFF798BF4B
:102FC00000C003502DE9F0418EB0B64A0B680546AB
:102FD00093420C460DF1180807D0B34A934204D02F
:102FE00002F58042934240F0DB804746AF4ECDF879
:102FF00014800FCE0FC796E80F00103687E80F0039
:103000000FCE01AF0FC7002D00F091810026842262
:103010000021284604F0FDFB2368A24AAE659342D6
:1030200040F0928056222A654FF48012A04FC5E9E5
:103030000B722B600123A44685F85C302F1DBCE881
:103040000F000FC79CE80F0087E80F00637E012B7D
:1030500008BF8DF81D30A37E002B40F09280227EA9
:103060008DF81230012AE36840F096809149059A64
:103070008B428CBF04230523537700238DF8113036
:103080008D4B01213A20039300F04AFF0121286D66
:1030900000F046FF2369DA1F092A64D8063B8DF841
:1030A0001030237E2BB9E37EB3FA83F35B098DF8EE
:1030B0001C300121284604F0A7F9002854D1237AB6
:1030C000217941EA03417D4B03EB4612C2F8DC143F
:1030D000607A617941EA0041C2F8D414A07AA179FA
:1030E00041EA0041C2F8D814E27E002A40F0218172
:1030F000E27AE379760106F1A04643EA024306F557
:103100007036C6F8C8341D23C6F8C434206801A937
:1031100001F0E4FF04F0B9FA694B1A78002A40F094
:10312000FB8001221A7004F0B6FA03F02FFDFFF7BE
:1031300007FE002105F12400FFF7D2FD014600281B
:1031400000F0ED805F480FE0574A934208D15722C4
:103150002A654FF488125C490126C5E90B1268E71D
:103160005A4A934203D05A480EB0BDE8F081582223
:103170002A654FF49012DFF868C10226C5E90BC238
:1031800057E7012B01D1042369E7022B3FF467AF16
:10319000032BE8D1062362E700228DF8342070E784
:1031A00046464C4F0FCF0FC697E8070086E807004A
:1031B000002D00F0BC8084220021284604F029FB69
:1031C000002322684449AB658A42CCD12921296574
:1031D0004FF480212746414E85F85C30C5E90B61EC
:1031E0002E1D2A600FCF0FC697E80F0086E80F004C
:1031F000637E012B08BF8DF82630A37E002B71D192
:10320000ADF82830237E0121012B03BF00238DF868
:1032100025304FF4E133E3683A20089300F080FE54
:103220000121286D00F07CFE23691A1F0C2A9AD810
:10323000033B414620688DF8243003F09FFAA369D0
:1032400023F47F0323F47F4323B92A68936843F46C
:1032500080339360237A2079617940EA0340637A6E
:10326000A27941EA0341E67EA37A42EA0342134B84
:10327000002E47D11D26C3F89867C3F8B007C3F8DE
:10328000A817C3F8AC27E17AE27942EA0142C3F811
:103290009C270121284604F0B7F800287FF464AF8A
:1032A00038E700BF0000015B00000A50EC7900081D
:1032B000010010003F4B4C0040420F0000C0035083
:1032C000821C0020092000F00100110000400A507B
:1032D000022000F0207A000800C00550020004001F
:1032E00001001200012B02D14FF4007388E7022B7A
:1032F00002D14FF4807383E7032B7FF434AF4FF494
:1033000040737DE71C24C3F89847C3F8B007C3F89F
:10331000A817C3F8AC27BCE704F0BDF907E705F12F
:103320002800FFF7DDFC00283FF41EAF0AE7044841
:103330001AE7263603EB46161C237360E6E600BF49
:10334000012000F038B141B1013AB2F5006F0448F4
:1033500038BF00207047034870470148704700BFDE
:10336000037000F0027000F038B50D460446B0B1AD
:10337000012817D0022817D0032803D13F23EB40A0
:10338000DB0704D440F2FE31094804F03BF830205A
:1033900001214443074B01FA05F51D5138BD40F2A8
:1033A000FF13ECE77F23EAE740F2FF33E7E700BFD4
:1033B000A078000840E0035038B50D460446B0B18F
:1033C000012817D0022817D0032803D13F23EB4050
:1033D000DB0704D440F22D41094804F013F83020F3
:1033E00001214443074B01FA05F51D5138BD40F258
:1033F000FF13ECE77F23EAE740F2FF33E7E700BF84
:10340000A078000840D0035030B51049104A0B781E
:103410002BB9C2E90033C2E9023301230B700C4C13
:103420000023214651F8045B854208D00133042B68
:10343000F8D1002154F8043B1BB942F821000020C8
:1034400003E001310429F5D1024830BD831C00207E
:10345000201A0020027000F038B590F83530022BA9
:1034600027D1447F90F82150DCB1012C1CD0022CD4
:103470001CD0032C03D13F23EB40DB0704D440F2E4
:10348000CF310D4803F0BEFF3023142213FB042478
:1034900003F1A04303F57033E058E84000F0010069
:1034A00038BD40F2FF13E7E77F23E5E740F2FF3343
:1034B000E2E70020F4E700BFA078000813B500237E
:1034C0001D4A52F8044B94F8211081420ED001336A
:1034D000042BF6D102B010BD0028FBD19DF80730B7
:1034E000002BF7D0A068FFF75FFCF3E794F83530C6
:1034F000022BEFD12046FFF7AFFF637E2076022B31
:10350000E8D194F8323003F0FF02002BE2D1A0683A
:103510000DF107018DF80720FFF786FC237E1BB114
:1035200094F83330002BD7D00023A06884F83330D0
:10353000FFF75AFCCEE700BF201A002010B5044662
:10354000FFF7FEFB002104F10800FFF7C9FB01466D
:1035500020B904F10C00FFF7C3FB00B1004810BD17
:103560000E7000F010B590F83630044683B904228E
:1035700003685A619A699207FCD541F2987210214A
:1035800023795B0103F1A04303F57033995010BD1B
:10359000022BFCD10068836CDB074CBF05210621A0
:1035A00001F070FC2279034B5201134410225A603F
:1035B000EDE700BFC0D40350F8B507460D461646E8
:1035C000FFF7C0FE002870D1162001F0EDFA044686
:1035D000FA6A93889BB213B197F83230E3B197F847
:1035E0003630F3B93B689C6904F002041CB93846D4
:1035F000FFF7B8FF0024012387F8343097F83630FE
:10360000FBB92E44B542386816D183699A06FCD5B9
:103610004CB300242046F8BD002CDAD0FFF72EFC76
:10362000D6E7022B02D13B689C6CDDE740F6A12176
:103630001F4803F0E7FEDAE715F8011B04F0A0F8D5
:10364000E0E7022BE4D12E44B542386806D142F2BD
:103650002003826C33EA0202FBD1D9E715F8011B83
:1036600004F050F8F0E797F836306BB942F29872F0
:1036700010213B795B0103F1A04303F570339950AE
:1036800008223B685A61C5E7022BC3D13868836CB6
:10369000DB074CBF0921214601F0F4FB3A79054BC9
:1036A0005201134410225A60B4E70446B2E700BF47
:1036B0003C7A0008C0E4035010B5044680B190F88D
:1036C00032302BB9FFF7C8FE10B9A068FFF76CFBCA
:1036D000002094F832300133DBB284F8323010BD70
:1036E0000048FCE7027000F010B50446A0B190F865
:1036F00032309BB190F83230012B05D1FFF7ACFE90
:1037000010B9A068FFF770FB002094F83230013B3D
:10371000DBB284F8323010BD0148FCE70148FAE71B
:10372000027000F0057000F02DE9F0438FB0044600
:10373000864F06AE0D460FCF0FC697E80F0086E8FE
:103740000F0018220021684604F063F8002C00F0F6
:10375000FB8025B97E4E30460FB0BDE8F083602275
:103760000021204604F055F82B68204623600223F0
:1037700084F836302B7C2371FFF746FE064600287E
:10378000E9D12B7F734A84F835302B68934240F09F
:10379000AB8056236362704B23614FF48013D5E9ED
:1037A000091263610023A16284F831303A2084F861
:1037B00030300B804B808B8084F83030E262012106
:1037C00013805380938084F8313084F8333000F0D4
:1037D000A7FB0121606A00F0A3FB2B795F4E002B51
:1037E00000F097800121362000F09AFBD6F82032B5
:1037F00023F0070343F003031021C6F820322B7C8B
:10380000574F03F1260207EB421251602E7BA87B33
:1038100007EB431346EA0042C3F8DC24697BEA7BEA
:1038200041EA024CC3F8D4C4E676E077217784F805
:1038300020206B7F01216377AB7F204684F8213005
:10384000EB7FA37795F8203084F8223003F047FE11
:10385000064600287FF47FAFAB684FF0020908935B
:103860006B8A8DF82590ADF82830AB8ACDF834D02E
:10387000ADF82630AB7D8DF82430AB690B93012376
:10388000ADF8063003F001FF297F8046032947D1B8
:103890002A7C02F1A60307EB431307EB421741F220
:1038A000D042C3F8049095F82000EB7F43EA004330
:1038B000BB50AA7F6B7F43EA024341F2CC42BB502C
:1038C0008DF8001006238DF818302B79286806A98A
:1038D000002B36D001F00CFE2046FFF72FFE0646E7
:1038E000404603F0D8FE36E71E4A934206D15723DE
:1038F00063621D4B23614FF4881350E71B4A9342C8
:103900007FF428AF58236362194B23614FF490135F
:1039100045E7D6F8203223F0070343F001036BE7B5
:103920000229CFD194F821001249FFF715FBFFF7C8
:10393000FBFA4FF4007320462383A67603F03FFE84
:10394000C0E701F02FFEC7E70B4E04E7907A0008AE
:10395000037000F00000015B0100100000800050C7
:1039600000C0035000000A500100110000400A503E
:1039700001001200BD340008027000F0044BD3F8BF
:103980008420D206FBD4D3F88400C0F381107047A2
:103990000040005038B51A4B0546D3F820010C46BC
:1039A00000F00700062821D8DFE800F028040C14F6
:1039B00010181C00FFF70CF9052305B1286004B1AD
:1039C000236038BDFFF73AF90323F6E7FFF740F924
:1039D0000723F2E7FFF738F90223EEE7FFF7F8F8DD
:1039E0000623EAE7FFF72AF90423E6E7054841F250
:1039F0005C2103F007FD00231846DEE70123DCE726
:103A000000800050B07A000838B5194B0546D3F84D
:103A100028310C4603F00703013B052B20D8DFE8D3
:103A200003F003131B0F0B17FFF7D2F8052305B1A3
:103A3000286004B1236038BDFFF7CAF80623F6E713
:103A4000FFF706F90723F2E7FFF7F8F80323EEE79D
:103A5000FFF7F4F80423EAE7FFF7F6F80223E6E7B6
:103A6000044841F2640103F0CDFC00231846DEE770
:103A700000800050B07A0008F7B50027144B01977A
:103A8000D3F88041064604F00304022C0D4614D0FE
:103A9000032C0DD0012C14D1394601A8FFF77AFF71
:103AA0000F240EB1019B336005B12C6003B0F0BD53
:103AB000FFF7CEF807240190F3E7FFF7C5F8019070
:103AC000EFE741F2B131034803F09CFC3C46E8E7E4
:103AD00000800050B07A000838B50F4B0546D3F887
:103AE00090320C4603F00303012B09D0022B0BD1BB
:103AF000FFF7AEF8072305B1286004B1236038BD95
:103B0000FFF7A2F80223F6E7044841F2501103F050
:103B100079FC00231846EEE700800050B07A0008D8
:103B200037B500230193194B0546D3F820320C46D4
:103B300003F00703042B1FD8DFE803F025030F145D
:103B40001900002101A8FFF75FFF11230DB1019AB1
:103B50002A6004B1236003B030BDFFF779F8072372
:103B60000190F3E703F048FC0A230190EEE7FFF72A
:103B7000B1F809230190E9E741F22301044803F079
:103B800041FC0023E2E70123E0E700BF0080005092
:103B9000B07A000838B5104B0546D3F840310C46D2
:103BA00003F00303022B0BD0032B0DD0012B0FD1FD
:103BB00003F022FC0A2305B1286004B1236038BD5C
:103BC000FFF788F80923F6E703F019FC0B23F2E767
:103BD00001230020EFE700BF0080005037B500232D
:103BE0000193184B0546D3F860320C4603F00703E7
:103BF000013B032B1FD8DFE803F0020E191400214C
:103C000001A8FFF7C7FE0F230DB1019A2A6004B186
:103C1000236003B030BD002101A8FFF7BBFF1023D4
:103C2000F2E7FFF715F807230190EDE7FFF70CF82F
:103C300002230190E8E741F2C801034803F0E2FBE8
:103C40000023E1E700800050B07A000873B500243B
:103C50000F4B0194D3F87032064603F00303012B97
:103C60000D4607D0022B11D041F22611094803F06E
:103C7000C9FB04E0214601A8FFF78CFF10240EB118
:103C8000019B336005B12C6002B070BD1424F6E7CF
:103C900000800050B07A000838B5164B0546D3F8BE
:103CA00000020C4600F00700042819D8DFE800F0F5
:103CB00020030B0F130003F09FFB0A2305B12860BC
:103CC00004B1236038BDFFF705F80923F6E703F0D8
:103CD00096FB0B23F2E7FEF79BFF0E23800AEDE72E
:103CE000054841F26F4103F08DFB00231846E5E7DC
:103CF0000123E3E700800050B07A000838B5164B86
:103D00000546D3F808020C4600F00700042819D82D
:103D1000DFE800F020030B0F130003F06DFB0A2314
:103D200005B1286004B1236038BDFEF7D3FF092335
:103D3000F6E703F064FB0B23F2E7FEF769FF0E23BF
:103D4000800AEDE7054841F2A74103F05BFB002341
:103D50001846E5E70123E3E700800050B07A000849
:103D600038B5104B0546D3F840320C4603F0030338
:103D7000022B0BD0032B0DD0012B0FD103F03CFBFA
:103D80000A2305B1286004B1236038BDFEF7A2FF05
:103D90000923F6E703F033FB0B23F2E701230020AE
:103DA000EFE700BF0080005038B5124B0546D3F84E
:103DB00050320C4603F00303022B0FD0032B05D027
:103DC000012B0FD103F018FB0A2302E003F017FBCD
:103DD0000B2305B1286004B1236038BDFEF77AFFDC
:103DE0000923F6E7044841F2940103F00BFB00239A
:103DF0001846EEE700800050B07A000838B5104B46
:103E00000546D3F860310C4603F00303022B0BD0B8
:103E1000032B0DD0012B0FD103F0EEFA0A2305B1CD
:103E2000286004B1236038BDFEF754FF0923F6E78C
:103E300003F0E5FA0B23F2E701230020EFE700BFD0
:103E40000080005010B5B0F5207F34D009D8B0F50F
:103E5000007F2AD003D898B1B0F5C07F10D00024DD
:103E600021E0B0F5607FFAD1154BD3F88030C3F371
:103E700001149B0617D5032C15D040F295210FE0B5
:103E80000F4B1C6F230B13F00E0FC4F303340AD037
:103E9000032C08D0072C06D00F2C04D040F285212B
:103EA000084803F0AFFA601C10BD054BD3F89040F2
:103EB000C4F30464F7E7024B1C6FC4F38024F2E7F9
:103EC00000800050B07A000838B54FF48032104BB3
:103ED00004469A6600200D46FFF7B4FF41F67132A2
:103EE0000C4B6043DC69DA635A6804F4803422F4D2
:103EF00040125DB9084988428CBF4FF48010002001
:103F0000104358600CB10022DA6338BD0349F2E770
:103F10000090005000000350005A6202002D310151
:103F200070B5440905460E460ED140F22F310F48B8
:103F300003F068FA05F01F05AEB104F580530120C7
:103F400000FA05F51D6070BD012C08D0022C08D0C8
:103F500040F23D31054803F055FA0024EAE7044CED
:103F6000E8E7044CE6E704F50053E8E7B07A000818
:103F7000648000506880005030B585B00021B0F5F5
:103F8000807F0446019100F0F38066D858285CD801
:103F900058285CD8DFE810F071005B005B005B0024
:103FA0005B005B005B005B005B005B005B005B0039
:103FB0005B005B005B005B005B005B005B005B0029
:103FC0005B005B005B005B005B005B005B005B0019
:103FD0005B005B005B005B007100CF005B00CF000B
:103FE000E200E200E200E200E200CF00E7007A0037
:103FF000FD009A007A00CF00CF00CF005B005B008D
:104000005B005B005B005B005B00FD00CF00CF004E
:10401000CF0015010201CF005B005B005B005B007D
:104020005B005B005B005B005B005B005B005B00B8
:104030000701E200710071007100AD007A007A00A2
:10404000B5000C018F00C400C40080286DD040F280
:1040500094415E4803F0D6F96AE0B0F5E06F00F0F5
:104060009D8038D8B0F5607F6FD01AD8B0F5007F4A
:104070006BD005D8B0F5C07FE9D1FEF7C9FD56E099
:10408000B0F5207F57D0B0F5407FE0D1FEF7C0FDFE
:1040900004464FF42070FFF7D5FEB4FBF0F0400863
:1040A00045E0B0F5B06F5ED00AD8B0F5806F55D05E
:1040B000B0F5A06FCBD1002101A8FFF731FD37E0AB
:1040C000B0F5C06F65D0B0F5D06FC0D1002101A8A8
:1040D000FFF7E2FD2CE0B0F5286F69D016D8B0F5F7
:1040E000186F60D00AD8B0F5F06F6AD0B0F5106FD5
:1040F000ADD1002101A8FFF701FE19E0B0F5206F56
:10410000A5D1002101A8FFF769FD11E0B0F5306FDE
:1041100053D09CD3B0F5386F3BD0B0F5406F96D1FB
:10412000002101A8FFF770FC02E0FEF757FD0190A7
:10413000019805B030BDFEF76BFD04464FF42070CA
:10414000FFF780FEB4FBF0F0F1E7FEF747FD054610
:104150002046FFF777FEB5FBF0F0E8E7002101A865
:10416000FFF718FCE4E7002101A8FFF785FCDFE773
:104170004FF0E02302911B695B0705D5FEF748FD70
:104180000290029B0193D3E703A902A8FFF702FD67
:10419000F7E7002101A8FFF7FDFCC9E7002101A80E
:1041A000FFF7DEFDC4E7002101A8FFF7FDFDBFE733
:1041B000002101A8FFF74AFDBAE701A8FFF78CFC30
:1041C000B6E7002101A8FFF719FEB1E7B07A0008B1
:1041D0001FB50023B0F5807F019300F0D68076D81C
:1041E000582867D8382805D82438092848D940F2F3
:1041F0007951BEE039381F28F9D801A353F820F0CF
:10420000AD430008EF410008EF410008EF4100080E
:10421000B7430008FD430008EF410008EF410008E4
:10422000EF410008EF410008EF410008EF410008AE
:10423000EF410008EF410008EF410008EF4100089E
:10424000EF410008EF410008EF4100080744000873
:10425000F5420008EF410008EF410008EF41000877
:1042600039430008EF410008EF41000811440008FD
:104270001B440008F34300085B4300085B4300084D
:104280000928B4D801A353F820F000BFF542000874
:10429000F5420008F5420008F5420008F542000822
:1042A000EF4100087B430008EF410008AD430008E0
:1042B0001343000880289AD15D4B1B6F03F007035E
:1042C000013B032B53D8DFE803F0504D8890B0F545
:1042D000086F75D022D8B0F5C06F67D00FD8B0F591
:1042E000A06F00F08680B0F5B06F46D0B0F5806F5B
:1042F0007FF47DAF002001A9FFF74CFB41E0B0F552
:10430000E06F7BD0B0F5F06F55D0B0F5D06F7FF493
:104310006EAF002001A9FFF7BFFC32E0B0F5286FB7
:104320007BD00ED8B0F5186F6DD0B0F5206F6FD080
:10433000B0F5106F7FF45BAF002001A9FFF7DEFC42
:104340001FE0B0F5306F6DD0FFF451AFB0F5386FAE
:104350002CD0B0F5406F7FF44AAF002001A9FFF7E1
:1043600053FB0EE0052301930BE00223FBE740F231
:10437000C641304803F046F803E0002001A9FFF7EA
:104380007BFB019805B05DF804FB02934FF0E0233E
:104390001B695B0705D5FEF73BFC0C230393039BCE
:1043A000E1E703A902A8FFF7F5FBF8E7002001A960
:1043B000FFF7F0FBE5E7002001A9FFF71FFDE0E7AD
:1043C0001B4BD3F8003103F00303022B07D0032B60
:1043D00009D0012B0BD1FEF731FC0323C3E7FEF715
:1043E00079FC0923BFE703F005F80823BBE70123A5
:1043F000B9E7002001A9FFF793FBC2E7002001A95C
:10440000FFF7AEFCBDE7002001A9FFF7CDFCB8E740
:10441000002001A9FFF7E2FBB3E7002001A9FFF7A5
:1044200015FCAEE7184601A9FFF756FBA9E700BF48
:1044300000800050B07A000810B5B0F5207F5FD042
:104440000ED8B0F5007F49D003D800B3B0F5C07FD7
:104450001DD040F21231BDE81040314802F0D2BF09
:10446000B0F5607FF5D14C1E012C06D9042904D08B
:104470004FF43D712A4802F0C5FF2A4AD2F8803035
:1044800023F0300343EA0413C2F8803010BD102932
:1044900001F1FF3404D8244B23FA01F1CB0704D4F3
:1044A00040F2C7211E4802F0ADFF03F0B6F803F05A
:1044B000C2F81C4A136F23F4704343EA04331367B2
:1044C000FEF7A6FB0446FFF759FAC0F102012046A9
:1044D00003F0ABF8BDE8104000F028B84C1E1F2CCC
:1044E00004D940F206310E4802F08CFF0D4BD3F890
:1044F000901021F0F85141EA0461C3F89010C5E72B
:104500004C1E012C04D94FF44371054802F07AFF88
:10451000044B196F21F4806141EA84211967B5E7E2
:10452000B07A0008008000501601010008B54FF471
:10453000C070FFF721FDBDE80840044988428CBFE8
:10454000022101214FF42070FFF776BF80F0FA02BC
:1045500070B5B0F5807F0C4600F0688176D8582899
:1045600068D8382805D82438092849D940F6421196
:104570007EE139381F28F9D801A353F820F000BF95
:10458000A74800086D4500086D4500086D45000806
:10459000E74800083F4A00086D4500086D450008DF
:1045A0006D4500086D4500086D4500086D45000823
:1045B0006D4500086D4500086D4500086D45000813
:1045C0006D4500086D4500086D4500087F4A0008EC
:1045D000794600086D4500086D4500086D450008E6
:1045E000F94600086D4500086D450008A94A000815
:1045F000E94A0008E54900083D4700083D47000832
:104600000928B3D801A353F820F000BF7946000869
:10461000794600087946000879460008794600087E
:104620006D450008ED4700086D450008A7480008E3
:10463000AF460008802899D18B1E062B00F2CB8054
:10464000DFE803F0C6B7C9D1C9C98B00B0F5086F60
:1046500000F0A9813FD8B0F5C06F00F024811AD8CE
:10466000B0F5A06F00F0BE81B0F5B06F00F0BE8075
:10467000B0F5806F7FF47AAF013C062C00F2CF805A
:10468000A34B195DA34AD2F8203123F007030B4353
:10469000C2F820318CE0B0F5E06F00F0D081B0F5C9
:1046A000F06F00F02081B0F5D06F7FF45FAF013C78
:1046B0000D2C00F25881DFE814F05B015601560121
:1046C0005601560156015601560148015D0152013D
:1046D000560156015401B0F5286F00F005821FD82D
:1046E000B0F5186F00F0CB81B0F5206F00F0DC81E1
:1046F000B0F5106F7FF43AAF013C0D2C00F24A8107
:10470000DFE814F04D014801480148014801480123
:10471000480148013A014F0144014801480146015E
:10472000B0F5306F00F0F781FFF420AFB0F5386FCF
:1047300000F0B980B0F5406F7FF418AF023C052C53
:1047400000F27681744B195D724AD2F8283123F059
:1047500007030B43C2F828312AE000250426012173
:10476000022000F069FA02F058FF02F064FF694A83
:10477000136F23F0070333431367FEF749FA064626
:10478000FFF7FCF8C0F10201304602F04EFF0121B4
:10479000002000F0A9FAFFF7C9FE4DB9032C07D19C
:1047A0004FF480325D4B9A625D4A936D5800FCD4A1
:1047B00070BD4FF480125B4B0E465A664FF4803248
:1047C000574B9D6A03F58053C5F300659A62C6E7AF
:1047D00000250126C3E7002540F23161524802F06E
:1047E00011FE2E46BBE700250226B8E7072C12D0A3
:1047F0000F2C12D0022C05D040F27A614A4802F008
:1048000001FE0024434BD3F8801121F003010C4337
:10481000C3F88041CCE70324F4E70124F2E740F237
:10482000B961414802F0EEFD00212BE70C2924D0AC
:104830001AD8A1F10904022C18D84FF48032354B54
:104840003A49586E03F580535A664B6A43F00103A8
:104850004B62C1035CBF364B5A664FF0E0221369CE
:1048600023F004031361A3E71029E6D040F2E161CD
:10487000BDE870402C4802F0C5BD4FF48032254B96
:104880002A49586E03F580535A664B6A23F0010398
:104890004B62C3035CBF264B5A664FF0E02213699C
:1048A00043F00403DEE7013C0A2C13D8DFE804F0F0
:1048B00017121212121212120619100002221549B2
:1048C000D1F8403123F003031343C1F840316FE7BF
:1048D0000322F4E740F20171134802F093FD002235
:1048E000EDE70122EBE7013C0A2C25D8DFE804F0D4
:1048F0002924242424242424062B220002220549CE
:10490000D1F8603123F003031343C1F860314FE75E
:10491000DF7A000800800050E67A00080060005A44
:104920000040005A00900050B07A000800C00750C4
:1049300000A000500322E2E740F22371814802F018
:1049400061FD0022DBE70122D9E702237E49D1F88D
:10495000002222F007021343C1F8003228E70323A4
:10496000F4E70423F2E74FF4EE61764802F04AFDE3
:104970000023EBE70123E9E702237349D1F808227A
:1049800022F007021343C1F8083211E70323F4E7CA
:104990000423F2E740F294716A4802F033FD0023E9
:1049A000EBE70123E9E74C1E082C12D8DFE804F0FE
:1049B000161118111111110F050002226249D1F8C8
:1049C000003123F003031343C1F80031F0E6032262
:1049D000F4E74FF4F6615B4802F014FD0022EDE7C6
:1049E0000122EBE7012C1FD0073C0A2C17D80A2C18
:1049F00015D8DFE804F0061412101414141414145B
:104A00001B0002235049D1F8202222F00702134351
:104A1000C1F82032CCE60323F4E70423F2E740F6A2
:104A20003D01484802F0EEFC0023EBE70123E9E7F3
:104A300040F66E01434802F0E5FC002184E6013CAB
:104A40000A2C13D8DFE804F01712121212121212F5
:104A50000619100002223C49D1F8403223F003032A
:104A60001343C1F84032A3E60322F4E740F6AC0159
:104A7000344802F0C7FC0022EDE70122EBE7093CD5
:104A8000022C0AD8314B195D2F4AD2F8503223F04C
:104A900003030B43C2F850328AE640F6C8012948A6
:104AA00002F0B0FC0021EFE70F2C17D012D8022C37
:104AB00016D0072C16D040F6E201224802F0A2FCE4
:104AC00000222149D1F8603223F007031343C1F8D3
:104AD00060326DE6102CEED10222F2E70122F0E7FF
:104AE0000322EEE70422ECE7102C10D0142C10D097
:104AF0004FF41161134802F085FC00221249D1F8ED
:104B0000703223F003031343C1F8703250E60122E0
:104B1000F4E70222F2E7022910D0072910D040F66C
:104B20002311084802F06EFC00220749D1F89032A8
:104B300023F003031343C1F8903239E60122F4E76E
:104B40000222F2E7B07A000800800050EC7A0008F8
:104B50000028ABBF00F16040054B00F5614000F05C
:104B60000F00ACBF90F80003185C0009704700BF4D
:104B700014ED00E038B5C5B24B2D044604D94FF40E
:104B80004D71074802F03EFC064B640953F82400BF
:104B900005F01F05E840C04300F0010038BD00BF2C
:104BA000EF7A000800E100E010B500F10C03DBB281
:104BB000572B044604D940F2C221144802F022FCCB
:104BC000EFF31083DB0702D50122104610BD20460B
:104BD000FFF7D0FF02460028F6D12046FFF7B8FFC6
:104BE0000146EFF3118313B1B0EB131FECD2084B66
:104BF0005B68C3F30803002BE7D0103B58B2FFF704
:104C0000A7FF88428CBF00220122DEE7EF7A00086E
:104C100000ED00E0024A536B0342FCD1704700BF35
:104C200000400950034A0179D36E23F030030B434F
:104C3000D3667047004000502DE9F0410446264BF2
:104C4000D3F88420D006FBD4D3F88430C3F3811387
:104C50009C423ED0FDF7C2FF012C05460BD11F4BF5
:104C6000984204D940F281711D4802F0CBFB01212A
:104C7000284602F0DAFC02F001FD4FF00072194BF9
:104C800007465A66204602F009FD4FF48063124E33
:104C9000621E9340DFF848803367736E9A0103D435
:104CA000D6F884309B060AD5384602F0EBFC022C7D
:104CB0000FD12846BDE8F041002102F0B6BCD6F87D
:104CC00084309906E9D540F28F71404602F09AFB94
:104CD000E3E7BDE8F08100BF00400050005A6202E7
:104CE0001F7B00080060005007B518B90191FDF75F
:104CF00075FF0199064B1B7843B1064B984205D8C6
:104D0000012003B05DF804EBFFF796BF0220F8E73F
:104D1000841C0020005A620238B54FF00042244B38
:104D2000244C5A664AF6CD33656C014605F0010500
:104D3000236430BB0120FFF76DFF6368DB0708D4F5
:104D4000002415B11B4B1C4A1A6402F0A8FC204633
:104D500038BD1A4B58600846194B226BD20705D450
:104D6000984201D10724ECE70130F6E79842E7D1F9
:104D7000F8E70132236B13F0080305D08A42F8D11B
:104D8000F0E700220E49F5E78A42EBD020210B4ADA
:104D900091620121A2F5805251600649084A886A51
:104DA000800603D49342DDD00133F8E79342DEE777
:104DB00000900050004009503254FFFF006009503D
:104DC00040420F0038B54FF00042164B01465A667C
:104DD0004AF6CD33144C154A656C236443780B2096
:104DE0005B0043F00103D363FFF714FF63688A7825
:104DF00023F4F87343EA02136360CA784B7943EAF9
:104E00000223A3600A798B7943EA0223236108789D
:104E1000FFF782FFEB0744BF054B236402F03FFC22
:104E2000012038BD00900050004009500040005063
:104E30003254FFFF10B502F037FC042300F5805117
:104E400000F500520B6113610B6113610B6113617B
:104E50000B611361202341F2020103610023C3604F
:104E6000836041614FF4A021836141620449C361C1
:104E700003628362C36243630365D164036310BD4D
:104E8000FF3F0D0338B5194B044698420D460BD031
:104E9000174B984208D003F58043984204D04FF452
:104EA000B371144802F0AEFA25B92046BDE8384087
:104EB00002F0FABB012204F580535A6040F6FF71FC
:104EC000204605F00F0202F0EBFBA263782102F00E
:104ED000E7FB05F001036A0748BF43F00203A26C39
:104EE00002F003029A42FAD138BD00BF0000015B14
:104EF00000000A504E7B00082DE9F04105460C46A3
:104F0000174622B94FF40971704802F07BFA704BD2
:104F10009D4200F0CA806F4B9D4200F0CB8003F5AC
:104F200080439D4200F0CB8040F22721674802F089
:104F300069FA44B940F27631644802F063FA2046D7
:104F4000FFF71AF80446AB68D90744D5BC4204D22F
:104F500040F231215D4802F055FA6B6803F0010818
:104F6000B4FBF7F35C1EFF2C04D940F239215748FB
:104F700002F048FAB8F1000F2BD02821284602F0A1
:104F80008FFBAB6C9A071ED1AB6CDB071DD4AE6CEC
:104F900016F002061BD140F246214C4802F032FACC
:104FA000284602F081FB2B6923F07F4343EA046328
:104FB0002B61B8F1000F00F0878031462846BDE82C
:104FC000F041FFF75FBF0526EAE70926E8E7062676
:104FD000E6E74646E7E76B68012B04D040F259212B
:104FE0003A4802F00FFAA96801F0E001402946D0E2
:104FF00009D8B9B1202938D040F29B21BDE8F04151
:10500000324802F0FFB9602945D08029F4D107EB7E
:105010004703A34204D940F295212C4802F0F2F94B
:10502000012308E0B7EB141F04D940F2812127487F
:1050300002F0E8F910237B436401B4FBF3F3264E3E
:10504000203BB6EBC30F4FEAC30404D240F2A621C3
:105050001E4802F0D7F928463440012102F020FB17
:105060002C63BDE8F04102F01BBBB7EBD40F04D9B1
:1050700040F28621154802F0C5F90823DBE7062631
:10508000B4FBF6F3BB4204D240F28B210F4802F08E
:10509000B9F93346CFE7B7EB940F04D94FF4247135
:1050A0000A4802F0AFF90423C5E7002C7FF44BAFA8
:1050B000562444E7002C7FF446AF57243FE7002CEA
:1050C0007FF441AF58243AE7BDE8F0814E7B0008F9
:1050D0000000015B00000A50F8FF7F0070B5824BB2
:1050E000044698420D460AD0804B984207D003F5FB
:1050F0008043984203D0DF217D4802F083F91DB937
:10510000E1217B4802F07EF96A7BAB687AB1794A8B
:10511000934203D9E321764802F074F92B69D3B1A5
:10512000DB7BC3B1E621724802F06CF913E0724AEE
:10513000934203D9E9216E4802F064F92B6953B117
:105140001A7F42B1A9686D4A5B7F914240F2A0800C
:10515000042B00F2A08063682E6923B140F6FF7132
:10516000204602F09DFA2046FFF764FE22696B7B21
:10517000A97B22F087020B43134343F08003236192
:1051800016B32A692369117823F0F8030B43117FC2
:1051900043EAC113117943EA4113517A43EA0113F7
:1051A000D17B43EA81132361E168D2E9053021F024
:1051B000F04121F4702103430B43117B527B43EAFE
:1051C000812343EAC233E360A368EA7B23F003034D
:1051D000134343F00103A3602EB32A69A1685388E7
:1051E00003F4C0430B43A3605179A36843EA8123CE
:1051F000A3609379D079616A1B01000203F0700308
:1052000000F4E06021F4772121F4EE6103430B43C5
:10521000117A527F090301F4E04112040B4302F4B6
:1052200070221343636263692A7B23F00F031343E5
:105230006361B6B12B695A89A2615A7B3AB12A4A95
:1052400094422AD19A7B2E4902F00F024A66DA7BF9
:105250003AB1254A944233D11B7C294A03F00F030B
:105260001366D5E901122046FFF746FE05212046C8
:10527000FFF708FE2821204602F012FA2B78A363DC
:1052800002F00EFAA36CDB4313F4405FFAD170BD59
:10529000042B3FF660AFF02145E7144A944209D051
:1052A00002F580429442D2D19A7B154902F00F0256
:1052B000CA67CCE79A7B124902F00F020A67C6E779
:1052C0000A4A944209D002F580429442C9D11B7C1B
:1052D0000B4A03F00F039367C3E71B7C084A03F0F4
:1052E0000F03D366BDE700BF0000015B00000A505A
:1052F0004E7B0008002D3101809698003F4B4C00FA
:105300000090035070B5436804460D4616461BB125
:1053100040F6FF7102F0C4F92046FFF78BFDE989E2
:105320006B7B62690B43298A22F44C520B4322F0B7
:105330000F0213436361A2682B7B297E22F0804217
:1053400022F0E2020B4313436A691343A360AB6884
:105350001BB9A36843F00043A360EB69002B64D042
:10536000A16898885B4A00F4C0400A4010431A7A4A
:1053700040EA82509A7A40EA42405A7840EA8200F3
:105380005A7B40EAC2009A7B40EA02109A7840EACF
:105390008220A060E068D3E904210A434E4901401D
:1053A0000A43997942EA8122D97942EA4122E260AC
:1053B0001A7802F0FD01012908BFE168A2F102029A
:1053C00004BF41F00401E160012A444A4ED89442EE
:1053D00048D0434A944247D002F5804294420CBFE1
:1053E00002224FF0FF323F495201114402224A602B
:1053F0005A7A04F580518A621AB1E26842F4006276
:10540000E260DA7A5AB1E26842F40042E260334A7A
:1054100094423ED11A7B344902F00F024A66626A16
:10542000DB7B22F00302134363623EB196F8203027
:1054300004F58051002B3FD001230B62052120464B
:10544000FFF720FDAA681AB120466968FFF754FDEE
:1054500020462978FFF716FDA36CDB4313F4405F69
:10546000FAD170BD0022BEE70122BCE794420CD005
:105470001B4A94420BD002F5804294420CBF022298
:105480004FF0FF3219495201AFE70022FAE701223B
:10549000F8E7134A944209D002F580429442BED103
:1054A0001A7B114902F00F02CA67B8E71A7B0E494E
:1054B00002F00F020A67B2E7E26996F8223096F826
:1054C000210022F009020343134343F00103CB619F
:1054D000B4E700BFE39BBDFFFFF9F0870000015B6D
:1054E00000000A50C0D4035000900350C0E40350A1
:1054F00038B52A4B054698420C4640D08A212848A8
:1055000001F080FF34B98C21254801F07BFF234B4B
:105510009D4236D09E21224801F074FF637B032B0D
:1055200003D9AA211E4801F06DFF237B802B03D0F5
:10553000AC211B4801F066FF6369B3F1804F03D0D3
:10554000AE21174801F05EFF238A23F400539BB27B
:10555000B3F5805F03D0B021114801F053FFA36879
:10556000013BB3F5165F03D3B2210D4801F04AFFAA
:1055700021462846BDE838400022FFF7C3BE002977
:10558000C1D05620FEF724FEA0F10903022BC5D995
:10559000A0F11003012BBDD8C0E700BF0000015BE4
:1055A0004E7B000838B5154B044698420D460AD08C
:1055B000134B984207D003F58043984203D07021E3
:1055C000104801F01FFF1DB972210E4801F01AFFAB
:1055D0002B7B802B03D176210A4801F013FF6B7BD4
:1055E000032B03D97921074801F00CFF29462046F7
:1055F000BDE838400022FFF785BE00BF0000015B18
:1056000000000A504E7B000870B51F2904460D4665
:10561000164603D99121074801F0F4FE36B104F58E
:105620008054012101FA05F5256070BD04F5005490
:10563000F7E700BF807B000838B50D460446B0B1DF
:10564000012817D0022817D0032803D13F23EB40AD
:10565000DB0704D440F22D41094801F0D3FE30208D
:1056600001214443074B01FA05F51D5138BD40F2B5
:10567000FF13ECE77F23EAE740F2FF33E7E700BFE1
:10568000A078000840D0035038B50D460446B0B1AC
:10569000012817D0022817D0032803D13F23EB405D
:1056A000DB0704D440F2FE31094801F0ABFE3020A4
:1056B00001214443074B01FA05F51D5138BD40F265
:1056C000FF13ECE77F23EAE740F2FF33E7E700BF91
:1056D000A078000840E003502DE9F3470D4614463A
:1056E0001E4681469DF828809DF82C70002843D0E6
:1056F000012844D0022844D0032803D13F23EB40A3
:10570000DB0703D4BF21294801F07CFE85EA0403AE
:1057100033F0030303D0C121244801F073FE072CAA
:105720004FF0030105F003052ED84FEA840A01FA71
:105730000AF11F4809FA0AF2019101F0E8FF019904
:105740001C4805FA0AF201F0E2FF324621461A48E7
:10575000FFF75AFF424621461848FFF755FF01233D
:10576000174AA340C2F8203421463A46154802B0F1
:10577000BDE8F047FFF748BF40F2FF13BFE77F23C4
:10578000BDE740F2FF33BAE7A4F1080A4FEA8A0AFC
:1057900001FA0AF10C4809FA0AF2019101F0B7FF87
:1057A00001990A4805FA0AF2CDE700BFE77B000835
:1057B00000C4035008C4035010C4035014C4035061
:1057C00000E0035024C4035004C403500CC403502D
:1057D0002DE9F0410D46174698460446002835D07D
:1057E000012836D0022836D0032803D13F23EB40CE
:1057F000DB0704D44FF4B0711D4801F003FE37B14C
:1058000029462046B8F1000F28D0FFF715FF0F21D9
:10581000072D04EB440688BFA5F108034FEA0616DE
:10582000144895BFAB009B0004360C3607FA03F210
:105830009940304401F06BFFBFB929462046B8F1CA
:10584000000F0ED0BDE8F041FFF7F6BE40F2FF13A7
:10585000CDE77F23CBE740F2FF33C8E7FFF714FF24
:10586000D5E7BDE8F041FFF70FBFBDE8F08100BF0D
:10587000E77B000830C00350F8B506460C461546D5
:105880009ABB40F21511BDE8F8402F4801F0BABDAF
:105890002E4B9E4201D12F203DE040F22F112A488D
:1058A00001F0B0FD3AE0032F42D0294B3CE06FEA13
:1058B000C50505442C44B4FBF0F4013C0AD540F284
:1058C0007B11214801F09EFD4FF4BE711E4801F08E
:1058D00099FD02E0B4F5007FF6D2B3689B0702D5CC
:1058E000002C08BF0124B461F8BD03F003078368EE
:1058F00023F44073836001F0C1FEB26882EA07239B
:1059000003F440735340B36001F0BCFE34B9B6F108
:10591000B64FBDD12E20FEF72FFB0446B3689A0781
:10592000C1D5032F04D00B4B53F827309C4204D829
:105930004FF4B271044801F065FD074BD85D684330
:10594000B5D140F275119EE7177C00080080065023
:10595000547C0008487C0008607C000838B5B0F131
:10596000B64F04460D4607D0084B984204D040F28B
:105970009511074801F046FD043425B104F5805423
:105980000123236038BD04F50054F9E70080065078
:10599000177C000838B5B0F1B64F04460D4607D065
:1059A000124B984204D04FF4D571114801F02AFDF2
:1059B0000023104A236404F50053DA636A7804F183
:1059C00008037AB903F5805302221A602046D5E90C
:1059D00001122B7BFFF750FF20462978BDE83840A5
:1059E000FFF7BCBF03F50053EEE700BF0080065091
:1059F000177C0008FFFF1F002DE9F843B0F1B64FF8
:105A00000BD0884B984226D0874840F2012101F004
:105A1000F9FC6FF00300BDE8F883844B40250526B0
:105A20004FF000084FF0030C996800F50054C26B6A
:105A300012F4C06F15D097050FD5FD225A700922B8
:105A40001A700022026493F90110012900D15A70E2
:105A500093F90100DFE7764BE0E75605EFD5FE222C
:105A6000ECE71F78082F00F2D880DFE817F0090074
:105A70001F0041004C006900740096009E00CD009C
:105A80004C880A88E5060AD5120A02F0060242F09E
:105A9000F002012119704263C1600120BBE702F0EE
:105AA000FE02A10748BF42F00102F2E7170607D540
:105AB000802100F50052D1634FF608721A8062E02F
:105AC0005206EAD54A88E563D70604D502221A7041
:105AD0000B784363E1E7920765D507221A701B79BB
